:020000040800F2
:100000000008002069030008B3030008B9030008D2
:10001000AD030008AD030008AD03000800000000B8
:10002000000000000000000000000000AD03000818
:10003000AD03000800000000AD030008AD03000898
:10004000AD030008AD030008AD030008AD030008D0
:10005000AD030008AD030008AD030008AD030008C0
:10006000AD03000811060008AD030008AD03000849
:10007000AD030008AD030008AD030008AD030008A0
:10008000AD030008AD030008AD030008AD03000890
:10009000AD030008AD030008AD030008AD03000880
:1000A000AD030008AD030008AD030008AD03000870
:1000B000D9040008AD030008AD030008AD03000833
:1000C000AD030008AD030008AD030008AD03000850
:1000D000AD030008AD030008AD030008AD03000840
:1000E000AD030008AD03000800000000AD030008E8
:1000F000AD030008AD030008AD030008AD03000820
:10010000AD030008AD030008AD030008AD0300080F
:10011000AD030008AD030008AD030008AD030008FF
:10012000AD030008AD030008AD030008AD030008EF
:10013000AD030008AD030008AD030008AD030008DF
:1001400000000000000000000000000000000000AF
:10015000AD030008AD030008AD030008AD030008BF
:10016000AD030008AD030008AD030008AD030008AF
:10017000AD030008AD030008AD0300080000000057
:10018000AD030008AD030008AD030008AD0300088F
:10019000AD030008AD030008AD030008AD0300087F
:1001A000AD030008AD030008AD030008AD0300086F
:1001B000AD030008AD030008AD030008AD0300085F
:1001C000AD030008AD030008AD030008AD0300084F
:1001D000AD030008AD030008AD030008AD0300083F
:1001E000AD030008AD030008AD030008AD0300082F
:1001F000AD030008AD030008AD030008AD0300081F
:10020000AD030008AD030008AD030008AD0300080E
:10021000AD030008AD030008AD030008AD030008FE
:10022000AD030008AD030008AD03000800000000A6
:10023000AD030008AD03000800000000AD03000896
:10024000AD030008AD030008AD030008AD030008CE
:10025000AD030008AD030008AD030008AD030008BE
:10026000AD030008AD030008AD030008AD030008AE
:10027000AD030008AD030008AD0300080000000056
:10028000AD030008AD030008AD0300080000000046
:1002900000000000AD03000880B400AF00BFBD4601
:1002A00080BC704780B400AF00BFBD4680BC7047C3
:1002B00080B582B000AF174A174BD31A9B103B6032
:1002C00000237B607A683B689A4208DA124A7B68AE
:1002D00052F8233098477B6801337B60F2E7FFF7E1
:1002E000DBFF0E4A0E4BD31A9B103B6000237B6052
:1002F0007A683B689A4208DA094A7B6852F82330E8
:1003000098477B6801337B60F2E700BF0837BD4642
:1003100080BD00BF00000000C40A0008C40A000835
:10032000C40A000880B582B000AF0D4A0D4BD31A45
:100330009B103B603B687B607B68002B09DD7B6822
:10034000013B084A52F8233098477B68013B7B60A9
:10035000F2E7FFF7A7FF00BF0837BD4680BD00BF2B
:10036000C40A0008C40A000872B60B4C0B4D0C4BB3
:100370009D4204D023682B6004340435F7E7094C10
:10038000094B9C4203D0002323600434F8E7FFF7B5
:100390008FFF00F0BCF900BFC40A0008000800206D
:1003A00000080020000800200808002080B400AFEA
:1003B000FEE780B400AFFEE780B483B000AF002357
:1003C0007B607B68034A9342F9DA7B6801337B6088
:1003D000F7E700BFC030460080B483B000AF0346EB
:1003E000FB80B7F90630002B0BDBFB8803F01F0204
:1003F0000649B7F906305B09012000FA02F241F81C
:10040000232000BF0C37BD4680BC704700E100E0F0
:1004100080B582B000AF78600B46FB701346BB70AE
:100420007B6800221A70BA78FB781946786800F069
:100430000BF8044A7B6813607B6818460837BD4692
:1004400080BD00BF0008002080B582B000AF78609A
:100450000B46FB701346BB70FB78022B34D11D4B4F
:10046000D3F8E8301B4A43F00103C2F8E830BB7808
:10047000002B02D0012B09D012E04FF0804318224C
:100480009A624FF080430922DA6209E04FF080431C
:10049000F0229A624FF0804340F2E732DA6200BF06
:1004A0004FF08043DB684FF0804243F00103D3609C
:1004B0004FF080431B684FF0804243F0010313600C
:1004C0001C20FFF789FF00E000BF00BF0837BD46D2
:1004D00080BD00BF0044025880B400AF4FF080439D
:1004E0001B694FF0804223F001031361034B1B682B
:1004F00001221A7000BFBD4680BC70470008002072
:1005000080B483B000AF0346FB80B7F90630002B00
:100510000BDBFB8803F01F020649B7F906305B09C5
:10052000012000FA02F241F8232000BF0C37BD463B
:1005300080BC704700E100E080B582B000AF786019
:100540007B6800221A70786800F00AF8034A7B681A
:1005500013607B6818460837BD4680BD040800203C
:1005600080B582B000AF7860264BD3F8E030254AE2
:1005700043F00403C2F8E030234B1B68224A23F007
:10058000C0031360204BDA681F4912F1C10F2CBF62
:10059000012300236FF0C00000FB03F3D31ACB60EC
:1005A000184BD3F8F430174A43F00203C2F8F43082
:1005B000164B9B68154A43F4005393604FF0B043C9
:1005C0005B684FF0B04243F0080353604FF0B04314
:1005D000D3F880304FF0B04243F00803C2F88030C7
:1005E0004FF0B043D3F888304FF0B04243F00803E7
:1005F000C2F888300920FFF783FF00BF0837BD46E7
:1006000080BD00BF00440258000802580004005892
:1006100080B400AF4FF0B0430822C3F88820044BE9
:100620001B6801221A7000BFBD4680BC704700BF26
:100630000408002080B582B000AF7860786800F0D0
:1006400029F87B6818460837BD4680BD80B483B062
:1006500000AF7860054B5B69044A83F40073536113
:1006600000BF0C37BD4680BC704700BF0004025875
:1006700080B483B000AF7860054B5B69044A23F413
:100680000073536100BF0C37BD4680BC704700BF8C
:100690000004025880B483B000AF78600F4BD3F8E9
:1006A000E0300E4A43F00203C2F8E0300C4B1B6806
:1006B0000B4A43F480231360094B1B68084A23F458
:1006C00000231360064B9B68054A43F44023936064
:1006D00000BF0C37BD4680BC704700BF00440258C5
:1006E0000004025880B483B000AF78600B46FB7002
:1006F000034AFB78536100BF0C37BD4680BC70478E
:100700000010025880B483B000AF7860FEE780B577
:1007100088B000AF07F114034FF4C871184600F019
:1007200041F807F110031846FFF706FF07F10C0325
:100730001846FFF77FFF07F1080301220221184640
:10074000FFF766FE3B1D184600F084F962B600BF55
:100750006423BB613B1D7F211846FFF7C3FF3B1D90
:1007600000211846FFF7BEFF3B7C002BF2D0192377
:10077000FB83FB8B002B0DD03B7A002BF9D007F1CC
:100780000C031846FFF762FFFB8B013BFB83002342
:100790003B72EEE707F10C031846FFF769FF0023F1
:1007A0003B74D7E780B582B000AF78600B467B80A2
:1007B0007B881946786800F005F87B68184608378A
:1007C000BD4680BD80B483B000AF78600B467B80AF
:1007D0008D4B00221A608C4B1B688B4A43F004033C
:1007E00013608A4B1B68894A23F001031360874B0F
:1007F0001B68864A43F480331360844B1B6803F400
:100800000033002B0CBF01230023DBB2002B00D0F0
:10081000F3E77E4B00221A617C4B00229A627B4BED
:100820009B6A7A4A43F0020393627B88B3F5FA7FAE
:1008300000F0AF80B3F5FA7F00F3B880B3F5C87F5E
:1008400046D0B3F5C87F00F3B180482B02D0902B7F
:1008500019D0ABE06D4B9B6A6C4A23F46C739362C6
:100860006A4B9B6A694A43F040039362674B1A6B79
:100870006649674B13430B63644B9B69634A43F4BC
:10088000806393619FE0614B9B6A604A23F46C73C1
:1008900093625E4B9B6A5D4A43F0400393625B4BFD
:1008A0001A6B5A495A4B13430B63584B9B69574A6F
:1008B00043F400739361554BDB6A544A43F00C03D5
:1008C000D362524BDB6A514A23F00203D3627AE0CF
:1008D0004E4B9B6A4D4A23F4787393624B4B9B6A51
:1008E0004A4A43F010039362484B00221A63474B75
:1008F0001A6B4649474B13430B63444B0022DA62A1
:10090000424BDB6A414A43F00C03D3623F4BDB6A44
:100910003E4A23F00203D3623C4B9B693B4A23F4DB
:1009200070639361394B9B69384A43F008039361C4
:10093000364B9B69354A43F040039361334B9B69C7
:10094000324A23F030039361304BDB692F4A43F086
:100950004003D3612D4BDB692C4A23F03003D36174
:100960002A4BDB69294A43F48063D361274BDB6957
:10097000264A23F44073D361244B1B6A234A43F075
:1009800040031362214B1B6A204A23F03003136299
:1009900019E01E4B1B681D4A43F4803313601B4B48
:1009A0001B681A4A23F0010313604DE0174B1B68C4
:1009B000164A23F480331360144B1B68134A43F028
:1009C0000103136040E0114B00225A630F4BDB6AB6
:1009D0000E4A43F4E023D3620C4BDB6A0B4A23F04C
:1009E0000103D362094B1B68084A43F0807313600C
:1009F000064B1B6803F00073002B0CBF0123002380
:100A0000DBB2002B08D0F3E700200052004402586C
:100A10008F020101640402020D4B1B690C4A23F092
:100A2000040313610A4B1B69094A43F00303136172
:100A3000074B1B6903F03803182B14BF0123002355
:100A4000DBB2002B00D0F3E70C37BD4680BC70470B
:100A50000044025880B582B000AF7860786800F03A
:100A600005F87B6818460837BD4680BD80B483B062
:100A700000AF7860104BD3F8E0300F4A43F010031A
:100A8000C2F8E0300D4B1A680C4941F2555313433C
:100A90000B600A4B1A680949094B13400B60074B5E
:100AA0009A68064943F6FF7313438B6000BF0C3707
:100AB000BD4680BC704700BF004402580010025879
:040AC00055D5FFFF0A
:0400000508000000EF
:00000001FF
