:020000040800F2
:10000000000800206D030008B7030008BD030008C6
:10001000B1030008B1030008B103000800000000AC
:10002000000000000000000000000000B103000814
:10003000B103000800000000B1030008B10300088C
:10004000B1030008B1030008B1030008B1030008C0
:10005000B1030008B1030008B1030008B1030008B0
:10006000B103000879060008B1030008B1030008D5
:10007000B1030008B1030008B1030008B103000890
:10008000B1030008B1030008B1030008B103000880
:10009000B1030008B1030008B1030008B103000870
:1000A000B1030008B1030008B1030008B103000860
:1000B00031050008B1030008B1030008B1030008CE
:1000C000B1030008B1030008B1030008B103000840
:1000D000B1030008B1030008B1030008B103000830
:1000E000B1030008B103000800000000B1030008DC
:1000F000B1030008B1030008B1030008B103000810
:10010000B1030008B1030008B1030008B1030008FF
:10011000B1030008B1030008B1030008B1030008EF
:10012000B1030008B1030008B1030008B1030008DF
:10013000B1030008B1030008B1030008B1030008CF
:1001400000000000000000000000000000000000AF
:10015000B1030008B1030008B1030008B1030008AF
:10016000B1030008B1030008B1030008B10300089F
:10017000B1030008B1030008B1030008000000004B
:10018000B1030008B1030008B1030008B10300087F
:10019000B1030008B1030008B1030008B10300086F
:1001A000B1030008B1030008B1030008B10300085F
:1001B000B1030008B1030008B1030008B10300084F
:1001C000B1030008B1030008B1030008B10300083F
:1001D000B1030008B1030008B1030008B10300082F
:1001E000B1030008B1030008B1030008B10300081F
:1001F000B1030008B1030008B1030008B10300080F
:10020000B1030008B1030008B1030008B1030008FE
:10021000B1030008B1030008B1030008B1030008EE
:10022000B1030008B1030008B1030008000000009A
:10023000B1030008B103000800000000B10300088A
:10024000B1030008B1030008B1030008B1030008BE
:10025000B1030008B1030008B1030008B1030008AE
:10026000B1030008B1030008B1030008B10300089E
:10027000B1030008B1030008B1030008000000004A
:10028000B1030008B1030008B1030008000000003A
:1002900000000000B103000880B400AF00BFBD46FD
:1002A0005DF8047B704780B400AF00BFBD465DF8C9
:1002B000047B704780B582B000AF174A174BD31A42
:1002C0009B103B6000237B607A683B689A4208DAA7
:1002D000124A7B6852F8233098477B6801337B6071
:1002E000F2E7FFF7D9FF0E4A0E4BD31A9B103B6083
:1002F00000237B607A683B689A4208DA094A7B6887
:1003000052F8233098477B6801337B60F2E700BFE7
:100310000837BD4680BD00BF000000001045000842
:10032000104500081045000880B582B000AF0D4AA6
:100330000D4BD31A9B103B603B687B607B68002BA6
:1003400009DD7B68013B084A52F8233098477B68F7
:10035000013B7B60F2E7FFF7A6FF00BF0837BD4611
:1003600080BD00BF104500081045000872B60B4C58
:100370000B4D0C4B9D4204D023682B600434043594
:10038000F7E7094C094B9C4203D000232360043457
:10039000F8E7FFF78FFF00F0ECF900BF1445000805
:1003A000000800206808002068080020800800205D
:1003B00080B400AFFEE780B400AFFEE780B483B046
:1003C00000AF00237B607B68034A9342F9DA7B68C5
:1003D00001337B60F7E700BFC030460080B483B0D4
:1003E00000AF0346FB80B7F90630002B0BDBFB8820
:1003F00003F01F020749B7F906305B09012000FA34
:1004000002F241F8232000BF0C37BD465DF8047BA3
:10041000704700BF00E100E080B582B000AF7860B7
:100420000B46FB701346BB707B6800221A707B681A
:1004300000225A60BA78FB781946786800F02AF8EA
:10044000074B1B785A1CD1B2054A11701946054A50
:100450007B6842F821307B6818460837BD4680BD6E
:10046000700800206808002080B483B000AF786076
:1004700039607B6800225A607B685B683A689A4200
:1004800001D900BFF8E700BF0C37BD465DF8047B1B
:100490007047000080B582B000AF78600B46FB70FB
:1004A0001346BB70FB78022B3BD1204BD3F8E830CE
:1004B0001E4A43F00103C2F8E830BB78002B0AD093
:1004C000012B1AD14FF0804314229A624FF08043DF
:1004D0000922DA6211E04FF0804364229A624FF001
:1004E000804364229A624FF0804364229A624FF004
:1004F000804340F2E732DA6200BF4FF08043DB68AE
:100500004FF0804243F00103D3604FF080431B68FB
:100510004FF0804243F0010313601C20FFF75EFFA1
:1005200000E000BF00BF0837BD4680BD0044025850
:1005300080B400AF4FF080431B694FF0804223F03E
:1005400001031361064B1B6801221A70044B1B68E0
:100550005A6801325A6000BFBD465DF8047B70479F
:100560006808002080B483B000AF0346FB80B7F971
:100570000630002B0BDBFB8803F01F020749B7F99D
:1005800006305B09012000FA02F241F8232000BF87
:100590000C37BD465DF8047B704700BF00E100E00A
:1005A00080B582B000AF78607B6800221A707868EE
:1005B00000F00AF8034A7B6813607B681846083726
:1005C000BD4680BD7408002080B582B000AF786061
:1005D000264BD3F8E030254A43F00403C2F8E0305C
:1005E000234B1B68224A23F0C0031360204BDA68B8
:1005F0001F4912F1C10F2CBF012300236FF0C0006F
:1006000000FB03F3D31ACB60184BD3F8F430174A2E
:1006100043F00203C2F8F430164B9B68154A43F4CA
:10062000005393604FF0B0435B684FF0B04243F02B
:10063000080353604FF0B043D3F880304FF0B0421E
:1006400043F00803C2F880304FF0B043D3F888304D
:100650004FF0B04243F00803C2F888300920FFF79A
:1006600081FF00BF0837BD4680BD00BF004402586F
:10067000000802580004005880B400AF4FF0B043A7
:100680000822C3F88820044B1B6801221A7000BF9F
:10069000BD465DF8047B70477408002080B582B0C9
:1006A00000AF7860786800F037F87B681846083744
:1006B000BD4680BD80B485B000AF786042F2107353
:1006C000FB600B4B5B690A4A83F400735361FB6860
:1006D0005A1EFA60002B14BF01230023DBB2002B4B
:1006E00000D0F4E700BF1437BD465DF8047B7047C7
:1006F0000004025880B483B000AF7860054B5B699A
:10070000044A23F40073536100BF0C37BD465DF803
:10071000047B70470004025880B483B000AF786057
:100720000F4BD3F8E0300E4A43F00203C2F8E0303A
:100730000C4B1B680B4A43F480231360094B1B6866
:10074000084A23F400231360064B9B68054A43F4D0
:100750004023936000BF0C37BD465DF8047B7047B3
:10076000004402580004025880B483B000AF78609F
:10077000FEE780B588B000AF07F118034FF4C871E9
:10078000184600F043F807F114031846FFF708FF76
:1007900007F110031846FFF781FF07F10803002255
:1007A00002211846FFF738FE62B600BF3B1D18460F
:1007B00000F0A8FB3B46184601F092FF0023FB83A4
:1007C000FB8B5A1CFA833A1D1946104600F0B6FA04
:1007D0003B7D002BF4D01923BB83BB8B002B0DD0AA
:1007E0003B7A002BF9D007F110031846FFF762FFA0
:1007F000BB8B013BBB8300233B72EEE707F1100389
:100800001846FFF777FF00233B75D9E780B582B024
:1008100000AF78600B467B807B881946786800F0D3
:1008200005F87B6818460837BD4680BD80B483B0A4
:1008300000AF78600B467B808F4BDB688E4A23F0DD
:100840000203D3608C4BDB688B4A23F00503D36033
:10085000894B9B69884A43F440439361864B9B696B
:1008600003F40053B3F5005F14BF01230023DBB290
:10087000002B00D0F2E7814B1B68804A43F48033A1
:1008800013607E4B1B6803F40033002B0CBF012365
:100890000023DBB2002B00D0F3E7784B00221A6173
:1008A000764B00229A62754B02229A627B88B3F5DE
:1008B000F07F00F0EB80B3F5F07F00F35781402B21
:1008C00003D0B3F5C87F67D050E16C4B9B6A6B4A8D
:1008D00043F020039362694B00221A63674B0022A6
:1008E0009A63664B00221A64644B1A6B6349644B2B
:1008F00013430B63614B0022DA62604BDB6A5F4A91
:1009000023F00C03D3625D4BDB6A5C4A43F00403C3
:10091000D3625A4BDB6A594A43F00203D362574B06
:100920009B69564A43F400639361544B9B69534A55
:1009300023F00F039361514B9B69504A23F040030E
:1009400093614E4B9B694D4A23F0300393614B4BAF
:10095000DB694A4A23F04003D361484BDB69474ACD
:1009600023F03003D361454BDB69444A23F48063B1
:10097000D361424BDB69414A23F44073D3613F4B5F
:100980001B6A3E4A23F0400313623C4B1B6A3B4AFE
:1009900023F030031362F6E0384B9B6A374A43F08A
:1009A00040039362354B00221A63344B00229A6352
:1009B000324B00221A64314B1A6B3049314B1343CE
:1009C0000B632E4B0022DA622C4BDB6A2B4A43F07E
:1009D0000403D362294BDB6A284A23F00203D36263
:1009E000264B00229A61254B9B69244A23F47063AD
:1009F0009361224B9B69214A43F0080393611F4B8B
:100A00009B691E4A43F0400393611C4B9B691B4A40
:100A100023F030039361194BDB69184A43F040031C
:100A2000D361164BDB69154A23F03003D361134BB6
:100A3000DB69124A43F48063D361104BDB690F4AD0
:100A400023F44073D3610D4B1B6A0C4A43F04003FF
:100A500013620A4B1B6A094A23F0300313620A4BE4
:100A60001B68094A23F00F031360074B1B68064AF3
:100A700043F00603136086E0004802580044025821
:100A8000400201019003010100200052674B9B6A64
:100A9000664A43F040039362644B00221A63634B3F
:100AA00000229A63614B00221A64604B1A6B5F4903
:100AB0005F4B13430B635D4B0022DA625B4BDB6AD7
:100AC0005A4A43F00403D362584BDB6A574A23F077
:100AD0000203D362554B00229A61544B9B69534ADF
:100AE00023F470639361514B9B69504A43F00803B0
:100AF00093614E4B9B694D4A43F0400393614B4BCE
:100B00009B694A4A23F030039361484BDB69474AAB
:100B100043F04003D361454BDB69444A23F0300383
:100B2000D361424BDB69414A43F48063D3613F4B5D
:100B3000DB693E4A23F44073D3613C4B1B6A3B4A5A
:100B400043F040031362394B1B6A384A23F03003E9
:100B50001362384B1B68374A23F00F031360354B81
:100B60001B68344A43F0030313600CE02F4B1B68EF
:100B70002E4A23F4803313602C4B1B682B4A43F01E
:100B8000010313604CE0294B00225A63274BDB6AB8
:100B9000264A43F4E023D362244BDB6A234A23F042
:100BA0000103D362214B1B68204A43F0807313601A
:100BB0001E4B1B6803F00073002B0CBF01230023A6
:100BC000DBB2002B00D0F3E7184BD3F8F430174A10
:100BD00043F00203C2F8F430174B1B6A164A43F085
:100BE00001031362114B1B69104A23F007031361C1
:100BF0000E4B1B690D4A43F0030313610B4B1B693A
:100C000003F03803182B14BF01230023DBB2002BA1
:100C100000D0F3E7054B1B68044A23F0010313607F
:100C20000C37BD465DF8047B704700BF0044025896
:100C3000E0030101002000520004005880B582B09A
:100C400000AF7860786800F005F87B6818460837D0
:100C5000BD4680BD80B483B000AF7860104BD3F840
:100C6000E0300F4A43F01003C2F8E0300D4B1A6831
:100C70000C4941F2555313430B600A4B1A6809495A
:100C8000094B13400B60074B9A68064943F6FF7304
:100C900013438B6000BF0C37BD465DF8047B704783
:100CA000004402580010025855D5FFFF80B483B0AD
:100CB00000AF78607B6818460C37BD465DF8047B52
:100CC0007047000080B483B000AF7860054B9B692B
:100CD000044A43F40043936100BF0C37BD465DF8FE
:100CE000047B70470000025880B483B000AF786086
:100CF000054B9B69044A43F00043936100BF0C37E6
:100D0000BD465DF8047B70470000025880B582B094
:100D100000AF78607868FFF7C9FF7B68184608372E
:100D2000BD4680BD80B582B000AF78607868FFF7BF
:100D3000EDFF7B6818460837BD4680BD80B483B0A0
:100D400000AF78600B467B807B881A12064BD2B2CC
:100D50005A70054B7A88D2B25A7000BF0C37BD4624
:100D60005DF8047B704700BFFFFF006080B483B074
:100D700000AF78600B467B807B881A12064BD2B29C
:100D80001A70054B7A88D2B21A7000BF0C37BD4674
:100D90005DF8047B704700BFFFFF006080B483B044
:100DA00000AF78600B467B8013463B807B881A122D
:100DB0000A4BD2B21A70094B7A88D2B21A703B88A9
:100DC0001A12064BD2B25A70044B3A88D2B25A70F9
:100DD00000BF0C37BD465DF8047B7047FFFF006025
:100DE00080B582B000AF78600B467B807B881B0AA1
:100DF0009BB21A464FF428517868FFF7CFFF7B88E3
:100E0000DBB29BB21A4642F601217868FFF7C6FFB3
:100E100000BF0837BD4680BD80B582B000AF7860A6
:100E20000B467B807B881B0A9BB21A464FF42C51E1
:100E30007868FFF7B3FF7B88DBB29BB21A4642F6B5
:100E400001317868FFF7AAFF00BF0837BD4680BDB3
:100E500080B584B000AFF860084611461A460346D4
:100E60007B810B463B811346FB807B891B129BB227
:100E70001A464FF42851F868FFF790FF7B89DBB2E0
:100E80009BB21A4642F60121F868FFF787FFFB88FC
:100E90001B129BB21A4642F60221F868FFF77EFF4A
:100EA000FB88DBB29BB21A4642F60321F868FFF7D3
:100EB00075FF3B891B129BB21A464FF42C51F86800
:100EC000FFF76CFF3B89DBB29BB21A4642F6013159
:100ED000F868FFF763FF3B8B1B129BB21A4642F682
:100EE0000231F868FFF75AFF3B8BDBB29BB21A4620
:100EF00042F60331F868FFF751FF00BF1037BD46D7
:100F000080BD000080B582B000AF78607868FFF7E0
:100F1000CDFE786800F010F87868FFF7E5FE786895
:100F200000F0D2F9034A7B6813607B6818460837E3
:100F3000BD4680BD7808002080B483B000AF7860E3
:100F40009B4BD3F8E0309A4A43F00803C2F8E030F4
:100F5000984B1A689749984B13430B60954B1A6846
:100F60009449964B13400B60924B9A689149944B6D
:100F700013438B608F4B5A6A8E49924B13434B62DB
:100F80008C4B1A688B4948F60A2313430B60894B34
:100F90001A6888498C4B13400B60864B9A688549C8
:100FA0004CF60F7313438B60824B1A6A8149874B4F
:100FB00013430B627F4B1B687E4A43F05003136060
:100FC0007C4B1B687B4A23F0A0031360794B9B6822
:100FD000784A43F0F0039360754BD3F8E030744ADD
:100FE00043F01003C2F8E030794B1B68784A43F4B1
:100FF0002A131360764B1B68754A23F4AA131360F7
:10100000734B9B68724A43F47F139360704B1B6A67
:101010006F4A43F0404313626D4B5A6A6C4940F685
:10102000CC4313434B62624BD3F8E030604A43F049
:101030000103C2F8E030674B1B68664A43F0804307
:101040001360644B1B68634A23F000431360614BD9
:101050009B68604A43F040439360BFF35F8F00BFDB
:101060005D4B5B6A5C4A23F4803353625B4B002226
:101070005A605A4B00229A60584B4FF0C042DA60D7
:10108000564B00221A61554B1B69544A43F0010329
:101090001361524B1B69514A43F0360313614F4BA6
:1010A0004E4A1B6913614D4B1B694C4A43F4803314
:1010B00013614A4B494A1B691361484B474A1B69F4
:1010C0001361464B454A1B691361444B1B69434AF4
:1010D00043F040731361414B404A1B6913613F4B1E
:1010E00005225A603C4B5B6A3B4A43F480335362AF
:1010F000BFF34F8F00BFBFF36F8F00BF2C4BDB6C74
:101100002B4A23F00303D364294BD3F8D430284A65
:1011100043F48053C2F8D430314B1B68304A23F477
:10112000004313602E4B1B682D4A23F48073136019
:101130002B4B1B682A4A23F400231360284B1B689F
:10114000274A23F4E0231360254B1B68244A23F429
:1011500080431360224B1B68214A43F04003136015
:101160001F4B1B681E4A43F0010313601C4B1B6896
:101170001B4A23F00C031360194B1B68184A43F0F9
:1011800008031360164B1B68154A23F00403136011
:10119000134B1B68124A23F002031360104B1B68A9
:1011A0000F4A23F0300313600D4B1B681AE000BF99
:1011B00000440258000C0258000080A0FFFFBFAF9F
:1011C0000000C0F000C000CCFABAFFFFCC00CCC0D9
:1011D000001002580000025800ED00E090ED00E021
:1011E00000400052374A23F400631360354B1B68FC
:1011F000344A23F400531360324B1B68314A23F402
:10120000007313602F4B1B682E4A43F48053136006
:101210002C4B1B682B4A23F480131360294B1B684B
:10122000284A43F000431360264B5B68254A23F0AD
:1012300040535360234B5B68224A43F08053536012
:10124000204B5B681F4A23F0F00353601D4B5B6823
:101250001C4A43F0F00353601A4B5B68194A23F0B1
:101260000F035360174B5B68164A43F00803536043
:10127000144B5B68134A23F470235360114B5B6873
:10128000104A23F4700353600E4B5B680D4A23F43D
:101290007F4353600B4B5B680A4A43F4006353601F
:1012A000084B5B68074A23F070635360054B5B682B
:1012B000044A43F07063536000BF0C37BD465DF8CD
:1012C000047B70470040005280B586B002AF786062
:1012D000D84B1B6832211846FFF7C6F87868FFF72D
:1012E00003FDD44B1B6864211846FFF7BDF87868EE
:1012F000FFF7E8FCCF4B1B6832211846FFF7B4F824
:1013000055224FF470417868FFF748FDAA224FF24A
:1013100001017868FFF742FD52224FF2020178681E
:10132000FFF73CFD08224FF203017868FFF736FD16
:1013300001224FF204017868FFF730FD34224FF4A8
:1013400036417868FFF72AFD34224BF20161786854
:10135000FFF724FD34224BF202617868FFF71EFD8F
:101360000D224FF430417868FFF718FD0D224BF243
:1013700001017868FFF712FD0D224BF20201786837
:10138000FFF70CFD24224FF437417868FFF706FD84
:1013900024224BF201717868FFF700FD24224BF202
:1013A00002717868FFF7FAFC0D224FF4314178683A
:1013B000FFF7F4FC0D224BF201117868FFF7EEFC09
:1013C0000D224BF202117868FFF7E8FC24224FF45B
:1013D00038417868FFF7E2FC24224BF60101786877
:1013E000FFF7DCFC24224BF602017868FFF7D6FCFD
:1013F00000224FF432417868FFF7D0FC24224FF4EA
:1014000039417868FFF7CAFC24224BF6011178684D
:10141000FFF7C4FC24224BF602117868FFF7BEFCEC
:1014200005224FF433417868FFF7B8FC05224BF2F0
:1014300001317868FFF7B2FC05224BF2023178687F
:10144000FFF7ACFC34224FF43A417868FFF7A6FC72
:1014500034224BF601217868FFF7A0FC34224BF6CA
:1014600002217868FFF79AFC0B224FF43541786827
:10147000FFF794FC0B224BF201517868FFF78EFCCA
:101480000B224BF202517868FFF788FC00224FF4E0
:101490003C417868FFF782FCA3224BF60141786853
:1014A000FFF77CFC00224BF602417868FFF776FCE0
:1014B00000224FF43D417868FFF770FCA3224BF601
:1014C00001517868FFF76AFC00224BF602517868F8
:1014D000FFF764FC00224FF43E417868FFF75EFCA2
:1014E00063224BF601617868FFF758FC00224FF445
:1014F00051417868FFF752FC37224DF201117868AC
:10150000FFF74CFC00224DF202117868FFF746FC11
:1015100052224DF203117868FFF740FC00224DF291
:1015200004117868FFF73AFC7B224DF205117868C8
:10153000FFF734FC00224DF206117868FFF72EFC0D
:1015400099224DF207117868FFF728FC00224DF22E
:1015500008117868FFF722FCB1224DF20911786872
:10156000FFF71CFC00224DF20A117868FFF716FC09
:10157000D2224DF20B117868FFF710FC00224DF2D9
:101580000C117868FFF70AFCF6224DF20D1178680D
:10159000FFF704FC01224DF20E117868FFF7FEFB05
:1015A00027224DF20F117868FFF7F8FB01224DF268
:1015B00010117868FFF7F2FB4E224DF21111786896
:1015C000FFF7ECFB01224DF212117868FFF7E6FB02
:1015D0008C224DF213117868FFF7E0FB01224DF2E7
:1015E00014117868FFF7DAFBBE224DF21511786806
:1015F000FFF7D4FB02224DF216117868FFF7CEFBFD
:101600000B224DF217117868FFF7C8FB02224DF24A
:1016100018117868FFF7C2FB48224DF2191178685B
:10162000FFF7BCFB02224DF21A117868FFF7B6FBF8
:1016300002E000BF680800204A224DF21B117868C2
:10164000FFF7ACFB02224DF21C117868FFF7A6FBF6
:101650007E224DF21D117868FFF7A0FB02224DF2A9
:101660001E117868FFF79AFBBC224DF21F117868B3
:10167000FFF794FB02224DF220117868FFF78EFBF2
:10168000E1224DF221117868FFF788FB03224DF229
:1016900022117868FFF782FB10224DF2231178683F
:1016A000FFF77CFB03224DF224117868FFF776FBED
:1016B00031224DF225117868FFF770FB03224DF2BD
:1016C00026117868FFF76AFB5A224DF227117868D5
:1016D000FFF764FB03224DF228117868FFF75EFBE9
:1016E00073224DF229117868FFF758FB03224DF25F
:1016F0002A117868FFF752FB94224DF22B1178687B
:10170000FFF74CFB03224DF22C117868FFF746FBE4
:101710009F224DF22D117868FFF740FB03224DF216
:101720002E117868FFF73AFBB3224DF22F1178683B
:10173000FFF734FB03224DF230117868FFF72EFBE0
:10174000B9224DF231117868FFF728FB03224DF2E0
:1017500032117868FFF722FBC1224DF2331178680D
:10176000FFF71CFB00224FF452417868FFF716FB8D
:1017700037224DF201217868FFF710FB00224DF26D
:1017800002217868FFF70AFB52224DF203217868A4
:10179000FFF704FB00224DF204217868FFF7FEFA00
:1017A0007B224DF205217868FFF7F8FA00224DF20E
:1017B00006217868FFF7F2FA99224DF2072178683E
:1017C000FFF7ECFA00224DF208217868FFF7E6FAFD
:1017D000B1224DF209217868FFF7E0FA00224DF2BC
:1017E0000A217868FFF7DAFAD2224DF20B217868E5
:1017F000FFF7D4FA00224DF20C217868FFF7CEFAF9
:10180000F6224DF20D217868FFF7C8FA01224DF259
:101810000E217868FFF7C2FA27224DF20F2178686F
:10182000FFF7BCFA01224DF210217868FFF7B6FAF3
:101830004E224DF211217868FFF7B0FA01224DF2E5
:1018400012217868FFF7AAFA8C224DF213217868EA
:10185000FFF7A4FA01224DF214217868FFF79EFAEF
:10186000BE224DF215217868FFF798FA02224DF258
:1018700016217868FFF792FA0B224DF2172178684B
:10188000FFF78CFA02224DF218217868FFF786FAEA
:1018900048224DF219217868FFF780FA02224DF2B2
:1018A0001A217868FFF77AFA4A224DF21B217868EC
:1018B000FFF774FA02224DF21C217868FFF76EFAE6
:1018C0007E224DF21D217868FFF768FA02224DF260
:1018D0001E217868FFF762FABC224DF21F2178685A
:1018E000FFF75CFA02224DF220217868FFF756FAE2
:1018F000E1224DF221217868FFF750FA03224DF2E0
:1019000022217868FFF74AFA10224DF223217868E5
:10191000FFF744FA03224DF224217868FFF73EFADC
:1019200031224DF225217868FFF738FA03224DF273
:1019300026217868FFF732FA5A224DF2272178687B
:10194000FFF72CFA03224DF228217868FFF726FAD8
:1019500073224DF229217868FFF720FA03224DF215
:101960002A217868FFF71AFA94224DF22B21786821
:10197000FFF714FA03224DF22C217868FFF70EFAD4
:101980009F224DF22D217868FFF708FA03224DF2CD
:101990002E217868FFF702FAB3224DF22F217868E2
:1019A000FFF7FCF903224DF230217868FFF7F6F9D2
:1019B000B9224DF231217868FFF7F0F903224DF298
:1019C00032217868FFF7EAF9C1224DF233217868B5
:1019D000FFF7E4F900224FF453417868FFF7DEF98E
:1019E00037224DF201317868FFF7D8F900224DF225
:1019F00002317868FFF7D2F952224DF2033178684C
:101A0000FFF7CCF900224DF204317868FFF7C6F9F0
:101A10007B224DF205317868FFF7C0F900224DF2C4
:101A200006317868FFF7BAF999224DF207317868E4
:101A3000FFF7B4F900224DF208317868FFF7AEF9EC
:101A4000B1224DF209317868FFF7A8F900224DF272
:101A50000A317868FFF7A2F9D2224DF20B3178688B
:101A6000FFF79CF900224DF20C317868FFF796F9E8
:101A7000F6224DF20D317868FFF790F901224DF210
:101A80000E317868FFF78AF927224DF20F31786816
:101A9000FFF784F901224DF210317868FFF77EF9E3
:101AA0004E224DF211317868FFF778F901224DF29C
:101AB00012317868FFF772F98C224DF21331786891
:101AC000FFF76CF901224DF214317868FFF766F9DF
:101AD000BE224DF215317868FFF760F902224DF20F
:101AE00016317868FFF75AF90B224DF217317868F2
:101AF000FFF754F902224DF218317868FFF74EF9DA
:101B000048224DF219317868FFF748F902224DF268
:101B10001A317868FFF742F94A224DF21B31786892
:101B2000FFF73CF902224DF21C317868FFF736F9D5
:101B30007E224DF21D317868FFF730F902224DF216
:101B40001E317868FFF72AF9BC224DF21F31786800
:101B5000FFF724F902224DF220317868FFF71EF9D1
:101B6000E1224DF221317868FFF718F903224DF296
:101B700022317868FFF712F910224DF2233178688C
:101B8000FFF70CF903224DF224317868FFF706F9CC
:101B900031224DF225317868FFF700F903224DF22A
:101BA00026317868FFF7FAF85A224DF22731786823
:101BB000FFF7F4F803224DF228317868FFF7EEF8CA
:101BC00073224DF229317868FFF7E8F803224DF2CD
:101BD0002A317868FFF7E2F894224DF22B317868C9
:101BE000FFF7DCF803224DF22C317868FFF7D6F8C6
:101BF0009F224DF22D317868FFF7D0F803224DF285
:101C00002E317868FFF7CAF8B3224DF22F31786889
:101C1000FFF7C4F803224DF230317868FFF7BEF8C1
:101C2000B9224DF231317868FFF7B8F803224DF24E
:101C300032317868FFF7B2F8C1224DF2333178685B
:101C4000FFF7ACF800224FF454417868FFF7A6F88C
:101C500037224DF201417868FFF7A0F800224DF2DB
:101C600002417868FFF79AF852224DF203417868F2
:101C7000FFF794F800224DF204417868FFF78EF8E0
:101C80007B224DF205417868FFF788F800224DF27B
:101C900006417868FFF782F899224DF2074178688B
:101CA000FFF77CF800224DF208417868FFF776F8DC
:101CB000B1224DF209417868FFF770F800224DF229
:101CC0000A417868FFF76AF8D2224DF20B41786832
:101CD000FFF764F800224DF20C417868FFF75EF8D8
:101CE000F6224DF20D417868FFF758F801224DF2C7
:101CF0000E417868FFF752F827224DF20F417868BD
:101D0000FFF74CF801224DF210417868FFF746F8D2
:101D10004E224DF211417868FFF740F801224DF252
:101D200012417868FFF73AF88C224DF21341786837
:101D3000FFF734F801224DF214417868FFF72EF8CE
:101D4000BE224DF215417868FFF728F802224DF2C5
:101D500016417868FFF722F80B224DF21741786898
:101D6000FFF71CF802224DF218417868FFF716F8C9
:101D700048224DF219417868FFF710F802224DF21F
:101D80001A417868FFF70AF84A224DF21B41786839
:101D9000FFF704F802224DF21C417868FEF7FEFFBF
:101DA0007E224DF21D417868FEF7F8FF02224DF2C7
:101DB0001E417868FEF7F2FFBC224DF21F417868A1
:101DC000FEF7ECFF02224DF220417868FEF7E6FFB5
:101DD000E1224DF221417868FEF7E0FF03224DF247
:101DE00022417868FEF7DAFF10224DF2234178682D
:101DF000FEF7D4FF03224DF224417868FEF7CEFFB0
:101E000031224DF225417868FEF7C8FF03224DF2DA
:101E100026417868FEF7C2FF5A224DF227417868C2
:101E2000FEF7BCFF03224DF228417868FEF7B6FFAB
:101E300073224DF229417868FEF7B0FF03224DF27C
:101E40002A417868FEF7AAFF94224DF22B41786868
:101E5000FEF7A4FF03224DF22C417868FEF79EFFA7
:101E60009F224DF22D417868FEF798FF03224DF234
:101E70002E417868FEF792FFB3224DF22F41786829
:101E8000FEF78CFF03224DF230417868FEF786FFA3
:101E9000B9224DF231417868FEF780FF03224DF2FE
:101EA00032417868FEF77AFFC1224DF233417868FB
:101EB000FEF774FF00224FF455417868FEF76EFF7D
:101EC00037224DF201517868FEF768FF00224DF28B
:101ED00002517868FEF762FF52224DF20351786892
:101EE000FEF75CFF00224DF204517868FEF756FFC2
:101EF0007B224DF205517868FEF750FF00224DF22B
:101F000006517868FEF74AFF99224DF2075178682A
:101F1000FEF744FF00224DF208517868FEF73EFFBD
:101F2000B1224DF209517868FEF738FF00224DF2D8
:101F30000A517868FEF732FFD2224DF20B517868D1
:101F4000FEF72CFF00224DF20C517868FEF726FFB9
:101F5000F6224DF20D517868FEF720FF01224DF276
:101F60000E517868FEF71AFF27224DF20F5178685C
:101F7000FEF714FF01224DF210517868FEF70EFFB4
:101F80004E224DF211517868FEF708FF01224DF202
:101F900012517868FEF702FF8C224DF213517868D7
:101FA000FEF7FCFE01224DF214517868FEF7F6FEB2
:101FB000BE224DF215517868FEF7F0FE02224DF276
:101FC00016517868FEF7EAFE0B224DF21751786839
:101FD000FEF7E4FE02224DF218517868FEF7DEFEAD
:101FE00048224DF219517868FEF7D8FE02224DF2D0
:101FF0001A517868FEF7D2FE4A224DF21B517868DA
:10200000FEF7CCFE02224DF21C517868FEF7C6FEA8
:102010007E224DF21D517868FEF7C0FE02224DF27D
:102020001E517868FEF7BAFEBC224DF21F51786847
:10203000FEF7B4FE02224DF220517868FEF7AEFEA4
:10204000E1224DF221517868FEF7A8FE03224DF2FD
:1020500022517868FEF7A2FE10224DF223517868D3
:10206000FEF79CFE03224DF224517868FEF796FE9F
:1020700031224DF225517868FEF790FE03224DF291
:1020800026517868FEF78AFE5A224DF22751786869
:10209000FEF784FE03224DF228517868FEF77EFE9B
:1020A00073224DF229517868FEF778FE03224DF233
:1020B0002A517868FEF772FE94224DF22B5178680F
:1020C000FEF76CFE03224DF22C517868FEF766FE97
:1020D0009F224DF22D517868FEF760FE03224DF2EB
:1020E0002E517868FEF75AFEB3224DF22F517868D0
:1020F000FEF754FE03224DF230517868FEF74EFE93
:10210000B9224DF231517868FEF748FE03224DF2B4
:1021100032517868FEF742FEC1224DF233517868A1
:10212000FEF73CFE00224FF456417868FEF736FE7B
:1021300037224DF201617868FEF730FE00224DF241
:1021400002617868FEF72AFE52224DF20361786838
:10215000FEF724FE00224DF204617868FEF71EFEB1
:102160007B224DF205617868FEF718FE00224DF2E1
:1021700006617868FEF712FE99224DF207617868D1
:10218000FEF70CFE00224DF208617868FEF706FEAD
:10219000B1224DF209617868FEF700FE00224DF28F
:1021A0000A617868FEF7FAFDD2224DF20B61786879
:1021B000FEF7F4FD00224DF20C617868FEF7EEFDAB
:1021C000F6224DF20D617868FEF7E8FD01224DF22E
:1021D0000E617868FEF7E2FD27224DF20F61786804
:1021E000FEF7DCFD01224DF210617868FEF7D6FDA6
:1021F0004E224DF211617868FEF7D0FD01224DF2BA
:1022000012617868FEF7CAFD8C224DF2136178687E
:10221000FEF7C4FD01224DF214617868FEF7BEFDA1
:10222000BE224DF215617868FEF7B8FD02224DF22C
:1022300016617868FEF7B2FD0B224DF217617868DF
:10224000FEF7ACFD02224DF218617868FEF7A6FD9C
:1022500048224DF219617868FEF7A0FD02224DF286
:102260001A617868FEF79AFD4A224DF21B61786880
:10227000FEF794FD02224DF21C617868FEF78EFD98
:102280007E224DF21D617868FEF788FD02224DF234
:102290001E617868FEF782FDBC224DF21F617868EE
:1022A000FEF77CFD02224DF220617868FEF776FD94
:1022B000E1224DF221617868FEF770FD03224DF2B4
:1022C00022617868FEF76AFD10224DF2236178687A
:1022D000FEF764FD03224DF224617868FEF75EFD8F
:1022E00031224DF225617868FEF758FD03224DF248
:1022F00026617868FEF752FD5A224DF22761786810
:10230000FEF74CFD03224DF228617868FEF746FD8A
:1023100073224DF229617868FEF740FD03224DF2E9
:102320002A617868FEF73AFD94224DF22B617868B5
:10233000FEF734FD03224DF22C617868FEF72EFD86
:102340009F224DF22D617868FEF728FD03224DF2A1
:102350002E617868FEF722FDB3224DF22F61786876
:10236000FEF71CFD03224DF230617868FEF716FD82
:10237000B9224DF231617868FEF710FD03224DF26B
:1023800032617868FEF70AFDC1224DF23361786848
:10239000FEF704FD55224FF470417868FEF7FEFC0D
:1023A000AA224FF201017868FEF7F8FC52224FF2A0
:1023B00002017868FEF7F2FC08224FF20301786808
:1023C000FEF7ECFC00224FF204017868FEF7E6FC11
:1023D00008224FF430417868FEF7E0FC05224BF20A
:1023E00001017868FEF7DAFC02224BF202017868FC
:1023F000FEF7D4FC05224BF203017868FEF7CEFC11
:1024000002224BF204017868FEF7C8FC00224FF468
:1024100037417868FEF7C2FC00224BF20171786800
:10242000FEF7BCFC01224FF438417868FEF7B6FC99
:1024300005224BF601017868FEF7B0FC05224BF649
:1024400002017868FEF7AAFC05224BF603017868C2
:10245000FEF7A4FC00224FF43C417868FEF79EFC96
:1024600000224BF601417868FEF798FC00224BF6FB
:1024700002417868FEF792FC03224FF44C417868E1
:10248000FEF78CFC00224CF601417868FEF786FCD2
:1024900000224CF602417868FEF780FC01224FF4DE
:1024A0003D417868FEF77AFC84224BF6015178684A
:1024B000FEF774FC07224BF602517868FEF76EFCBB
:1024C00031224BF603517868FEF768FC00224BF688
:1024D00004517868FEF762FC01224FF43A417868B3
:1024E000FEF75CFCAA224FF47F417868FEF756FCA9
:1024F00055224FF601717868FEF750FC25224FF601
:1025000002717868FEF74AFC01224FF60371786881
:10251000FEF744FC08224FF436417868FEF73EFC93
:1025200050224FF435417868FEF738FC374B1B6872
:1025300001211846FDF798FF00224FF454517868A6
:10254000FEF72CFCA0224FF458517868FEF726FCC9
:1025500055224FF468517868FEF720FC2B4B1B681E
:1025600001211846FDF780FF00224FF4885178685A
:10257000FEF714FC00224FF498517868FEF70EFC29
:10258000224B1B6878211846FDF76EFF1F4B1B6816
:1025900064211846FDF768FF1C4B1B680A2118468A
:1025A000FDF762FF00224FF424517868FEF7F6FB36
:1025B000164B1B6864211846FDF756FF4FF4F07365
:1025C00000934FF44873002200217868FEF740FC26
:1025D0000E4B1B6801211846FDF746FF4FF43051A2
:1025E0007868FEF7C3FB0023FB60FB68084A934250
:1025F00007DCFF217868FEF7A1FBFB680133FB6075
:10260000F3E700BF1037BD4680BD00BF680800205B
:1026100000DC050080B584B000AFF86008461146C4
:102620001A4603467B810B463B811346FB803B8960
:102630001946F868FEF7F0FB7B891946F868FEF743
:10264000CFFB4FF43051F868FEF790FBFB8819463A
:10265000F868FEF773FB00BF1037BD4680BD000071
:1026600080B588B002AFF860084611461A460346A6
:102670007B810B463B811346FB80F8883A89798938
:102680003B8C00930346F868FEF7E2FB134B1B6894
:1026900001211846FDF7E8FE4FF43051F868FEF7C7
:1026A00065FB00237B61FA887B89D31A0133398C5F
:1026B0003A898A1A013202FB03F37A699A4208DAEC
:1026C000BB8C1946F868FEF739FB7B6901337B61E7
:1026D000E9E700BF1837BD4680BD00BF680800208D
:1026E00080B582B000AF78607868FEF71BFB064BC0
:1026F000D3F88830044A43F47003C2F888307B680A
:1027000018460837BD4680BD00ED00E090B587B0A3
:1027100002AFF860084611461A4603467B810B4615
:102720003B811346FB807A89FB8813449CB23A892B
:102730003B8C13449BB238897989BA8C01920093FF
:1027400023460246F868FFF78BFF00BF1437BD46EB
:1027500090BD90B587B002AFF860084611461A46A2
:1027600003467B810B463B811346FB807A893B8C79
:1027700013449CB23A89FB8813449BB23889798907
:10278000BA8C0192009323460246F868FFF768FF6F
:1027900000BF1437BD4690BD90B587B002AFF8605A
:1027A000084611461A4603467B810B463B81134679
:1027B000FB80FA887B89D31A9CB2BB8C5B089BB2E6
:1027C000388979893A8D0192009323460246F86848
:1027D000FFF79CFFBB8C5B089BB23A8CD31A98B274
:1027E000FA887B89D31A9CB2BB8C5B089BB279892F
:1027F0003A8D0192009323460246F868FFF786FF60
:102800003A8C3B89D31A9CB2BB8C5B089BB238894B
:1028100079893A8D0192009323460246F868FFF7C2
:1028200098FFBB8C5B089BB2FA88D31A99B23A8C9A
:102830003B89D31A9CB2BB8C5B089BB238893A8D1A
:102840000192009323460246F868FFF782FF00BF1B
:102850001437BD4690BD80B586B000AFF86008461D
:1028600011461A4603467B810B463B811346FB808B
:10287000FA887B89D31AF9887A898A1A02FB03F2CB
:10288000398C3B89CB1A388C3989411A01FB03F307
:10289000134407EE903AF8EEE77AB0EE670A01F0DB
:1028A00005FE87ED040A0023FB82FB8AD7ED047A3C
:1028B000FCEEE77A17EE902A93423CD27B8907EE32
:1028C000903AB8EEE77AFB8AF9887A898A1A02FB8D
:1028D00003F307EE903AB8EEE76AD7ED046AC6EE66
:1028E000267A77EE277AFCEEE77A17EE903A98B2DE
:1028F0003B8907EE903AB8EEE77AFB8A398C3A8941
:102900008A1A02FB03F307EE903AB8EEE76AD7EDB6
:10291000046AC6EE267A77EE277AFCEEE77A17EE9F
:10292000903A9AB2BB8C0146F868FFF773FEFB8AB7
:102930000133FB82B9E700BF1837BD4680BD80B5C3
:102940008AB000AFF8600846114687ED010A1A46C2
:1029500003467B810B463B8113467B80B7EE007AB2
:10296000D7ED017A77EE677AFDEEE77A17EE903AC7
:102970007B6201233B62D7ED017AB8EE007A67EE05
:10298000877AFDEEE77A17EE903AFB610023BB6190
:10299000D7ED017AFDEEE77A17EE903A7B613B893D
:1029A00007EE903AB8EEE77AD7ED017A77EE277A1C
:1029B000FCEEE77A17EE903A9AB27B887989F8684C
:1029C000FFF728FE3B8907EE903AB8EEE77AD7ED9D
:1029D000017A77EE677AFCEEE77A17EE903A9AB2D0
:1029E0007B887989F868FFF715FE7B8907EE903AB6
:1029F000B8EEE77AD7ED017A77EE277AFCEEE77A40
:102A000017EE903A99B27B883A89F868FFF702FE90
:102A10007B8907EE903AB8EEE77AD7ED017A77EE48
:102A2000677AFCEEE77A17EE903A99B27B883A899A
:102A3000F868FFF7EFFDBA697B699A4280F28880F7
:102A40007B6A002B09DB7B69013B7B61FB690233FD
:102A5000FB617A6AFB6913447B62BB690133BB612A
:102A60003B6A02333B627A6A3B6A13447B62BB690E
:102A70009AB27B89134499B27B699AB23B89134419
:102A80009AB27B88F868FFF7C5FDBB699BB27A896B
:102A9000D31A99B27B699AB23B8913449AB27B8864
:102AA000F868FFF7B7FDBB699AB27B89134499B206
:102AB0007B699BB23A89D31A9AB27B88F868FFF790
:102AC000A9FDBB699BB27A89D31A99B27B699BB283
:102AD0003A89D31A9AB27B88F868FFF79BFD7B6925
:102AE0009AB27B89134499B2BB699AB23B89134469
:102AF0009AB27B88F868FFF78DFD7B699BB27A8973
:102B0000D31A99B2BB699AB23B8913449AB27B88B3
:102B1000F868FFF77FFD7B699AB27B89134499B20D
:102B2000BB699BB23A89D31A9AB27B88F868FFF7DF
:102B300071FD7B699BB27A89D31A99B2BB699BB24A
:102B40003A89D31A9AB27B88F868FFF763FD72E777
:102B500000BF2837BD4680BD80B586B000AFF860A5
:102B60000846114687ED010A1A4603467B810B464B
:102B70003B8113467B8000237B617B887A699A4284
:102B80004FDA7B6907EE903AF8EEE77A97ED017A33
:102B900077EE677A3B8C3A897989B0EE670AF868F4
:102BA000FFF7CDFE7B89013B99B23B89013B9AB28D
:102BB0007B6907EE903AF8EEE77A97ED017A77EEC7
:102BC000677A3B8CB0EE670AF868FFF7B8FE3B897E
:102BD000013B9AB27B6907EE903AF8EEE77A97EDFF
:102BE000017A77EE677A3B8C7989B0EE670AF868EC
:102BF000FFF7A5FE7B89013B99B27B6907EE903A0E
:102C0000F8EEE77A97ED017A77EE677A3B8C3A89AE
:102C1000B0EE670AF868FFF792FE7B6901337B61CB
:102C2000ABE700BF1837BD4680BD000080B483B05D
:102C300000AF7860054B9B69044A43F400639361DD
:102C400000BF0C37BD465DF8047B7047000C02588E
:102C500080B483B000AF7860054B9B69044A43F0B1
:102C60000063936100BF0C37BD465DF8047B70477D
:102C7000000C025880B483B000AF7860084B9B69A9
:102C8000074A43F400139361054B9B69044A43F0E0
:102C90002003936100BF0C37BD465DF8047B70478D
:102CA000000C025880B483B000AF7860054B9B697C
:102CB000044A43F40043936100BF0C37BD465DF8FE
:102CC000047B70470000025880B483B000AF786086
:102CD000054B9B69044A43F00043936100BF0C37E6
:102CE000BD465DF8047B70470000025880B483B095
:102CF00000AF7860054B9B69044A43F4000393617D
:102D000000BF0C37BD465DF8047B7047000C0258CD
:102D100080B483B000AF78607B6800221A607B6863
:102D200000225A607B6800229A607B680022DA6089
:102D30007B6818460C37BD465DF8047B7047000081
:102D400080B582B000AF78607B681846FFF7E0FF7F
:102D5000786800F087F9786800F0F0F9034A7B683A
:102D600013607B6818460837BD4680BD7C0800208C
:102D700080B582B000AF78600B467B807B881B12E9
:102D8000DBB21946786800F0C5F87868FFF74EFFA7
:102D90001D4B9A697B6819687B685B681B040B4351
:102DA000194913438B61194B9A697B6899687B6851
:102DB000DB681B040B43154913438B617868FFF7ED
:102DC00059FF7B88DBB21946786800F0A3F80E4BF8
:102DD0009A697B6819687B685B681B040B430A4926
:102DE00013438B61094B9A697B6899687B68DB6840
:102DF0001B040B43054913438B617868FFF73AFFC7
:102E000000BF0837BD4680BD000C025800100258B4
:102E100080B582B000AF78600B467B807B881B1248
:102E2000DBB21946786800F075F87868FFF710FF94
:102E30001D4B9A697B6819687B685B681B040B43B0
:102E4000194913438B61194B9A697B6899687B68B0
:102E5000DB681B040B43154913438B617868FFF74C
:102E600009FF7B88DBB21946786800F053F80E4BF7
:102E70009A697B6819687B685B681B040B430A4985
:102E800013438B61094B9A697B6899687B68DB689F
:102E90001B040B43054913438B617868FFF7EAFE77
:102EA00000BF0837BD4680BD000C02580010025814
:102EB00080B582B000AF78600B467B8013463B80C4
:102EC0007B8819467868FFF7A3FF3B881946786826
:102ED000FFF74EFF00BF0837BD4680BD80B582B00A
:102EE00000AF78600A4B1B6832211846FDF7BCFA28
:102EF0007868FFF7E9FE064B1B6896211846FDF738
:102F0000B3FA7868FFF7CEFE00BF0837BD4680BD34
:102F10006808002080B483B000AF78600B46FB7077
:102F20007B6800225A607B6800221A607B6800225E
:102F3000DA607B6800229A60FB7803F00103002BC3
:102F400006D07B681B6843F480427B681A6005E00A
:102F50007B685B6843F480427B685A60FB7803F0CF
:102F60000203002B06D07B681B6843F400427B6899
:102F70001A6005E07B685B6843F400427B685A6036
:102F8000FB7803F00403002B06D07B681B6843F03A
:102F900001027B681A6005E07B685B6843F0010210
:102FA0007B685A60FB7803F00803002B06D07B682F
:102FB0001B6843F002027B681A6005E07B685B686F
:102FC00043F002027B685A60FB7803F01003002B89
:102FD00006D07B689B6843F080027B689A6005E0BE
:102FE0007B68DB6843F080027B68DA60FB7803F083
:102FF0002003002B06D07B689B6843F480727B68BB
:103000009A6005E07B68DB6843F480727B68DA6075
:10301000FB7803F04003002B06D07B689B6843F4E9
:1030200000727B689A6005E07B68DB6843F400729D
:103030007B68DA6097F90330002B06DA7B689B68BF
:1030400043F480627B689A6005E07B68DB6843F448
:1030500080627B68DA6000BF0C37BD465DF8047B98
:103060007047000080B483B000AF78602C4BD3F879
:10307000E0302B4A43F00803C2F8E030294B1A68CD
:103080002849294B13430B60264B1A682549274BC7
:1030900013400B60234B9A682249254B13438B60E6
:1030A000204B9B691F4A43F0B00393611C4BD3F83C
:1030B000E0301B4A43F01003C2F8E0301D4B1B68A0
:1030C0001C4A43F4AA1313601A4B1B68194A23F4D1
:1030D0002A131360174B9B68164A43F47F139360BF
:1030E0000F4BD3F8E0300E4A43F00103C2F8E03052
:1030F000114B1B68104A43F0804313600E4B1B6852
:103100000D4A23F0004313600B4B9B680A4A43F0BF
:103110004043936000BF0C37BD465DF8047B7047A9
:1031200000440258000C02585545405055757F5FC9
:10313000FFCFC0F0001002580000025880B584B0E4
:1031400000AF78607868FFF7D1FD7868FFF7C6FEBA
:1031500055224FF470417868FFF7AAFEAA224FF279
:1031600001017868FFF7A4FE52224FF2020178684D
:10317000FFF79EFE08224FF203017868FFF798FEE2
:1031800001224FF204017868FFF792FE34224FF4D7
:1031900036417868FFF78CFE34224BF20161786883
:1031A000FFF786FE34224BF202617868FFF780FE5B
:1031B0000D224FF430417868FFF77AFE0D224BF272
:1031C00001017868FFF774FE0D224BF20201786866
:1031D000FFF76EFE24224FF437417868FFF768FE50
:1031E00024224BF201717868FFF762FE24224BF231
:1031F00002717868FFF75CFE0D224FF43141786868
:10320000FFF756FE0D224BF201117868FFF750FED2
:103210000D224BF202117868FFF74AFE24224FF488
:1032200038417868FFF744FE24224BF601017868A4
:10323000FFF73EFE24224BF602017868FFF738FEC6
:1032400000224FF432417868FFF732FE24224FF417
:1032500039417868FFF72CFE24224BF6011178687B
:10326000FFF726FE24224BF602117868FFF720FEB6
:1032700005224FF433417868FFF71AFE05224BF21E
:1032800001317868FFF714FE05224BF202317868AD
:10329000FFF70EFE34224FF43A417868FFF708FE3C
:1032A00034224BF601217868FFF702FE34224BF6F8
:1032B00002217868FFF7FCFD0B224FF43541786856
:1032C000FFF7F6FD0B224BF201517868FFF7F0FD96
:1032D0000B224BF202517868FFF7EAFD00224FF40F
:1032E0003C417868FFF7E4FDA3224BF60141786882
:1032F000FFF7DEFD00224BF602417868FFF7D8FDAC
:1033000000224FF43D417868FFF7D2FDA3224BF62F
:1033100001517868FFF7CCFD00224BF60251786826
:10332000FFF7C6FD00224FF43E417868FFF7C0FD6D
:1033300063224BF601617868FFF7BAFD00224FF473
:1033400051417868FFF7B4FD37224DF201117868DA
:10335000FFF7AEFD00224DF202117868FFF7A8FDDD
:1033600052224DF203117868FFF7A2FD00224DF2C0
:1033700004117868FFF79CFD7B224DF205117868F7
:10338000FFF796FD00224DF206117868FFF790FDD9
:1033900099224DF207117868FFF78AFD00224DF25D
:1033A00008117868FFF784FDB1224DF209117868A1
:1033B000FFF77EFD00224DF20A117868FFF778FDD5
:1033C000D2224DF20B117868FFF772FD00224DF208
:1033D0000C117868FFF76CFDF6224DF20D1178683C
:1033E000FFF766FD01224DF20E117868FFF760FDD0
:1033F00027224DF20F117868FFF75AFD01224DF296
:1034000010117868FFF754FD4E224DF211117868C3
:10341000FFF74EFD01224DF212117868FFF748FDCB
:103420008C224DF213117868FFF742FD01224DF214
:1034300014117868FFF73CFDBE224DF21511786833
:10344000FFF736FD02224DF216117868FFF730FDC6
:103450000B224DF217117868FFF72AFD02224DF278
:1034600018117868FFF724FD48224DF21911786889
:10347000FFF71EFD02224DF21A117868FFF718FDC2
:103480004A224DF21B117868FFF712FD02224DF21D
:103490001C117868FFF70CFD7E224DF21D11786833
:1034A000FFF706FD02224DF21E117868FFF700FDBE
:1034B000BC224DF21F117868FFF7FAFC02224DF290
:1034C00020117868FFF7F4FCE1224DF221117868B1
:1034D000FFF7EEFC03224DF222117868FFF7E8FCBB
:1034E00010224DF223117868FFF7E2FC03224DF21F
:1034F00024117868FFF7DCFC31224DF22511786841
:10350000FFF7D6FC03224DF226117868FFF7D0FCB6
:103510005A224DF227117868FFF7CAFC03224DF2B8
:1035200028117868FFF7C4FC73224DF229117868DE
:10353000FFF7BEFC03224DF22A117868FFF7B8FCB2
:1035400094224DF22B117868FFF7B2FC03224DF262
:103550002C117868FFF7ACFC9F224DF22D11786892
:10356000FFF7A6FC03224DF22E117868FFF7A0FCAE
:10357000B3224DF22F117868FFF79AFC03224DF227
:1035800030117868FFF794FCB9224DF23111786858
:10359000FFF78EFC03224DF232117868FFF788FCAA
:1035A000C1224DF233117868FFF782FC00224FF4FC
:1035B00052417868FFF77CFC37224DF20121786890
:1035C000FFF776FC00224DF202217868FFF770FCCD
:1035D00052224DF203217868FFF76AFC00224DF277
:1035E00004217868FFF764FC7B224DF2052178689E
:1035F000FFF75EFC00224DF206217868FFF758FCC9
:1036000099224DF207217868FFF752FC00224DF213
:1036100008217868FFF74CFCB1224DF20921786847
:10362000FFF746FC00224DF20A217868FFF740FCC4
:10363000D2224DF20B217868FFF73AFC00224DF2BE
:103640000C217868FFF734FCF6224DF20D217868E2
:10365000FFF72EFC01224DF20E217868FFF728FCBF
:1036600027224DF20F217868FFF722FC01224DF24C
:1036700010217868FFF71CFC4E224DF2112178686A
:10368000FFF716FC01224DF212217868FFF710FCBB
:103690008C224DF213217868FFF70AFC01224DF2CB
:1036A00014217868FFF704FCBE224DF215217868DA
:1036B000FFF7FEFB02224DF216217868FFF7F8FBB8
:1036C0000B224DF217217868FFF7F2FB02224DF230
:1036D00018217868FFF7ECFB48224DF21921786831
:1036E000FFF7E6FB02224DF21A217868FFF7E0FBB4
:1036F0004A224DF21B217868FFF7DAFB02224DF2D5
:103700001C217868FFF7D4FB7E224DF21D217868DA
:10371000FFF7CEFB02224DF21E217868FFF7C8FBAF
:10372000BC224DF21F217868FFF7C2FB02224DF246
:1037300020217868FFF7BCFBE1224DF22121786857
:10374000FFF7B6FB03224DF222217868FFF7B0FBAA
:1037500010224DF223217868FFF7AAFB03224DF2D5
:1037600024217868FFF7A4FB31224DF225217868E7
:10377000FFF79EFB03224DF226217868FFF798FBA6
:103780005A224DF227217868FFF792FB03224DF26F
:1037900028217868FFF78CFB73224DF22921786885
:1037A000FFF786FB03224DF22A217868FFF780FBA2
:1037B00094224DF22B217868FFF77AFB03224DF219
:1037C0002C217868FFF774FB9F224DF22D21786839
:1037D000FFF76EFB03224DF22E217868FFF768FB9E
:1037E000B3224DF22F217868FFF762FB03224DF2DE
:1037F00030217868FFF75CFBB9224DF231217868FF
:10380000FFF756FB03224DF232217868FFF750FB99
:10381000C1224DF233217868FFF74AFB00224FF4B2
:1038200053417868FFF744FB37224DF20131786845
:10383000FFF73EFB00224DF202317868FFF738FBBC
:1038400052224DF203317868FFF732FB00224DF22D
:1038500004317868FFF72CFB7B224DF20531786844
:10386000FFF726FB00224DF206317868FFF720FBB8
:1038700099224DF207317868FFF71AFB00224DF2CA
:1038800008317868FFF714FBB1224DF209317868EE
:10389000FFF70EFB00224DF20A317868FFF708FBB4
:1038A000D2224DF20B317868FFF702FB00224DF275
:1038B0000C317868FFF7FCFAF6224DF20D3178688A
:1038C000FFF7F6FA01224DF20E317868FFF7F0FAB1
:1038D00027224DF20F317868FFF7EAFA01224DF204
:1038E00010317868FFF7E4FA4E224DF21131786812
:1038F000FFF7DEFA01224DF212317868FFF7D8FAAD
:103900008C224DF213317868FFF7D2FA01224DF282
:1039100014317868FFF7CCFABE224DF21531786881
:10392000FFF7C6FA02224DF216317868FFF7C0FAA7
:103930000B224DF217317868FFF7BAFA02224DF2E6
:1039400018317868FFF7B4FA48224DF219317868D7
:10395000FFF7AEFA02224DF21A317868FFF7A8FAA3
:103960004A224DF21B317868FFF7A2FA02224DF28B
:103970001C317868FFF79CFA7E224DF21D31786881
:10398000FFF796FA02224DF21E317868FFF790FA9F
:10399000BC224DF21F317868FFF78AFA02224DF2FD
:1039A00020317868FFF784FAE1224DF221317868FE
:1039B000FFF77EFA03224DF222317868FFF778FA9A
:1039C00010224DF223317868FFF772FA03224DF28C
:1039D00024317868FFF76CFA31224DF2253178688E
:1039E000FFF766FA03224DF226317868FFF760FA96
:1039F0005A224DF227317868FFF75AFA03224DF226
:103A000028317868FFF754FA73224DF2293178682B
:103A1000FFF74EFA03224DF22A317868FFF748FA91
:103A200094224DF22B317868FFF742FA03224DF2CF
:103A30002C317868FFF73CFA9F224DF22D317868DF
:103A4000FFF736FA03224DF22E317868FFF730FA8D
:103A5000B3224DF22F317868FFF72AFA03224DF294
:103A600030317868FFF724FAB9224DF231317868A5
:103A7000FFF71EFA03224DF232317868FFF718FA89
:103A8000C1224DF233317868FFF712FA00224FF469
:103A900054417868FFF70CFA37224DF201417868FB
:103AA000FFF706FA00224DF202417868FFF700FAAC
:103AB00052224DF203417868FFF7FAF900224DF2E5
:103AC00004417868FFF7F4F97B224DF205417868EC
:103AD000FFF7EEF900224DF206417868FFF7E8F9AA
:103AE00099224DF207417868FFF7E2F900224DF282
:103AF00008417868FFF7DCF9B1224DF20941786896
:103B0000FFF7D6F900224DF20A417868FFF7D0F9A5
:103B1000D2224DF20B417868FFF7CAF900224DF22C
:103B20000C417868FFF7C4F9F6224DF20D41786830
:103B3000FFF7BEF901224DF20E417868FFF7B8F9A0
:103B400027224DF20F417868FFF7B2F901224DF2BA
:103B500010417868FFF7ACF94E224DF211417868B8
:103B6000FFF7A6F901224DF212417868FFF7A0F99C
:103B70008C224DF213417868FFF79AF901224DF239
:103B800014417868FFF794F9BE224DF21541786828
:103B9000FFF78EF902224DF216417868FFF788F997
:103BA0000B224DF217417868FFF782F902224DF29D
:103BB00018417868FFF77CF948224DF2194178687E
:103BC000FFF776F902224DF21A417868FFF770F993
:103BD0004A224DF21B417868FFF76AF902224DF242
:103BE0001C417868FFF764F97E224DF21D41786828
:103BF000FFF75EF902224DF21E417868FFF758F98F
:103C0000BC224DF21F417868FFF752F902224DF2B3
:103C100020417868FFF74CF9E1224DF221417868A4
:103C2000FFF746F903224DF222417868FFF740F989
:103C300010224DF223417868FFF73AF903224DF242
:103C400024417868FFF734F931224DF22541786834
:103C5000FFF72EF903224DF226417868FFF728F985
:103C60005A224DF227417868FFF722F903224DF2DC
:103C700028417868FFF71CF973224DF229417868D2
:103C8000FFF716F903224DF22A417868FFF710F981
:103C900094224DF22B417868FFF70AF903224DF286
:103CA0002C417868FFF704F99F224DF22D41786886
:103CB000FFF7FEF803224DF22E417868FFF7F8F87F
:103CC000B3224DF22F417868FFF7F2F803224DF24C
:103CD00030417868FFF7ECF8B9224DF2314178684D
:103CE000FFF7E6F803224DF232417868FFF7E0F87B
:103CF000C1224DF233417868FFF7DAF800224FF421
:103D000055417868FFF7D4F837224DF201517868B1
:103D1000FFF7CEF800224DF202517868FFF7C8F89D
:103D200052224DF203517868FFF7C2F800224DF29B
:103D300004517868FFF7BCF87B224DF20551786892
:103D4000FFF7B6F800224DF206517868FFF7B0F899
:103D500099224DF207517868FFF7AAF800224DF238
:103D600008517868FFF7A4F8B1224DF2095178683C
:103D7000FFF79EF800224DF20A517868FFF798F895
:103D8000D2224DF20B517868FFF792F800224DF2E3
:103D90000C517868FFF78CF8F6224DF20D517868D7
:103DA000FFF786F801224DF20E517868FFF780F890
:103DB00027224DF20F517868FFF77AF801224DF271
:103DC00010517868FFF774F84E224DF2115178685F
:103DD000FFF76EF801224DF212517868FFF768F88C
:103DE0008C224DF213517868FFF762F801224DF2F0
:103DF00014517868FFF75CF8BE224DF215517868CF
:103E0000FFF756F802224DF216517868FFF750F886
:103E10000B224DF217517868FFF74AF802224DF253
:103E200018517868FFF744F848224DF21951786824
:103E3000FFF73EF802224DF21A517868FFF738F882
:103E40004A224DF21B517868FFF732F802224DF2F8
:103E50001C517868FFF72CF87E224DF21D517868CE
:103E6000FFF726F802224DF21E517868FFF720F87E
:103E7000BC224DF21F517868FFF71AF802224DF26A
:103E800020517868FFF714F8E1224DF2215178684B
:103E9000FFF70EF803224DF222517868FFF708F879
:103EA00010224DF223517868FFF702F803224DF2F9
:103EB00024517868FEF7FCFF31224DF225517868D5
:103EC000FEF7F6FF03224DF226517868FEF7F0FF69
:103ED0005A224DF227517868FEF7EAFF03224DF28D
:103EE00028517868FEF7E4FF73224DF22951786873
:103EF000FEF7DEFF03224DF22A517868FEF7D8FF65
:103F000094224DF22B517868FEF7D2FF03224DF236
:103F10002C517868FEF7CCFF9F224DF22D51786826
:103F2000FEF7C6FF03224DF22E517868FEF7C0FF60
:103F3000B3224DF22F517868FEF7BAFF03224DF2FB
:103F400030517868FEF7B4FFB9224DF231517868EC
:103F5000FEF7AEFF03224DF232517868FEF7A8FF5C
:103F6000C1224DF233517868FEF7A2FF00224FF4D0
:103F700056417868FEF79CFF37224DF20161786860
:103F8000FEF796FF00224DF202617868FEF790FF7F
:103F900052224DF203617868FEF78AFF00224DF24B
:103FA00004617868FEF784FF7B224DF20561786832
:103FB000FEF77EFF00224DF206617868FEF778FF7B
:103FC00099224DF207617868FEF772FF00224DF2E8
:103FD00008617868FEF76CFFB1224DF209617868DC
:103FE000FEF766FF00224DF20A617868FEF760FF77
:103FF000D2224DF20B617868FEF75AFF00224DF293
:104000000C617868FEF754FFF6224DF20D61786876
:10401000FEF74EFF01224DF20E617868FEF748FF71
:1040200027224DF20F617868FEF742FF01224DF220
:1040300010617868FEF73CFF4E224DF211617868FE
:10404000FEF736FF01224DF212617868FEF730FF6D
:104050008C224DF213617868FEF72AFF01224DF29F
:1040600014617868FEF724FFBE224DF2156178686E
:10407000FEF71EFF02224DF216617868FEF718FF68
:104080000B224DF217617868FEF712FF02224DF203
:1040900018617868FEF70CFF48224DF219617868C4
:1040A000FEF706FF02224DF21A617868FEF700FF64
:1040B0004A224DF21B617868FEF7FAFE02224DF2A9
:1040C0001C617868FEF7F4FE7E224DF21D6178686F
:1040D000FEF7EEFE02224DF21E617868FEF7E8FE62
:1040E000BC224DF21F617868FEF7E2FE02224DF21B
:1040F00020617868FEF7DCFEE1224DF221617868EC
:10410000FEF7D6FE03224DF222617868FEF7D0FE5C
:1041100010224DF223617868FEF7CAFE03224DF2A9
:1041200024617868FEF7C4FE31224DF2256178687B
:10413000FEF7BEFE03224DF226617868FEF7B8FE58
:104140005A224DF227617868FEF7B2FE03224DF243
:1041500028617868FEF7ACFE73224DF22961786819
:10416000FEF7A6FE03224DF22A617868FEF7A0FE54
:1041700094224DF22B617868FEF79AFE03224DF2ED
:104180002C617868FEF794FE9F224DF22D617868CD
:10419000FEF78EFE03224DF22E617868FEF788FE50
:1041A000B3224DF22F617868FEF782FE03224DF2B2
:1041B00030617868FEF77CFEB9224DF23161786893
:1041C000FEF776FE03224DF232617868FEF770FE4C
:1041D000C1224DF233617868FEF76AFE55224FF432
:1041E00070417868FEF764FEAA224FF201017868F8
:1041F000FEF75EFE52224FF202017868FEF758FE8B
:1042000008224FF203017868FEF752FE00224FF2B7
:1042100004017868FEF74CFE08224FF430417868BC
:10422000FEF746FE05224BF201017868FEF740FEDC
:1042300002224BF202017868FEF73AFE05224BF2A9
:1042400003017868FEF734FE02224BF2040178681D
:10425000FEF72EFE08224FF436417868FEF728FE5E
:1042600050224FF435417868FEF722FE00224FF4C9
:1042700037417868FEF71CFE00224BF20171786826
:10428000FEF716FE01224FF438417868FEF710FE63
:1042900005224BF601017868FEF70AFE05224BF66F
:1042A00002017868FEF704FE05224BF603017868E8
:1042B000FEF7FEFD00224FF43C417868FEF7F8FD62
:1042C00000224BF601417868FEF7F2FD00224BF622
:1042D00002417868FEF7ECFD03224FF44C41786808
:1042E000FEF7E6FD00224CF601417868FEF7E0FD9E
:1042F00000224CF602417868FEF7DAFD01224FF405
:104300003D417868FEF7D4FD84224BF60151786870
:10431000FEF7CEFD07224BF602517868FEF7C8FD86
:1043200031224BF603517868FEF7C2FD00224BF6AE
:1043300004517868FEF7BCFD01224FF43A417868D9
:10434000FEF7B6FDAA224FF47F417868FEF7B0FD74
:1043500055224FF601717868FEF7AAFD25224FF627
:1043600002717868FEF7A4FD01224FF603717868A8
:10437000FEF79EFD00224FF454517868FEF798FD39
:1043800000224FF458517868FEF792FD55224FF401
:1043900068517868FEF78CFD4FF480717868FEF7FD
:1043A00037FD414B1B6801211846FCF75DF80022E0
:1043B0004FF488517868FEF77BFD3B4B1B684FF448
:1043C00096611846FCF750F800224FF4985178682F
:1043D000FEF76EFD344B1B680A211846FCF744F8C3
:1043E00000224FF40C517868FEF762FD2E4B1B68DB
:1043F0000A211846FCF738F800224FF42451786857
:10440000FEF756FD284B1B684FF496611846FCF7E3
:104410002BF800224FF428517868FEF749FD00225E
:1044200042F601217868FEF743FD032242F602219D
:104430007868FEF73DFD202242F603217868FEF7FA
:1044400037FD00224FF42C517868FEF731FD002231
:1044500042F601317868FEF72BFD032242F6023165
:104460007868FEF725FD202242F603317868FEF7D2
:104470001FFD0D4B1B6801211846FBF7F5FF0023BC
:10448000FB60FB68B3F57A7F0ADC4FF6FF724FF4EE
:1044900030517868FEF70CFDFB680133FB60F0E7F4
:1044A00000BF1037BD4680BD6808002008B52DED5F
:1044B000028BB0EE408A00F021F80E4B93F90030E9
:1044C00001330BD0B4EE488AF1EE10FA06D6DFEDD8
:1044D0000A8AB4EEE88AF1EE10FA02D4BDEC028B3F
:1044E00008BD00F00FF888EEA80ABDEC028B21236E
:1044F000036008BD0008002000000000B1EEC00A03
:10450000704700BF014B1868704700BF04080020C7
:10451400FF00000008080020000000000000000068
:104524000000000000000000000000000000000087
:104534000000000000000000000000000000000077
:104544000000000000000000000000000000000067
:104554000000000000000000000000000000000057
:104564000000000000000000000000000000000047
:0845740000000000000000003F
:0400000508000000EF
:00000001FF
