:020000040800F2
:10000000008000208D070008D7070008DD070008E2
:100010001B6E0308216E0308276E03080000000012
:100020000000000000000000000000002D6E03082A
:100030003B6E030800000000496E0308576E03087A
:10004000D1070008D1070008D1070008D107000830
:10005000D1070008D1070008D1070008D107000820
:10006000D1070008D9120008D1070008D1070008FD
:10007000D1070008D1070008D1070008D107000800
:10008000D1070008D1070008D1070008D1070008F0
:10009000D1070008D1070008D1070008091300089C
:1000A000D1070008D1070008D1070008D1070008D0
:1000B0003D0A0008710A0008A90A0008D1070008D3
:1000C000D1070008D1070008D1070008D1070008B0
:1000D000D1070008D1070008D1070008D1070008A0
:1000E000D1070008D107000800000000D107000870
:1000F000D1070008D1070008D1070008D107000880
:10010000D1070008D1070008D1070008D10700086F
:10011000D1070008D1070008D1070008D10700085F
:10012000D1070008D1070008D1070008D10700084F
:10013000D1070008D1070008D1070008D10700083F
:1001400000000000000000000000000000000000AF
:10015000D1070008D1070008D1070008D10700081F
:10016000D1070008D1070008D1070008D10700080F
:10017000D1070008D1070008D107000800000000DF
:10018000D1070008D1070008D1070008D1070008EF
:10019000D1070008D1070008D1070008D1070008DF
:1001A000D1070008D1070008D1070008D1070008CF
:1001B000D1070008D1070008D1070008D1070008BF
:1001C000D1070008D1070008656E0308D1070008B1
:1001D000D1070008796E0308D1070008D10700088D
:1001E000D1070008D1070008D1070008D10700088F
:1001F000D1070008D1070008D1070008D10700087F
:10020000D1070008D1070008D1070008D10700086E
:10021000D1070008D1070008D1070008D10700085E
:10022000D1070008D1070008D1070008000000002E
:10023000D1070008D107000800000000D10700081E
:10024000D1070008D1070008D1070008D10700082E
:10025000D1070008D1070008D1070008D10700081E
:10026000D1070008D1070008D1070008D10700080E
:10027000D1070008D1070008D107000800000000DE
:10028000D1070008D1070008D107000800000000CE
:1002900000000000D107000800000000000000007E
:1002A00001F0FF01102A2BDB10F0070F08D010F827
:1002B000013B013A8B422DD010F0070F42B3F6D12B
:1002C000F0B441EA012141EA014122F007047FF044
:1002D00000070023F0E80256083C85EA010586EA9B
:1002E000010685FA47F5A3FA87F586FA47F6A5FAD7
:1002F00087F68EB9EED1F0BC01F0FF0102F00702E3
:1003000032B110F8013B013A83EA010313B1F8D18D
:100310000020704701387047002D06BF354603386E
:10032000073815F0010F07D1013015F4807F02BFA7
:10033000013015F4C03F0130F0BC0138704700BFF8
:1003400081F0004102E000BF83F0004330B54FEA86
:1003500041044FEA430594EA050F08BF90EA020FF3
:100360001FBF54EA000C55EA020C7FEA645C7FEA86
:10037000655C00F0E2804FEA5454D4EB5555B8BFA9
:100380006D420CDD2C4480EA020281EA030382EA1A
:10039000000083EA010180EA020281EA0303362DAC
:1003A00088BF30BD11F0004F4FEA01314FF4801C7F
:1003B0004CEA113102D0404261EB410113F0004F91
:1003C0004FEA03334CEA133302D0524263EB430348
:1003D00094EA050F00F0A780A4F10104D5F1200EE6
:1003E0000DDB02FA0EFC22FA05F2801841F1000141
:1003F00003FA0EF2801843FA05F359410EE0A5F115
:1004000020050EF1200E012A03FA0EFC28BF4CF045
:10041000020C43FA05F3C01851EBE37101F00045FB
:1004200007D54FF0000EDCF1000C7EEB00006EEB08
:100430000101B1F5801F1BD3B1F5001F0CD3490892
:100440005FEA30004FEA3C0C04F101044FEA4452E9
:1004500012F5800F80F09A80BCF1004F08BF5FEA70
:10046000500C50F1000041EB045141EA050130BD50
:100470005FEA4C0C404141EB0101013C28BFB1F562
:10048000801FE9D291F0000F04BF01460020B1FAAD
:1004900081F308BF2033A3F10B03B3F120020CDA80
:1004A0000C3208DD02F1140CC2F10C0201FA0CF05E
:1004B00021FA02F10CE002F11402D8BFC2F1200CC3
:1004C00001FA02F120FA0CFCDCBF41EA0C01904079
:1004D000E41AA2BF01EB0451294330BD6FEA0404C2
:1004E0001F3C1CDA0C340EDC04F11404C4F12002AD
:1004F00020FA04F001FA02F340EA030021FA04F3BF
:1005000045EA030130BDC4F10C04C4F1200220FA15
:1005100002F001FA04F340EA0300294630BD21FA53
:1005200004F0294630BD94F0000F83F4801306BF19
:1005300081F480110134013D4EE77FEA645C18BF0D
:100540007FEA655C29D094EA050F08BF90EA020FA4
:1005500005D054EA000C04BF1946104630BD91EA9C
:10056000030F1EBF0021002030BD5FEA545C05D19F
:100570004000494128BF41F0004130BD14F58004DE
:100580003CBF01F5801130BD01F0004545F0FE4152
:1005900041F470014FF0000030BD7FEA645C1ABF87
:1005A000194610467FEA655C1CBF0B46024650EABE
:1005B000013406BF52EA033591EA030F41F40021EA
:1005C00030BD00BF90F0000F04BF0021704730B570
:1005D0004FF4806404F132044FF000054FF0000145
:1005E00050E700BF90F0000F04BF0021704730B506
:1005F0004FF4806404F1320410F0004548BF4042DB
:100600004FF000013EE700BF42004FEAE2014FEA2F
:1006100031014FEA02701FBF12F07F4393F07F4F0A
:1006200081F06051704732F07F4208BF704793F00D
:100630007F4F04BF41F40021704730B54FF4607420
:1006400001F0004521F000411CE700BF50EA010223
:1006500008BF704730B54FF000050AE050EA0102CC
:1006600008BF704730B511F0004502D5404261EB3C
:1006700041014FF4806404F132045FEA915C3FF47D
:10068000D8AE4FF003025FEADC0C18BF03325FEA1A
:10069000DC0C18BF033202EBDC02C2F1200300FACB
:1006A00003FC20FA02F001FA03FE40EA0E0021FAF0
:1006B00002F11444BDE600BF80B400AF00BFBD46E8
:1006C0005DF8047B704780B400AF00BFBD465DF8A5
:1006D000047B704780B582B000AF174A174BD31A1E
:1006E0009B103B6000237B607A683B689A4208DA83
:1006F000124A7B6852F8233098477B6801337B604D
:10070000F2E7FFF7D9FF0E4A0E4BD31A9B103B605E
:1007100000237B607A683B689A4208DA094A7B6862
:1007200052F8233098477B6801337B60F2E700BFC3
:100730000837BD4680BD00BF00000000E827040860
:10074000F0270408E827040880B582B000AF0D4AFE
:100750000D4BD31A9B103B603B687B607B68002B82
:1007600009DD7B68013B084A52F8233098477B68D3
:10077000013B7B60F2E7FFF7A6FF00BF0837BD46ED
:1007800080BD00BFF0270408F027040872B60B4CA8
:100790000B4D0C4B9D4204D023682B600434043570
:1007A000F7E7094C094B9C4203D000232360043433
:1007B000F8E7FFF78FFF00F079FE00BF5844040808
:1007C00000800020D881002000000024D46104248F
:1007D00080B400AFFEE780B400AFFEE780B483B022
:1007E00000AF00237B607B68034A9342F9DA7B68A1
:1007F00001337B60F7E700BFC030460080B483B0B0
:1008000000AF0346FB80B7F90630002B0BDBFB88FB
:1008100003F01F020749B7F906305B09012000FA0F
:1008200002F241F8232000BF0C37BD465DF8047B7F
:10083000704700BF00E100E080B582B000AF786093
:100840000B46FB701346BB707B6800221A707B68F6
:1008500000225A60BA78FB781946786800F02AF8C6
:10086000074B1B785A1CD1B2054A11701946054A2C
:100870007B6842F821307B6818460837BD4680BD4A
:100880000C0000240000002480B483B000AF786026
:1008900039607B6800225A607B685B683A689A42DC
:1008A00001D900BFF8E700BF0C37BD465DF8047BF7
:1008B0007047000080B582B000AF78600B46FB70D7
:1008C0001346BB70FB78042B75D0042B00F3AB8070
:1008D000022B02D0032B3CD0A5E0554BD3F8E830D7
:1008E000534A43F00103C2F8E830BB78002B0AD02A
:1008F000012B1AD14FF0804314229A624FF08043AB
:100900000922DA6211E04FF0804364229A624FF0CC
:10091000804364229A624FF0804364229A624FF0CF
:10092000804340F2E732DA6200BF4FF08043DB6879
:100930004FF0804243F00103D3604FF080431B68C7
:100940004FF0804243F0010313601C20FFF756FF75
:100950006AE0374BD3F8E830354A43F00203C2F877
:10096000E830BB78002B08D0012B14D1314B142276
:100970009A62304B0922DA620DE02E4B64229A62B1
:100980002C4B64229A622B4B64229A62294B40F2D0
:10099000E732DA6200BF274BDB68264A43F00103E7
:1009A000D360244B1B68234A43F0010313601D20CE
:1009B000FFF724FF38E01E4BD3F8E8301C4A43F021
:1009C0000403C2F8E830BB78002B0ED0012B1AD1FB
:1009D000194B12229A62184B12229A62164B12225B
:1009E0009A62154B6322DA620DE0134B64229A621D
:1009F000114B64229A62104B64229A620E4B40F2B1
:100A0000E732DA6200BF0C4BDB680B4A43F00103AC
:100A1000D360094B1B68084A43F0010313601E2092
:100A2000FFF7ECFE00E000BF00BF0837BD4680BD09
:100A300000440258000400400008004080B400AFA9
:100A40004FF080431B694FF0804223F00103136194
:100A5000064B1B6801221A70044B1B685A6801324E
:100A60005A6000BFBD465DF8047B7047000000245B
:100A700080B400AF094B1B69084A23F001031361DE
:100A8000074B5B6801221A70064B4AF6AA221A60CD
:100A900000BFBD465DF8047B704700BF0004004006
:100AA000000000240048005880B500AF0A4B1B69C5
:100AB000094A23F001031361084B9B6801221A7055
:100AC000074B1B68184600F067F8054B1B68184673
:100AD00000F004F900BF80BD0008004000000024C1
:100AE0001000002480B483B000AF0346FB80B7F948
:100AF0000630002B0BDBFB8803F01F020749B7F918
:100B000006305B09012000FA02F241F8232000BF01
:100B10000C37BD465DF8047B704700BF00E100E084
:100B200080B582B000AF78607B6800221A707B6865
:100B300000225A707B6800229A707B680022DA706B
:100B40007B6800221A717B6800225A717B68002240
:100B5000DA807B6800221A817B6800225A817B68D8
:100B600000221A737B6800225A737B6800229A73F2
:100B70007B680022DA73786800F0A8FA786800F0E1
:100B800069FA044A7B6813607B6818460837BD46DB
:100B900080BD00BF1000002480B483B000AF786037
:100BA0004C4B1B69DB08DBB203F00103DAB24A4BA2
:100BB0001B699B09DBB203F00203DBB21343DAB219
:100BC0007B685A737B681B89642B02D17B68632224
:100BD0001A817B681B7B032B15D17B685B7B012B08
:100BE00006D17B681B89013B9AB27B681A8157E06A
:100BF0007B685B7B022B53D17B681B8901339AB2E4
:100C00007B681A814CE07B681B7B022B15D17B68CB
:100C10005B7B032B06D17B681B89013B9AB27B6807
:100C20001A813DE07B685B7B002B39D17B681B8997
:100C300001339AB27B681A8132E07B681B7B012BFF
:100C400015D17B685B7B002B06D17B681B89013B40
:100C50009AB27B681A8123E07B685B7B032B1FD1F0
:100C60007B681B8901339AB27B681A8118E07B6824
:100C70001B7B002B14D17B685B7B012B06D17B682F
:100C80001B8901339AB27B681A8109E07B68DB7BA0
:100C9000022B05D17B681B89013B9AB27B681A81C4
:100CA0007B681B89652B02D17B6863221A817B6874
:100CB0001B894FF6FF72934202D17B6800221A8192
:100CC0007B685A7B7B681A7300BF0C37BD465DF8A2
:100CD000047B7047000002580004025880B483B0BF
:100CE00000AF78604C4B1B691B0ADBB203F00103B9
:100CF000DAB24A4B1B691B09DBB203F00203DBB219
:100D00001343DAB27B68DA737B685B89642B02D1A8
:100D10007B6863225A817B689B7B032B15D17B68A0
:100D2000DB7B012B06D17B685B89013B9AB27B6838
:100D30005A8157E07B68DB7B022B53D17B685B8950
:100D400001339AB27B685A814CE07B689B7B022B13
:100D500015D17B68DB7B032B06D17B685B89013B6C
:100D60009AB27B685A813DE07B68DB7B002B39D1EE
:100D70007B685B8901339AB27B685A8132E07B6879
:100D80009B7B012B15D17B68DB7B002B06D17B681D
:100D90005B89013B9AB27B685A8123E07B68DB7BED
:100DA000032B1FD17B685B8901339AB27B685A8120
:100DB00018E07B689B7B002B14D17B68DB7B012BCD
:100DC00006D17B685B8901339AB27B685A8109E05E
:100DD0007B68DB7B022B05D17B685B89013B9AB288
:100DE0007B685A817B685B89652B02D17B686322B3
:100DF0005A817B685B894FF6FF72934202D17B6810
:100E000000225A817B68DA7B7B689A7300BF0C37BB
:100E1000BD465DF8047B704700000258000402588C
:100E200080B584B000AF78600B467B800023FB6008
:100E30007B88FA689A4206DA786800F01FF8FB6847
:100E40000133FB60F4E700BF1037BD4680BD80B5BD
:100E500084B000AF78600B467B800023FB607B880A
:100E6000FA689A4206DA786800F036F8FB680133CF
:100E7000FB60F4E700BF1037BD4680BD80B582B08F
:100E800000AF7860786800F055F8124B1B680A21B3
:100E90001846FFF7F9FC786800F070F80D4B1B68F6
:100EA0000A211846FFF7F0FC786800F08BF8094B30
:100EB0001B680A211846FFF7E7FC786800F0A6F8DF
:100EC000044B1B680A211846FFF7DEFC00BF0837F9
:100ED000BD4680BD0000002480B582B000AF7860C0
:100EE000786800F093F8124B1B680A211846FFF748
:100EF000CBFC786800F066F80D4B1B680A21184699
:100F0000FFF7C2FC786800F039F8094B1B680A212A
:100F10001846FFF7B9FC786800F00CF8044B1B6822
:100F20000A211846FFF7B0FC00BF0837BD4680BD58
:100F30000000002480B483B000AF78600E4B9B6942
:100F40000D4A43F0010393610B4B9B690A4A43F43A
:100F500000339361084B9B69074A43F480239361F4
:100F6000054B9B69044A43F48003936100BF0C372F
:100F7000BD465DF8047B70470004025880B483B01E
:100F800000AF78600E4B9B690D4A43F48033936148
:100F90000B4B9B690A4A43F002039361084B9B6920
:100FA000074A43F480239361054B9B69044A43F449
:100FB0008003936100BF0C37BD465DF8047B70472A
:100FC0000004025880B483B000AF78600E4B9B6978
:100FD0000D4A43F4803393610B4B9B690A4A43F4F7
:100FE00000339361084B9B69074A43F00403936104
:100FF000054B9B69044A43F48003936100BF0C379F
:10100000BD465DF8047B70470004025880B483B08D
:1010100000AF78600E4B9B690D4A43F480339361B7
:101020000B4B9B690A4A43F400339361084B9B695D
:10103000074A43F480239361054B9B69044A43F0BC
:101040004003936100BF0C37BD465DF8047B7047D9
:101050000004025880B483B000AF78601A4B1B685C
:10106000194A23F002031360174B1B68164A43F01A
:1010700001031360144B1B68134A23F00803136029
:10108000114B1B68104A43F0040313600E4B1B689E
:101090000D4A23F0200313600B4B1B680A4A43F0F0
:1010A00010031360084B1B68074A23F400531360B6
:1010B000054B1B68044A43F48053136000BF0C3790
:1010C000BD465DF8047B70470004025880B582B0CD
:1010D00000AF78607B4BD3F8E0307A4A43F00403EA
:1010E000C2F8E030784B1B68774A23F0C0031360E6
:1010F000754BDB68744A23F0C003D360714BD3F89F
:10110000E030704A43F00103C2F8E0306F4B1B68D7
:101110006E4A23F4403313606C4BDB686B4A23F454
:101120004033D360694B1B68684A23F0C0031360E7
:10113000664BDB68654A23F0C003D360614BD3F88C
:10114000E030604A43F00203C2F8E030604B1B68B5
:101150005F4A23F4406313605D4BDB685C4A23F411
:101160004063D3605A4B1B68594A23F440431360D1
:10117000574BDB68564A23F44043D360524B1B68FD
:10118000514A23F4402313604F4BDB684E4A23F44B
:101190004023D3604B4BD3F8F4304A4A43F0020368
:1011A000C2F8F4304B4B4B4A9B6893604FF0B0430E
:1011B0005B684FF0B04243F0080353604FF0B04318
:1011C000D3F880304FF0B04243F00803C2F88030CB
:1011D0004FF0B043D3F888304FF0B04243F00803EB
:1011E000C2F888300920FFF77DFC3A4BDB68394AAA
:1011F00043F48053D3604FF0B0435B684FF0B0428C
:1012000043F0800353604FF0B043D3F880304FF089
:10121000B04243F08003C2F880304FF0B043D3F8BF
:1012200088304FF0B04243F08003C2F88830294B39
:10123000DB68284A43F01003D3604FF0B0435B688B
:101240004FF0B04243F0200353604FF0B043D3F867
:1012500080304FF0B04243F02003C2F880304FF0AE
:10126000B043D3F888304FF0B04243F02003C2F8C7
:101270008830184B1B69174A43F0200313614FF065
:10128000B0435B684FF0B04243F4007353604FF0DB
:10129000B043D3F880304FF0B04243F40073C2F84B
:1012A00080304FF0B043D3F888304FF0B04243F471
:1012B0000073C2F888301720FFF714FC00BF08370E
:1012C000BD4680BD00440258000802580000025884
:1012D000000402580004005880B400AF4FF0B0433F
:1012E000D3F888304FF0B04243F00803C2F888309A
:1012F000044B1B6801225A7000BFBD465DF8047B99
:10130000704700BF1000002480B400AF4FF0B0431E
:10131000D3F8883003F02003002B14BF01230023EF
:10132000DBB2002B08D0274B1B6801229A704FF0CC
:10133000B0432022C3F888204FF0B043D3F8883060
:1013400003F08003002B14BF01230023DBB2002B2A
:1013500008D01C4B1B680122DA704FF0B04380228A
:10136000C3F888204FF0B043D3F8883003F480737B
:10137000002B14BF01230023DBB2002B05D04FF05C
:10138000B0434FF48072C3F888204FF0B043D3F8D5
:10139000883003F40073002B14BF01230023DBB259
:1013A000002B09D0074B1B6801225A714FF0B04344
:1013B0004FF40072C3F8882000BFBD465DF8047B7F
:1013C000704700BF1000002480B582B000AF786085
:1013D000786800F037F87B6818460837BD4680BD4E
:1013E00080B485B000AF786042F21073FB600B4BA5
:1013F0005B690A4A83F400735361FB685A1EFA6002
:10140000002B14BF01230023DBB2002B00D0F4E734
:1014100000BF1437BD465DF8047B704700040258D6
:1014200080B483B000AF7860054B5B69044A23F455
:101430000073536100BF0C37BD465DF8047B7047F5
:101440000004025880B483B000AF78600F4BD3F82B
:10145000E0300E4A43F00203C2F8E0300C4B1B6848
:101460000B4A43F480231360094B1B68084A23F49A
:1014700000231360064B9B68054A43F440239360A6
:1014800000BF0C37BD465DF8047B7047004402582E
:101490000004025880B483B000AF7860FEE780B4E7
:1014A00000AF00BFBD465DF8047B704780B5ADF569
:1014B0001D6D04AF4FF4C87024F0FEFD0346C7F85D
:1014C000AC390023C7F8BC39D7F8BC39632B0DDC25
:1014D000D7F8BC399B00D7F8AC291344FF221A6017
:1014E000D7F8BC390133C7F8BC39EDE7C54BD3F8A1
:1014F0008830C44A43F47003C2F888300023C7F828
:10150000B839D7F8B8093FF0E1FBBF4B00221A7099
:1015100007F51A63184621F0A3FA07F69C1318463C
:10152000FFF752FF07F69413002202211846FFF737
:1015300083F907F68C13002203211846FFF77CF984
:1015400007F68413012204211846FFF775F907F600
:1015500074131846FFF7E4FA62B600BF25F08AF864
:1015600000F060FB07F51263184621F03BFD37F0F1
:10157000CFFF07F6F403184601F03AF907F6C8035F
:10158000184602F0B5FE07F6C80040F2FF7301935B
:101590004FF4F07300934FF448730022002102F0DF
:1015A00065FE07F6C8004FF6E073009332239FED07
:1015B000970AF0224FF4C87103F0D3F907F50763D7
:1015C000002240F2FF71184603F0A4FE07F5076001
:1015D0008F4B0022642103F08EFF07F618031F22B1
:1015E0004FF6E071184603F095FE07F618034FF624
:1015F000100240F2FF71184603F0FAFE97F8203906
:101600001A4607F618031146184600F0F9FF03467C
:1016100007F61800012200920022002104F080F851
:10162000D7F8242907F618031146184600F0E8FFFA
:10163000034607F61800012200922322002104F03D
:101640006FF8D7F8282907F618031146184600F056
:10165000D7FF034607F61800012200924622002118
:1016600004F05EF80023C7F8B439D7F8B439002B7A
:1016700013DCD7F8B419D7F8B4395B021A46654BB6
:101680001A4407F512604FF4007322F057FDD7F8A3
:10169000B4390133C7F8B439E7E707F512604FF4FE
:1016A00000735D4A032122F049FD07F512604FF4F3
:1016B00000735A4A042122F041FD07F11003184635
:1016C00023F0D4F83B1D564A07CA03C31A80554875
:1016D00023F008FA002240F2FF71524823F0AEFADC
:1016E000514BF02200214F4823F029FB4F4B4FF480
:1016F000847200214B4823F022FB002240F2FF714C
:10170000484823F09BFA7F23002240F202314548EB
:1017100023F0D8FA0023C7F8A8393B4B1B78002BDD
:1017200007D08F23002240F202313E4823F0CAFA4C
:1017300006E07F23002240F202313A4823F0C2FA49
:10174000D7F8B8390133C7F8B83907F61803D7F80E
:10175000B819184600F054FF034607F61800072290
:1017600000924FF4DC72002103F0DAFFB7F87C3905
:101770001A4607F618031146184600F041FF0346C3
:1017800007F61800032200924FF4DC724FF49671B2
:1017900003F0C6FFB7F87E391A4607F6180311465C
:1017A000184600F02DFF034607F6180003220092AA
:1017B0004FF4DC724FF4FA7103F0B2FFB7F87A39E4
:1017C0001A4607F618031146184600F019FF03469B
:1017D00007F61800032200924FF4DC724FF42F71C9
:1017E00003F09EFF97F87539002B4ED0B7F87A3981
:1017F000002B1DD0B7F87A39013B9BB2A7F87A3994
:101800001AE000BF00ED00E0A8FC0324000016432E
:10181000F0270408140000241402002414040024F7
:101820002C28040814060024FC270408182804089F
:101830004FF4B473A7F87A39B7F87A3905339BB205
:1018400007F6C8004FF6E0720392282202920522A2
:10185000019200939623F0224FF4C87103F068FAC6
:10186000B7F87A3907F6C8004FF478420392282275
:1018700002920522019200939623F0224FF4C87140
:1018800003F056FA002387F8753997F87639002B5C
:1018900037D0B7F87A39B3F5B47F06D0B7F87A39CC
:1018A00001339BB2A7F87A3902E00023A7F87A390E
:1018B000B7F87A3907F6C8004FF6E072039228228B
:1018C00002920522019200939623F0224FF4C871F0
:1018D00003F02EFAB7F87A3905339BB207F6C80041
:1018E0004FF478420392282202920522019200933B
:1018F0009623F0224FF4C87103F01AFA002387F8F8
:10190000763997F87939002B20D00523A7F8B2391A
:10191000B7F8B239002B11D097F89439002BF7D0D3
:1019200007F69C131846FFF75BFDB7F8B239013B89
:10193000A7F8B239002387F89439E9E707F69C1332
:101940001846FFF76DFD002387F8793907F51A630C
:10195000184621F0D9F997F8A239B14AA2FB03231E
:10196000DB08DBB21A4607F618031146184600F0EA
:1019700047FE034607F618000122009200224FF4AA
:10198000FA7103F0CDFE97F8A229A54BA3FB021331
:10199000D9080B469B000B445B00D31ADBB21A46F6
:1019A00007F618031146184600F02AFE034607F60C
:1019B00018000122009200224FF4047103F0B0FEDF
:1019C00007F618003A23002240F22A2103F056FDC0
:1019D00097F8A139924AA2FB0323DB08DBB21A462F
:1019E00007F618031146184600F00AFE034607F6EC
:1019F000180001220092002240F2462103F090FEDE
:101A000097F8A129864BA3FB0213D9080B469B002C
:101A10000B445B00D31ADBB21A4607F618031146D3
:101A2000184600F0EDFD034607F61800012200926B
:101A3000002240F2622103F073FE07F618003A23F9
:101A4000002240F27E2103F019FD97F8A039744A74
:101A5000A2FB0323DB08DBB21A4607F61803114684
:101A6000184600F0CDFD034607F61800012200924B
:101A7000002240F29A2103F053FE97F8A029684B08
:101A8000A3FB0213D9080B469B000B445B00D31A3F
:101A9000DBB21A4607F618031146184600F0B0FDEF
:101AA000034607F6180001220092002240F2B621F8
:101AB00003F036FE07F51A63184621F081F997F80E
:101AC000A539574AA2FB0323DB08DBB21A4607F607
:101AD00018031146184600F093FD034607F6180058
:101AE0000122009228224FF4FA7103F019FE97F8B0
:101AF000A5294B4BA3FB0213D9080B469B000B44B3
:101B00005B00D31ADBB21A4607F6180311461846D3
:101B100000F076FD034607F6180001220092282205
:101B20004FF4047103F0FCFD07F618002E23282261
:101B300040F22A2103F0A2FC97F8A439384AA2FB0C
:101B40000323DB08DBB21A4607F6180311461846D2
:101B500000F056FD034607F61800012200922822E5
:101B600040F2462103F0DCFD97F8A4292C4BA3FB9F
:101B70000213D9080B469B000B445B00D31ADBB25F
:101B80001A4607F618031146184600F039FD0346B9
:101B900007F6180001220092282240F2622103F089
:101BA000BFFD07F618002E23282240F27E2103F005
:101BB00065FC97F8A3391A4AA2FB0323DB08DBB2C2
:101BC0001A4607F618031146184600F019FD034699
:101BD00007F6180001220092282240F29A2103F011
:101BE0009FFD97F8A3290E4BA3FB0213D9080B46C0
:101BF0009B000B445B00D31ADBB21A4607F61803AE
:101C00001146184600F0FCFC034607F618000122B6
:101C10000092282240F2B62103F082FD7DE500BF4C
:101C2000CDCCCCCC80B5CCB000AF07F1E4034C22D6
:101C3000002118463FF042F807F1C403202200219A
:101C400018463FF03BF807F108031846BC231A4634
:101C500000213FF033F8022030F002FB3B1D002250
:101C60001A60694BDB6A684A23F00103D362664B52
:101C7000DB6A03F001023B1D1A60644B9B69634AF7
:101C800043F440439361614B9B6903F440423B1D25
:101C90001A603B1D1B685D4B9B6903F40053B3F551
:101CA000005F14BF01230023DBB2002B00D0F2E75A
:101CB000574B9B6A23F00303554A43F00203936298
:101CC0000123C7F8E4304FF48033C7F8E83002232B
:101CD000C7F808310223C7F80C310423C7F81031C4
:101CE0004FF4B473C7F814310223C7F81831022334
:101CF000C7F81C310223C7F820310423C7F8243168
:101D00000023C7F828310023C7F82C3107F1E4037A
:101D1000184631F0DBF90346002B14BF01230023E2
:101D2000DBB2002B01D0FFF7BAFB3F23C7F8C4306A
:101D30000323C7F8C8300023C7F8CC300823C7F8FE
:101D4000D0304023C7F8D4304023C7F8D8304FF400
:101D50008063C7F8DC304023C7F8E03007F1C403E4
:101D60000221184631F076FE0346002B14BF0123F2
:101D70000023DBB2002B01D0FFF791FB07F1080332
:101D80004FF4A0221A6007F1080301225A6207F1FA
:101D9000080330229A6207F108030222DA6207F18F
:101DA000080308221A6307F1080302225A6307F1A5
:101DB00008034FF440629A6307F108030022DA63D4
:101DC00007F1080300221A6407F108030022DA640D
:101DD00007F108034FF40012C3F8842007F1080349
:101DE000184632F049FC0346002B14BF01230023A0
:101DF000DBB2002B01D0FFF752FB30F049FE00BFF1
:101E000007F59877BD4680BD000400580048025889
:101E10000044025880B400AF104B1B68DB785A06B0
:101E20000E4B1B681B795B051A430C4B1B685B79D7
:101E30001B041A43094B1B689B78DB021A43074BB0
:101E40001B685B785B011A43044B1B681B785B10B3
:101E500013431846BD465DF8047B7047945804242C
:101E600080B582B000AF786039607B68012B07D104
:101E70003B684FF6FF72934202D1034822F0F8FD0F
:101E800000BF0837BD4680BD1406002480B500AFF2
:101E90004FF6FF710120FFF7E3FF80BD80B582B0F0
:101EA00000AF78600B467B807B881946786800F02D
:101EB00005F87B6818460837BD4680BD80B483B0FE
:101EC00000AF78600B467B808F4BDB688E4A23F037
:101ED0000203D3608C4BDB688B4A23F00503D3608D
:101EE000894B9B69884A43F440439361864B9B69C5
:101EF00003F40053B3F5005F14BF01230023DBB2EA
:101F0000002B00D0F2E7814B1B68804A43F48033FA
:101F100013607E4B1B6803F40033002B0CBF0123BE
:101F20000023DBB2002B00D0F3E7784B00221A61CC
:101F3000764B00229A62754B02229A627B88B3F537
:101F4000F07F00F0EB80B3F5F07F00F35D81402B74
:101F500003D0B3F5C87F67D056E16C4B9B6A6B4AE0
:101F600043F020039362694B00221A63674B0022FF
:101F70009A63664B00221A64644B1A6B6349644B84
:101F800013430B63614B0022DA62604BDB6A5F4AEA
:101F900023F00C03D3625D4BDB6A5C4A43F004031D
:101FA000D3625A4BDB6A594A43F00203D362574B60
:101FB0009B69564A43F400639361544B9B69534AAF
:101FC00023F00F039361514B9B69504A23F0400368
:101FD00093614E4B9B694D4A23F0300393614B4B09
:101FE000DB694A4A23F04003D361484BDB69474A27
:101FF00023F03003D361454BDB69444A23F480630B
:10200000D361424BDB69414A23F44073D3613F4BB8
:102010001B6A3E4A23F0400313623C4B1B6A3B4A57
:1020200023F030031362FCE0384B9B6A374A43F0DD
:1020300040039362354B00221A63344B00229A63AB
:10204000324B00221A64314B1A6B3049314B134327
:102050000B632E4B0022DA622C4BDB6A2B4A43F0D7
:102060000803D362294BDB6A284A23F00203D362B8
:10207000264B00229A61254B9B69244A23F4706306
:102080009361224B9B69214A43F0080393611F4BE4
:102090009B691E4A43F0400393611C4B9B691B4A9A
:1020A00023F030039361194BDB69184A43F0400376
:1020B000D361164BDB69154A23F03003D361134B10
:1020C000DB69124A43F48063D361104BDB690F4A2A
:1020D00023F44073D3610D4B1B6A0C4A43F0400359
:1020E00013620A4B1B6A094A23F0300313620A4B3E
:1020F0001B68094A23F00F031360074B1B68064A4D
:1021000043F0020313608CE0004802580044025878
:10211000400201016703010100200052674B9B6AE6
:10212000664A43F080039362644B00221A63634B58
:1021300000229A63614B00221A64604B1A6B5F495C
:102140005F4B13430B635D4B0022DA625B4BDB6A30
:102150005A4A43F00C03D362584BDB6A574A23F0C8
:102160000203D362554B00229A61544B9B69534A38
:1021700023F470639361514B9B69504A43F0080309
:1021800093614E4B9B694D4A43F0400393614B4B27
:102190009B694A4A23F030039361484BDB69474A05
:1021A00043F04003D361454BDB69444A23F03003DD
:1021B000D361424BDB69414A43F48063D3613F4BB7
:1021C000DB693E4A23F44073D3613C4B1B6A3B4AB4
:1021D00043F040031362394B1B6A384A23F0300343
:1021E0001362384B1B68374A23F00F031360354BDB
:1021F0001B68344A43F003031360304B9B6A2F4A39
:1022000043F0020393620CE02C4B1B682B4A23F42F
:1022100080331360294B1B68284A43F00103136085
:1022200047E0264B4FF4D0525A63244BDB6A234AD3
:1022300043F4E023D362214B1B68204A43F08073B0
:1022400013601E4B1B6803F00073002B0CBF0123AF
:102250000023DBB2002B00D0F3E7184BD3F8F430A7
:10226000164A43F00203C2F8F430174B1B6A164AB1
:1022700043F001031362114B1B69104A23F007035B
:1022800013610E4B1B690D4A43F0030313610B4BA3
:102290001B6903F03803182B14BF01230023DBB2A2
:1022A000002B00D0F3E7054B1B68044A23F0010321
:1022B00013600C37BD465DF8047B7047004402583C
:1022C00090030101002000520004005880B582B044
:1022D00000AF7860786800F005F87B68184608372A
:1022E000BD4680BD80B483B000AF7860104BD3F89A
:1022F000E0300F4A43F01003C2F8E0300D4B1A688B
:102300000C4941F2555313430B600A4B1A680949B3
:10231000094B13400B60074B9A68064943F6FF735D
:1023200013438B6000BF0C37BD465DF8047B7047DC
:10233000004402580010025855D5FFFF80B582B006
:1023400000AF87ED010A97ED010A3DF045FEF0EE82
:10235000407AB0EE670A0837BD4680BD80B582B0CE
:1023600000AF87ED010A97ED010A3EF0EDFAF0EEBD
:10237000407AB0EE670A0837BD4680BD80B483B0AE
:1023800000AF78607B681A46002313605360936047
:10239000D36013617B68143300221A605A609A601C
:1023A000DA601A617B68002283F828207B6818466F
:1023B0000C37BD465DF8047B7047000080B483B0E5
:1023C00000AF7860054B9B69044A43F40043936176
:1023D00000BF0C37BD465DF8047B70470000025813
:1023E00080B483B000AF7860054B9B69044A43F02A
:1023F0000043936100BF0C37BD465DF8047B704716
:102400000000025880B582B000AF78607B68184643
:10241000FFF7B4FF7B6818460837BD4680BD80B51E
:1024200082B000AF78607B681846FFF7EBFF7B68EF
:1024300018460837BD4680BD80B483B000AF7860D1
:102440000B467B807B881A12064BD2B25A70054B22
:102450007A88D2B25A7000BF0C37BD465DF8047B53
:10246000704700BFFFFF006080B483B000AF7860AA
:102470000B467B807B881A12064BD2B21A70054B32
:102480007A88D2B21A7000BF0C37BD465DF8047B63
:10249000704700BFFFFF006080B483B000AF78607A
:1024A0000B467B8013463B807B881A120A4BD2B2C4
:1024B0001A70094B7A88D2B21A703B881A12064BEE
:1024C000D2B25A70044B3A88D2B25A7000BF0C375D
:1024D000BD465DF8047B7047FFFF006080B582B0A9
:1024E00000AF78600B467B807B881B0A9BB21A4644
:1024F0004FF428517868FFF7CFFF7B88DBB29BB29F
:102500001A4642F601217868FFF7C6FF00BF083778
:10251000BD4680BD80B582B000AF78600B467B8041
:102520007B881B0A9BB21A464FF42C517868FFF740
:10253000B3FF7B88DBB29BB21A4642F60131786862
:10254000FFF7AAFF00BF0837BD4680BD80B584B045
:1025500000AFF860084611461A4603467B810B46D9
:102560003B811346FB807B891B129BB21A464FF4BA
:102570002851F868FFF790FF7B89DBB29BB21A46BF
:1025800042F60121F868FFF787FFFB881B129BB218
:102590001A4642F60221F868FFF77EFFFB88DBB29D
:1025A0009BB21A4642F60321F868FFF775FF3B8994
:1025B0001B129BB21A464FF42C51F868FFF76CFFC0
:1025C0003B89DBB29BB21A4642F60131F868FFF74D
:1025D00063FF3B8B1B129BB21A4642F60231F8682E
:1025E000FFF75AFF3B8BDBB29BB21A4642F6033130
:1025F000F868FFF751FF00BF1037BD4680BD0000EF
:1026000080B487B000AF786039603B687B6100239D
:10261000FB747B69002B09D07B69674AA2FB03230B
:10262000DB087B61FB7C0133FB74F2E73B687B6179
:102630007B68FA7C83F828203B68002B13D17B68E9
:10264000012283F828207B6893F82830013B7A68C0
:102650003021D1547B6893F828301A467B680021DA
:1026600099547B68A2E00023BB747B6893F8283000
:10267000BA7C9A4280F08D8079694F4BA3FB01238D
:10268000DA0813469B0013445B00CA1AFA60FB6821
:10269000002B08D17B6893F828305A1EBB7CD31AD4
:1026A0007A683021D154FB68012B08D17B6893F8FC
:1026B00028305A1EBB7CD31A7A683121D154FB686A
:1026C000022B08D17B6893F828305A1EBB7CD31AA2
:1026D0007A683221D154FB68032B08D17B6893F8C8
:1026E00028305A1EBB7CD31A7A683321D154FB6838
:1026F000042B08D17B6893F828305A1EBB7CD31A70
:102700007A683421D154FB68052B08D17B6893F893
:1027100028305A1EBB7CD31A7A683521D154FB6805
:10272000062B08D17B6893F828305A1EBB7CD31A3D
:102730007A683621D154FB68072B08D17B6893F85F
:1027400028305A1EBB7CD31A7A683721D154FB68D3
:10275000082B08D17B6893F828305A1EBB7CD31A0B
:102760007A683821D154FB68092B08D17B6893F82B
:1027700028305A1EBB7CD31A7A683921D1547B6920
:102780000D4AA2FB0323DB087B61BB7C0133BB74D6
:102790006BE77B6893F82830082B06D87B6893F8A2
:1027A00028301A467B68002199547B6818461C37EC
:1027B000BD465DF8047B7047CDCCCCCC80B582B0F3
:1027C00000AF786087ED000A7B6803F11400D7ED55
:1027D000007AB7EEE77A53EC172B04493EF000FB82
:1027E0007B68143318460837BD4680BD3828040876
:1027F00080B582B000AF78607B681846FFF7BEFDF9
:10280000786800F011F87868FFF7EAFD786800F062
:10281000D3F9044A7B6813607B6818460837BD46C5
:1028200080BD00BFACFC032480B483B000AF7860EF
:102830009B4BD3F8E0309A4A43F00803C2F8E030EB
:10284000984B1A689749984B13430B60954B1A683D
:102850009449964B13400B60924B9A689149944B64
:1028600013438B608F4B5A6A8E49924B13434B62D2
:102870008C4B1A688B4948F60A2313430B60894B2B
:102880001A6888498C4B13400B60864B9A688549BF
:102890004CF60F7313438B60824B1A6A8149874B46
:1028A00013430B627F4B1B687E4A43F05003136057
:1028B0007C4B1B687B4A23F0A0031360794B9B6819
:1028C000784A43F0F0039360754BD3F8E030744AD4
:1028D00043F01003C2F8E030794B1B68784A43F4A8
:1028E0002A131360764B1B68754A23F4AA131360EE
:1028F000734B9B68724A43F47F139360704B1B6A5F
:102900006F4A43F0404313626D4B5A6A6C4940F67C
:10291000CC4313434B62624BD3F8E030604A43F040
:102920000103C2F8E030674B1B68664A43F08043FE
:102930001360644B1B68634A23F000431360614BD0
:102940009B68604A43F040439360BFF35F8F00BFD2
:102950005D4B5B6A5C4A23F4803353625B4B00221D
:102960005A605A4B00229A60584B4FF0C042DA60CE
:10297000564B00221A61554B1B69544A43F0010320
:102980001361524B1B69514A43F0360313614F4B9D
:102990004E4A1B6913614D4B1B694C4A43F480330B
:1029A00013614A4B494A1B691361484B474A1B69EB
:1029B0001361464B454A1B691361444B1B69434AEB
:1029C00043F040731361414B404A1B6913613F4B15
:1029D00005225A603C4B5B6A3B4A43F480335362A6
:1029E000BFF34F8F00BFBFF36F8F00BF2C4BDB6C6B
:1029F0002B4A23F00303D364294BD3F8D430284A5D
:102A000043F48053C2F8D430314B1B68304A23F46E
:102A1000004313602E4B1B682D4A23F48073136010
:102A20002B4B1B682A4A23F400231360284B1B6896
:102A3000274A23F4E0231360254B1B68244A23F420
:102A400080431360224B1B68214A43F0400313600C
:102A50001F4B1B681E4A43F0010313601C4B1B688D
:102A60001B4A23F00C031360194B1B68184A43F0F0
:102A700008031360164B1B68154A23F00403136008
:102A8000134B1B68124A23F002031360104B1B68A0
:102A90000F4A23F0300313600D4B1B681AE000BF90
:102AA00000440258000C0258000080A0FFFFBFAF96
:102AB0000000C0F000C000CCFABAFFFFCC00CCC0D0
:102AC000001002580000025800ED00E090ED00E018
:102AD00000400052374A23F400631360354B1B68F3
:102AE000344A23F400531360324B1B68314A23F4F9
:102AF000007313602F4B1B682E4A43F480531360FE
:102B00002C4B1B682B4A23F480131360294B1B6842
:102B1000284A43F000431360264B5B68254A23F0A4
:102B200040535360234B5B68224A43F08053536009
:102B3000204B5B681F4A23F0F00353601D4B5B681A
:102B40001C4A43F0F00353601A4B5B68194A23F0A8
:102B50000F035360174B5B68164A43F0080353603A
:102B6000144B5B68134A23F470235360114B5B686A
:102B7000104A23F4700353600E4B5B680D4A23F434
:102B80007F4353600B4B5B680A4A43F40063536016
:102B9000084B5B68074A23F070635360054B5B6822
:102BA000044A43F07063536000BF0C37BD465DF8C4
:102BB000047B70470040005280B586B002AF786059
:102BC000DB4B1B6832211846FDF75EFE7868FFF785
:102BD00007FCD74B1B6864211846FDF755FE786843
:102BE000FFF7ECFBD24B1B6832211846FDF74CFE79
:102BF0007B6855224FF470411846FFF74DFC7B6807
:102C0000AA224FF201011846FFF746FC7B685222C8
:102C10004FF202011846FFF73FFC7B6808224FF293
:102C200003011846FFF738FC7B6801224FF20401CC
:102C30001846FFF731FC7B6834224FF436411846C2
:102C4000FFF72AFC7B6834224BF201611846FFF73C
:102C500023FC7B6834224BF202611846FFF71CFC10
:102C60007B680D224FF430411846FFF715FC7B6856
:102C70000D224BF201011846FFF70EFC7B680D2276
:102C80004BF202011846FFF707FC7B6824224FF441
:102C900037411846FFF700FC7B6824224BF2017194
:102CA0001846FFF7F9FB7B6824224BF202711846A5
:102CB000FFF7F2FB7B680D224FF431411846FFF716
:102CC000EBFB7B680D224BF201111846FFF7E4FB8A
:102CD0007B680D224BF202111846FFF7DDFB7B6883
:102CE00024224FF438411846FFF7D6FB7B68242294
:102CF0004BF601011846FFF7CFFB7B6824224BF609
:102D000002011846FFF7C8FB7B6800224FF43241EE
:102D10001846FFF7C1FB7B6824224FF4394118465F
:102D2000FFF7BAFB7B6824224BF601111846FFF728
:102D3000B3FB7B6824224BF602111846FFF7ACFB6D
:102D40007B6805224FF433411846FFF7A5FB7B68EB
:102D500005224BF201311846FFF79EFB7B680522E6
:102D60004BF202311846FFF797FB7B6834224FF491
:102D70003A411846FFF790FB7B6834224BF601215D
:102D80001846FFF789FB7B6834224BF60221184670
:102D9000FFF782FB7B680B224FF435411846FFF7A3
:102DA0007BFB7B680B224BF201511846FFF774FB4B
:102DB0007B680B224BF202511846FFF76DFB7B68D4
:102DC00000224FF43C411846FFF766FB7B68A322C4
:102DD0004BF601411846FFF75FFB7B6800224BF67C
:102DE00002411846FFF758FB7B6800224FF43D4133
:102DF0001846FFF751FB7B68A3224BF6015118469A
:102E0000FFF74AFB7B6800224BF602511846FFF79A
:102E100043FB7B6800224FF43E411846FFF73CFB22
:102E20007B6863224BF601611846FFF735FB7B6830
:102E300000224FF451411846FFF72EFB7B683722E2
:102E40004DF201111846FFF727FB7B6800224DF277
:102E500002111846FFF720FB7B6852224DF2031146
:102E60001846FFF719FB7B6800224DF20411184643
:102E7000FFF712FB7B687B224DF205111846FFF726
:102E80000BFB7B6800224DF206111846FFF704FB8E
:102E90007B6899224DF207111846FFF7FDFA7B680F
:102EA00000224DF208111846FFF7F6FA7B68B122AE
:102EB0004DF209111846FFF7EFFA7B6800224DF238
:102EC0000A111846FFF7E8FA7B68D2224DF20B117F
:102ED0001846FFF7E1FA7B6800224DF20C11184604
:102EE000FFF7DAFA7B68F6224DF20D111846FFF76C
:102EF000D3FA7B6801224DF20E111846FFF7CCFA87
:102F00007B6827224DF20F111846FFF7C5FA7B6840
:102F100001224DF210111846FFF7BEFA7B684E22CF
:102F20004DF211111846FFF7B7FA7B68012201E054
:102F3000000000244DF212111846FFF7ADFA7B682D
:102F40008C224DF213111846FFF7A6FA7B68012276
:102F50004DF214111846FFF79FFA7B68BE224DF21E
:102F600015111846FFF798FA7B6802224DF21611E8
:102F70001846FFF791FA7B680B224DF2171118469D
:102F8000FFF78AFA7B6802224DF218111846FFF704
:102F900083FA7B6848224DF219111846FFF77CFA34
:102FA0007B6802224DF21A111846FFF775FA7B680A
:102FB0004A224DF21B111846FFF76EFA7B68022277
:102FC0004DF21C111846FFF767FA7B687E224DF21E
:102FD0001D111846FFF760FA7B6802224DF21E11A0
:102FE0001846FFF759FA7B68BC224DF21F111846AC
:102FF000FFF752FA7B6802224DF220111846FFF7C4
:103000004BFA7B68E1224DF221111846FFF744FA92
:103010007B6803224DF222111846FFF73DFA7B68C8
:1030200010224DF223111846FFF736FA7B6803226F
:103030004DF224111846FFF72FFA7B6831224DF22A
:1030400025111846FFF728FA7B6803224DF2261156
:103050001846FFF721FA7B685A224DF227111846CD
:10306000FFF71AFA7B6803224DF228111846FFF782
:1030700013FA7B6873224DF229111846FFF70CFAF8
:103080007B6803224DF22A111846FFF705FA7B6888
:1030900094224DF22B111846FFF7FEF97B680322AC
:1030A0004DF22C111846FFF7F7F97B689F224DF27D
:1030B0002D111846FFF7F0F97B6803224DF22E110F
:1030C0001846FFF7E9F97B68B3224DF22F11184635
:1030D000FFF7E2F97B6803224DF230111846FFF743
:1030E000DBF97B68B9224DF231111846FFF7D4F9AC
:1030F0007B6803224DF232111846FFF7CDF97B6849
:10310000C1224DF233111846FFF7C6F97B68002241
:103110004FF452411846FFF7BFF97B6837224DF252
:1031200001211846FFF7B8F97B6800224DF2022111
:103130001846FFF7B1F97B6852224DF20321184679
:10314000FFF7AAF97B6800224DF204211846FFF729
:10315000A3F97B687B224DF205211846FFF79CF905
:103160007B6800224DF206211846FFF795F97B682F
:1031700099224DF207211846FFF78EF97B6800224D
:103180004DF208211846FFF787F97B68B1224DF20E
:1031900009211846FFF780F97B6800224DF20A21C9
:1031A0001846FFF779F97B68D2224DF20B211846B9
:1031B000FFF772F97B6800224DF20C211846FFF7E9
:1031C0006BF97B68F6224DF20D211846FFF764F982
:1031D0007B6801224DF20E211846FFF75DF97B68EE
:1031E00027224DF20F211846FFF756F97B6801227E
:1031F0004DF210211846FFF74FF97B684E224DF231
:1032000011211846FFF748F97B6801224DF212217F
:103210001846FFF741F97B688C224DF213211846BE
:10322000FFF73AF97B6801224DF214211846FFF7A7
:1032300033F97B68BE224DF215211846FFF72CF9B1
:103240007B6802224DF216211846FFF725F97B68AC
:103250000B224DF217211846FFF71EF97B68022258
:103260004DF218211846FFF717F97B6848224DF2F6
:1032700019211846FFF710F97B6802224DF21A2136
:103280001846FFF709F97B684A224DF21B211846C0
:10329000FFF702F97B6802224DF21C211846FFF766
:1032A000FBF87B687E224DF21D211846FFF7F4F8EB
:1032B0007B6802224DF21E211846FFF7EDF87B686D
:1032C000BC224DF21F211846FFF7E6F87B68022268
:1032D0004DF220211846FFF7DFF87B68E1224DF21E
:1032E00021211846FFF7D8F87B6803224DF22221EE
:1032F0001846FFF7D1F87B6810224DF223211846BB
:10330000FFF7CAF87B6803224DF224211846FFF725
:10331000C3F87B6831224DF225211846FFF7BCF82F
:103320007B6803224DF226211846FFF7B5F87B682B
:103330005A224DF227211846FFF7AEF87B68032288
:103340004DF228211846FFF7A7F87B6873224DF24B
:1033500029211846FFF7A0F87B6803224DF22A21A5
:103360001846FFF799F87B6894224DF22B211846F6
:10337000FFF792F87B6803224DF22C211846FFF7E5
:103380008BF87B689F224DF22D211846FFF784F8B9
:103390007B6803224DF22E211846FFF77DF87B68EB
:1033A000B3224DF22F211846FFF776F87B680322EF
:1033B0004DF230211846FFF76FF87B68B9224DF2C5
:1033C00031211846FFF768F87B6803224DF232215D
:1033D0001846FFF761F87B68C1224DF23321184689
:1033E000FFF75AF87B6800224FF453411846FFF765
:1033F00053F87B6837224DF201311846FFF74CF83D
:103400007B6800224DF202311846FFF745F87B68D1
:1034100052224DF203311846FFF73EF87B68002236
:103420004DF204311846FFF737F87B687B224DF2E6
:1034300005311846FFF730F87B6800224DF206315F
:103440001846FFF729F87B6899224DF20731184694
:10345000FFF722F87B6800224DF208311846FFF78B
:103460001BF87B68B1224DF209311846FFF714F8BA
:103470007B6800224DF20A311846FFF70DF87B6891
:10348000D2224DF20B311846FFF706F87B68002276
:103490004DF20C311846FEF7FFFF7B68F6224DF225
:1034A0000D311846FEF7F8FF7B6801224DF20E3110
:1034B0001846FEF7F1FF7B6827224DF20F311846C0
:1034C000FEF7EAFF7B6801224DF210311846FEF745
:1034D000E3FF7B684E224DF211311846FEF7DCFF08
:1034E0007B6801224DF212311846FEF7D5FF7B684A
:1034F0008C224DF213311846FEF7CEFF7B68012275
:103500004DF214311846FEF7C7FF7B68BE224DF21C
:1035100015311846FEF7C0FF7B6802224DF21631C6
:103520001846FEF7B9FF7B680B224DF2173118469B
:10353000FEF7B2FF7B6802224DF218311846FEF703
:10354000ABFF7B6848224DF219311846FEF7A4FF05
:103550007B6802224DF21A311846FEF79DFF7B6808
:103560004A224DF21B311846FEF796FF7B68022275
:103570004DF21C311846FEF78FFF7B687E224DF21C
:103580001D311846FEF788FF7B6802224DF21E317E
:103590001846FEF781FF7B68BC224DF21F311846AA
:1035A000FEF77AFF7B6802224DF220311846FEF7C3
:1035B00073FF7B68E1224DF221311846FEF76CFF64
:1035C0007B6803224DF222311846FEF765FF7B68C7
:1035D00010224DF223311846FEF75EFF7B6803226E
:1035E0004DF224311846FEF757FF7B6831224DF229
:1035F00025311846FEF750FF7B6803224DF2263135
:103600001846FEF749FF7B685A224DF227311846CB
:10361000FEF742FF7B6803224DF228311846FEF781
:103620003BFF7B6873224DF229311846FEF734FFC9
:103630007B6803224DF22A311846FEF72DFF7B6886
:1036400094224DF22B311846FEF726FF7B680322A9
:103650004DF22C311846FEF71FFF7B689F224DF27A
:103660002D311846FEF718FF7B6803224DF22E31EC
:103670001846FEF711FF7B68B3224DF22F31184632
:10368000FEF70AFF7B6803224DF230311846FEF741
:1036900003FF7B68B9224DF231311846FEF7FCFE7C
:1036A0007B6803224DF232311846FEF7F5FE7B6847
:1036B000C1224DF233311846FEF7EEFE7B68002240
:1036C0004FF454411846FEF7E7FE7B6837224DF26F
:1036D00001411846FEF7E0FE7B6800224DF20241F0
:1036E0001846FEF7D9FE7B6852224DF20341184678
:1036F000FEF7D2FE7B6800224DF204411846FEF729
:10370000CBFE7B687B224DF205411846FEF7C4FED6
:103710007B6800224DF206411846FEF7BDFE7B682D
:1037200099224DF207411846FEF7B6FE7B6800224B
:103730004DF208411846FEF7AFFE7B68B1224DF20C
:1037400009411846FEF7A8FE7B6800224DF20A41A7
:103750001846FEF7A1FE7B68D2224DF20B411846B7
:10376000FEF79AFE7B6800224DF20C411846FEF7E8
:1037700093FE7B68F6224DF20D411846FEF78CFE53
:103780007B6801224DF20E411846FEF785FE7B68EC
:1037900027224DF20F411846FEF77EFE7B6801227C
:1037A0004DF210411846FEF777FE7B684E224DF22F
:1037B00011411846FEF770FE7B6801224DF212415E
:1037C0001846FEF769FE7B688C224DF213411846BD
:1037D000FEF762FE7B6801224DF214411846FEF7A7
:1037E0005BFE7B68BE224DF215411846FEF754FE83
:1037F0007B6802224DF216411846FEF74DFE7B68AB
:103800000B224DF217411846FEF746FE7B68022256
:103810004DF218411846FEF73FFE7B6848224DF2F4
:1038200019411846FEF738FE7B6802224DF21A4114
:103830001846FEF731FE7B684A224DF21B411846BE
:10384000FEF72AFE7B6802224DF21C411846FEF765
:1038500023FE7B687E224DF21D411846FEF71CFEBA
:103860007B6802224DF21E411846FEF715FE7B686A
:10387000BC224DF21F411846FEF70EFE7B68022265
:103880004DF220411846FEF707FE7B68E1224DF21B
:1038900021411846FEF700FE7B6803224DF22241CB
:1038A0001846FEF7F9FD7B6810224DF223411846B9
:1038B000FEF7F2FD7B6803224DF224411846FEF725
:1038C000EBFD7B6831224DF225411846FEF7E4FD01
:1038D0007B6803224DF226411846FEF7DDFD7B682A
:1038E0005A224DF227411846FEF7D6FD7B68032287
:1038F0004DF228411846FEF7CFFD7B6873224DF24A
:1039000029411846FEF7C8FD7B6803224DF22A4183
:103910001846FEF7C1FD7B6894224DF22B411846F4
:10392000FEF7BAFD7B6803224DF22C411846FEF7E4
:10393000B3FD7B689F224DF22D411846FEF7ACFD8A
:103940007B6803224DF22E411846FEF7A5FD7B68E9
:10395000B3224DF22F411846FEF79EFD7B680322ED
:103960004DF230411846FEF797FD7B68B9224DF2C3
:1039700031411846FEF790FD7B6803224DF232413B
:103980001846FEF789FD7B68C1224DF23341184687
:10399000FEF782FD7B6800224FF455411846FEF782
:1039A0007BFD7B6837224DF201511846FEF774FD0E
:1039B0007B6800224DF202511846FEF76DFD7B68D0
:1039C00052224DF203511846FEF766FD7B68002235
:1039D0004DF204511846FEF75FFD7B687B224DF2E5
:1039E00005511846FEF758FD7B6800224DF206513E
:1039F0001846FEF751FD7B6899224DF20751184693
:103A0000FEF74AFD7B6800224DF208511846FEF78A
:103A100043FD7B68B1224DF209511846FEF73CFD8B
:103A20007B6800224DF20A511846FEF735FD7B688F
:103A3000D2224DF20B511846FEF72EFD7B68002274
:103A40004DF20C511846FEF727FD7B68F6224DF229
:103A50000D511846FEF720FD7B6801224DF20E51F4
:103A60001846FEF719FD7B6827224DF20F511846C4
:103A7000FEF712FD7B6801224DF210511846FEF749
:103A80000BFD7B684E224DF211511846FEF704FDE6
:103A90007B6801224DF212511846FEF7FDFC7B684F
:103AA0008C224DF213511846FEF7F6FC7B6801227A
:103AB0004DF214511846FEF7EFFC7B68BE224DF222
:103AC00015511846FEF7E8FC7B6802224DF21651AC
:103AD0001846FEF7E1FC7B680B224DF217511846A1
:103AE000FEF7DAFC7B6802224DF218511846FEF709
:103AF000D3FC7B6848224DF219511846FEF7CCFCE6
:103B00007B6802224DF21A511846FEF7C5FC7B680D
:103B10004A224DF21B511846FEF7BEFC7B6802227A
:103B20004DF21C511846FEF7B7FC7B687E224DF221
:103B30001D511846FEF7B0FC7B6802224DF21E5163
:103B40001846FEF7A9FC7B68BC224DF21F511846AF
:103B5000FEF7A2FC7B6802224DF220511846FEF7C8
:103B60009BFC7B68E1224DF221511846FEF794FC44
:103B70007B6803224DF222511846FEF78DFC7B68CC
:103B800010224DF223511846FEF786FC7B68032273
:103B90004DF224511846FEF77FFC7B6831224DF22E
:103BA00025511846FEF778FC7B6803224DF226511A
:103BB0001846FEF771FC7B685A224DF227511846D1
:103BC000FEF76AFC7B6803224DF228511846FEF787
:103BD00063FC7B6873224DF229511846FEF75CFCAA
:103BE0007B6803224DF22A511846FEF755FC7B688C
:103BF00094224DF22B511846FEF74EFC7B680322AF
:103C00004DF22C511846FEF747FC7B689F224DF27F
:103C10002D511846FEF740FC7B6803224DF22E51D1
:103C20001846FEF739FC7B68B3224DF22F51184637
:103C3000FEF732FC7B6803224DF230511846FEF746
:103C40002BFC7B68B9224DF231511846FEF724FC5B
:103C50007B6803224DF232511846FEF71DFC7B684B
:103C6000C1224DF233511846FEF716FC7B68002244
:103C70004FF456411846FEF70FFC7B6837224DF291
:103C800001611846FEF708FC7B6800224DF20261D4
:103C90001846FEF701FC7B6852224DF2036118467C
:103CA000FEF7FAFB7B6800224DF204611846FEF72E
:103CB000F3FB7B687B224DF205611846FEF7ECFBB7
:103CC0007B6800224DF206611846FEF7E5FB7B6833
:103CD00099224DF207611846FEF7DEFB7B68002251
:103CE0004DF208611846FEF7D7FB7B68B1224DF212
:103CF00009611846FEF7D0FB7B6800224DF20A618D
:103D00001846FEF7C9FB7B68D2224DF20B611846BC
:103D1000FEF7C2FB7B6800224DF20C611846FEF7ED
:103D2000BBFB7B68F6224DF20D611846FEF7B4FB33
:103D30007B6801224DF20E611846FEF7ADFB7B68F1
:103D400027224DF20F611846FEF7A6FB7B68012281
:103D50004DF210611846FEF79FFB7B684E224DF234
:103D600011611846FEF798FB7B6801224DF2126143
:103D70001846FEF791FB7B688C224DF213611846C2
:103D8000FEF78AFB7B6801224DF214611846FEF7AC
:103D900083FB7B68BE224DF215611846FEF77CFB63
:103DA0007B6802224DF216611846FEF775FB7B68B0
:103DB0000B224DF217611846FEF76EFB7B6802225C
:103DC0004DF218611846FEF767FB7B6848224DF2FA
:103DD00019611846FEF760FB7B6802224DF21A61FA
:103DE0001846FEF759FB7B684A224DF21B611846C4
:103DF000FEF752FB7B6802224DF21C611846FEF76B
:103E00004BFB7B687E224DF21D611846FEF744FB9A
:103E10007B6802224DF21E611846FEF73DFB7B686F
:103E2000BC224DF21F611846FEF736FB7B6802226A
:103E30004DF220611846FEF72FFB7B68E1224DF220
:103E400021611846FEF728FB7B6803224DF22261B0
:103E50001846FEF721FB7B6810224DF223611846BD
:103E6000FEF71AFB7B6803224DF224611846FEF729
:103E700013FB7B6831224DF225611846FEF70CFBDF
:103E80007B6803224DF226611846FEF705FB7B682E
:103E90005A224DF227611846FEF7FEFA7B6803228C
:103EA0004DF228611846FEF7F7FA7B6873224DF24F
:103EB00029611846FEF7F0FA7B6803224DF22A6169
:103EC0001846FEF7E9FA7B6894224DF22B611846FA
:103ED000FEF7E2FA7B6803224DF22C611846FEF7EA
:103EE000DBFA7B689F224DF22D611846FEF7D4FA6B
:103EF0007B6803224DF22E611846FEF7CDFA7B68EF
:103F0000B3224DF22F611846FEF7C6FA7B680322F2
:103F10004DF230611846FEF7BFFA7B68B9224DF2C8
:103F200031611846FEF7B8FA7B6803224DF2326120
:103F30001846FEF7B1FA7B68C1224DF2336118468C
:103F4000FEF7AAFA7B6855224FF470411846FEF737
:103F5000A3FA7B68AA224FF201011846FEF79CFAE9
:103F60007B6852224FF202011846FEF795FA7B68F1
:103F700008224FF203011846FEF78EFA7B680022F2
:103F80004FF204011846FEF787FA7B6808224FF4C7
:103F900030411846FEF780FA7B6805224BF201019A
:103FA0001846FEF779FA7B6802224BF202011846A6
:103FB000FEF772FA7B6805224BF203011846FEF702
:103FC0006BFA7B6802224BF204011846FEF764FA92
:103FD0007B6800224FF437411846FEF75DFA7B6894
:103FE00000224BF201711846FEF756FA7B68012257
:103FF0004FF438411846FEF74FFA7B6805224BF61E
:1040000001011846FEF748FA7B6805224BF60201CB
:104010001846FEF741FA7B6805224BF60301184665
:10402000FEF73AFA7B6800224FF43C411846FEF74F
:1040300033FA7B6800224BF601411846FEF72CFA52
:104040007B6800224BF602411846FEF725FA7B6892
:1040500003224FF44C411846FEF71EFA7B680022FB
:104060004CF601411846FEF717FA7B6800224CF621
:1040700002411846FEF710FA7B6801224FF43D41D9
:104080001846FEF709FA7B6884224BF60151184660
:10409000FEF702FA7B6807224BF602511846FEF73C
:1040A000FBF97B6831224BF603511846FEF7F4F911
:1040B0007B6800224BF604511846FEF7EDF97B6849
:1040C00001224FF43A411846FEF7E6F97B68AA222E
:1040D0004FF47F411846FEF7DFF97B6855224FF613
:1040E00001711846FEF7D8F97B6825224FF6027158
:1040F0001846FEF7D1F97B6801224FF60371184686
:10410000FEF7CAF97B6808224FF436411846FEF7DD
:10411000C3F97B6850224FF435411846FEF7BCF9CD
:104120003B4B1B6801211846FCF7AEFB7B68002265
:104130004FF454511846FEF7AFF97B68A0224FF4B4
:1041400058511846FEF7A8F97B6855224FF468517C
:104150001846FEF7A1F92E4B1B6801211846FCF703
:1041600093FB7B6800224FF488511846FEF794F9C0
:104170007B6800224FF498511846FEF78DF9244BC6
:104180001B6878211846FCF77FFB214B1B686421D4
:104190001846FCF779FB1E4B1B680A211846FCF7F2
:1041A00073FB7B6800224FF424511846FEF774F924
:1041B000174B1B6864211846FCF766FB78684FF4C0
:1041C000F07300934FF4487300220021FEF7BEF90C
:1041D0000F4B1B6801211846FCF756FB7B684FF418
:1041E00030511846FEF740F90023FB60FB68094A8E
:1041F000934208DC7B68FF211846FEF71DF9FB6837
:104200000133FB60F2E700BF1037BD4680BD00BF41
:104210000000002400DC050080B584B000AFF86029
:10422000084611461A4603467B810B463B811346DE
:10423000FB80FB683A8911461846FEF76BF9FB686C
:104240007A8911461846FEF749F9FB684FF4305158
:104250001846FEF709F9FB68FA8811461846FEF77A
:10426000EBF800BF1037BD4680BD000090B589B0A7
:1042700002AFF860084611461A4603467B810B469A
:104280003B811346FB80F868FC883A8979893B8D2D
:1042900000932346FEF75AF9144B1B680121184678
:1042A000FCF7F2FAFB684FF430511846FEF7DCF8E1
:1042B00000237B61FA887B89D31A0133398D3A89CF
:1042C0008A1A013202FB03F37A699A4209DAFB681F
:1042D000BA8D11461846FEF7AFF87B6901337B6152
:1042E000E8E700BF1C37BD4690BD00BF00000024BA
:1042F00080B582B000AF78607B681846FEF78FF813
:10430000064BD3F88830054A43F47003C2F888306E
:104310007B6818460837BD4680BD00BF00ED00E051
:10432000B0B586B002AFF860084611461A4603469B
:104330007B810B463B811346FB80F8687A89FB88BA
:1043400013449DB23A893B8C13449BB23C897989D2
:10435000BA8C019200932B462246FFF787FF00BFDD
:104360001037BD46B0BDB0B586B002AFF8600846A4
:1043700011461A4603467B810B463B811346FB8060
:10438000F8687A893B8C13449DB23A89FB881344C0
:104390009BB23C897989BA8C019200932B462246C4
:1043A000FFF764FF00BF1037BD46B0BD90B587B0C2
:1043B00002AFF860084611461A4603467B810B4659
:1043C0003B811346FB80FA887B89D31A9CB2BB8C55
:1043D0005B089BB2388979893A8D01920093234614
:1043E0000246F868FFF79CFFBB8C5B089BB23A8CD7
:1043F000D31A98B2FA887B89D31A9CB2BB8C5B081B
:104400009BB279893A8D0192009323460246F8685F
:10441000FFF786FF3A8C3B89D31A9CB2BB8C5B08B2
:104420009BB2388979893A8D0192009323460246DE
:10443000F868FFF798FFBB8C5B089BB2FA88D31A29
:1044400099B23A8C3B89D31A9CB2BB8C5B089BB265
:1044500038893A8D0192009323460246F868FFF7A7
:1044600082FF00BF1437BD4690BD90B587B000AF46
:10447000F860084611461A4603467B810B463B818D
:104480001346FB80FA887B89D31AF9887A898A1ABD
:1044900002FB03F2398D3B89CB1A388D3989411AD9
:1044A00001FB03F3134407EE903AF8EEE77AB0EE1F
:1044B000670A3CF053FB87ED040A0023FB82FB8A6A
:1044C000D7ED047AFCEEE77A17EE902A93423CD2BD
:1044D000F8687B8907EE903AB8EEE77AFB8AF988AC
:1044E0007A898A1A02FB03F307EE903AB8EEE76A7C
:1044F000D7ED046AC6EE267A77EE277AFCEEE77AE5
:1045000017EE903A9CB23B8907EE903AB8EEE77A04
:10451000FB8A398D3A898A1A02FB03F307EE903A37
:10452000B8EEE76AD7ED046AC6EE267A77EE277A08
:10453000FCEEE77A17EE903A9AB2BB8D2146FFF770
:104540006BFEFB8A0133FB82B9E700BF1C37BD4617
:1045500090BD90B58BB002AFF860084611461A4680
:1045600003467B810B463B811346FB80FA887B899F
:10457000D31AF9887A898A1A02FB03F2398E3B89A9
:10458000CB1A388E3989411A01FB03F3134407EE25
:10459000903AF8EEE77AB0EE670A3CF0DFFA87ED82
:1045A000050AFA887B89D31A9BB27B823A8E3B89B3
:1045B000D31A9BB23B820023FB830023BB830023DF
:1045C000BB61BB8EBA699A4280F2BA80B7F91230E9
:1045D000002B30DBBB6907EE903AB8EEE77AB7F90B
:1045E000103007EE903AB8EEE76AD7ED056AC6EEEE
:1045F000267A67EE277AFDEEE77A17EE903A1BB23D
:104600009BB25B429BB2FB83BB6907EE903AB8EE6C
:10461000E77AB7F9123007EE903AB8EEE76AD7EDCD
:10462000056AC6EE267A67EE277AFDEEE77A17EE80
:10463000903ABB8330E0BB6907EE903AB8EEE77A78
:10464000B7F9123007EE903AB8EEE76AD7ED056A8F
:10465000C6EE267A67EE277AFDEEE77A17EE903AF5
:104660001BB2002BB8BF5B429BB2BB83BB6907EE9A
:10467000903AB8EEE77AB7F9103007EE903AB8EE14
:10468000E76AD7ED056AC6EE267A67EE277AFDEE71
:10469000E77A17EE903AFB83FA8B7B89134499B241
:1046A000BA8B3B89134498B2FA8BFB8813449CB2B3
:1046B000BA8B3B8E13449BB23A8F019200932346F0
:1046C0000246F868FFF7D1FEFA8B7B8913449BB250
:1046D000013399B2BA8B3B89134498B2FA8BFB88A9
:1046E00013449BB201339CB2BA8B3B8E13449BB2F2
:1046F0003A8F0192009323460246F868FFF7B5FE11
:10470000FA8B7B89134499B2BA8B3B8913449BB2D1
:10471000013398B2FA8BFB8813449CB2BA8B3B8E60
:1047200013449BB201339BB23A8F0192009323460C
:104730000246F868FFF799FEBB690133BB6140E7A9
:1047400000BF2437BD4690BD80B58AB000AFF86089
:104750000846114687ED010A1A4603467B810B463F
:104760003B8113467B80B7EE007AD7ED017A77EE76
:10477000677AFDEEE77A17EE903A7B6201233B629F
:10478000D7ED017AB8EE007A67EE877AFDEEE77A28
:1047900017EE903AFB610023BB61D7ED017AFDEE85
:1047A000E77A17EE903A7B61F8683B8907EE903A1A
:1047B000B8EEE77AD7ED017A77EE277AFCEEE77A62
:1047C00017EE903A9AB27B887989FFF725FDF86851
:1047D0003B8907EE903AB8EEE77AD7ED017A77EEAB
:1047E000677AFCEEE77A17EE903A9AB27B8879897D
:1047F000FFF712FDF8687B8907EE903AB8EEE77A8A
:10480000D7ED017A77EE277AFCEEE77A17EE903A49
:1048100099B27B883A89FFF7FFFCF8687B8907EE3D
:10482000903AB8EEE77AD7ED017A77EE677AFCEE48
:10483000E77A17EE903A99B27B883A89FFF7ECFC59
:10484000BA697B699A4280F288807B6A002B09DB17
:104850007B69013B7B61FB690233FB617A6AFB691F
:1048600013447B62BB690133BB613B6A02333B6229
:104870007A6A3B6A13447B62F868BB699AB27B89A7
:10488000134499B27B699AB23B8913449AB27B88EC
:10489000FFF7C2FCF868BB699BB27A89D31A99B258
:1048A0007B699AB23B8913449AB27B88FFF7B4FCC8
:1048B000F868BB699AB27B89134499B27B699BB251
:1048C0003A89D31A9AB27B88FFF7A6FCF868BB69CD
:1048D0009BB27A89D31A99B27B699BB23A89D31A6F
:1048E0009AB27B88FFF798FCF8687B699AB27B895B
:1048F000134499B2BB699AB23B8913449AB27B883C
:10490000FFF78AFCF8687B699BB27A89D31A99B25F
:10491000BB699AB23B8913449AB27B88FFF77CFC4F
:10492000F8687B699AB27B89134499B2BB699BB2E0
:104930003A89D31A9AB27B88FFF76EFCF8687B69D4
:104940009BB27A89D31A99B2BB699BB23A89D31ABE
:104950009AB27B88FFF760FC72E700BF2837BD463C
:1049600080BD80B586B000AFF8600846114687ED7F
:10497000010A1A4603467B810B463B8113467B8026
:1049800000237B617B887A699A424FDA7B6907EE64
:10499000903AF8EEE77A97ED017A77EE677A3B8CFA
:1049A0003A897989B0EE670AF868FFF7CDFE7B890E
:1049B000013B99B23B89013B9AB27B6907EE903A81
:1049C000F8EEE77A97ED017A77EE677A3B8CB0EEF6
:1049D000670AF868FFF7B8FE3B89013B9AB27B692A
:1049E00007EE903AF8EEE77A97ED017A77EE677A7C
:1049F0003B8C7989B0EE670AF868FFF7A5FE7B89E2
:104A0000013B99B27B6907EE903AF8EEE77A97EDB1
:104A1000017A77EE677A3B8C3A89B0EE670AF868DC
:104A2000FFF792FE7B6901337B61ABE700BF18376C
:104A3000BD4680BDB0B52DED028B86B000AFF860ED
:104A40000846114687ED010A1A4603467B810B464C
:104A50003B8113467B800023FB82FB8A07EE903A62
:104A6000B8EEE77AD7ED017A77EEA77AB4EEE77A77
:104A7000F1EE10FA00D9E9E0FC687A89FB8A134468
:104A80009DB23B8907EE903AB8EEE78AD7ED017AFE
:104A900027EEA77AFB8A07EE903AF8EEE76AD7EDA1
:104AA000017A76EEE76AFB8A07EE903AB8EEE76A9B
:104AB000D7ED017A76EE677A66EEA77A77EE677AB7
:104AC000B0EE670A3CF04AF8F0EE407A38EE277A0A
:104AD000D7ED017A77EE277AFCEEE77A17EE903A77
:104AE0009AB27B8829462046FFF796FBFC687A89B4
:104AF000FB8A13449DB23B8907EE903AB8EEE78AF1
:104B0000D7ED017A27EEA77AFB8A07EE903AF8EE06
:104B1000E76AD7ED017A76EEE76AFB8A07EE903A0C
:104B2000B8EEE76AD7ED017A76EE677A66EEA77A95
:104B300077EE677AB0EE670A3CF010F8F0EE407A54
:104B400038EE677AD7ED017A77EE277AFCEEE77ACE
:104B500017EE903A9AB27B8829462046FFF75CFB15
:104B6000FC687B8907EE903AB8EEE78AD7ED017AC8
:104B700027EEA77AFB8A07EE903AF8EEE76AD7EDC0
:104B8000017A76EEE76AFB8A07EE903AB8EEE76ABA
:104B9000D7ED017A76EE677A66EEA77A77EE677AD6
:104BA000B0EE670A3BF0DAFFF0EE407A38EE277A93
:104BB000D7ED017A77EE277AFCEEE77A17EE903A96
:104BC00099B23A89FB8A13449AB27B882046FFF750
:104BD00023FBFC687B8907EE903AB8EEE78AD7EDB5
:104BE000017A27EEA77AFB8A07EE903AF8EEE76A99
:104BF000D7ED017A76EEE76AFB8A07EE903AB8EED7
:104C0000E76AD7ED017A76EE677A66EEA77A77EEF5
:104C1000677AB0EE670A3BF0A1FFF0EE407A38EE1B
:104C2000677AD7ED017A77EE277AFCEEE77A17EE0E
:104C3000903A99B23A89FB8A13449AB27B8820460B
:104C4000FFF7EAFAFB8A0133FB8206E71837BD4615
:104C5000BDEC028BB0BD80B586B000AFF8600846F1
:104C6000114687ED010A1A4603467B810B463B81BC
:104C700013467B8000237B617B887A699A4252DAF3
:104C80007B699AB27B89134499B27B699AB23B895A
:104C900013449AB27B6907EE903AF8EEE77A97ED03
:104CA000017A77EE677A3B8CB0EE670AF868FFF717
:104CB000C1FE7B699AB27B8913449BB2013399B2DE
:104CC0007B699AB23B8913449AB27B6907EE903AAA
:104CD000F8EEE77A97ED017A77EE677A3B8CB0EEE3
:104CE000670AF868FFF7A6FE7B699AB27B891344CE
:104CF00099B27B699AB23B8913449BB201339AB251
:104D00007B6907EE903AF8EEE77A97ED017A77EE55
:104D1000677A3B8CB0EE670AF868FFF78BFE7B6919
:104D200001337B61A8E700BF1837BD4680BD000096
:104D300090B58BB004AFF860084611461A4603469A
:104D40007B810B463B811346FB803B8D07EE903AFF
:104D5000F8EE677A9FED437A67EE877ADFED426A75
:104D600087EEA67AB0EE470AFDF7E8FA87ED050A66
:104D70003B8D07EE903AF8EE677A9FED3A7A67EE50
:104D8000877ADFED396A87EEA67AB0EE470AFDF73B
:104D9000E5FA87ED040A7B8907EE903AB8EEE77AE8
:104DA000FA883B8ED31A07EE903AF8EEE76AD7ED11
:104DB000057A66EEA77A77EE277AFCEEE77A17EEA9
:104DC000903A99B23B8907EE903AB8EEE77AFA88C2
:104DD0003B8ED31A07EE903AF8EEE76AD7ED047AE5
:104DE00066EEA77A77EE277AFCEEE77A17EE903A2E
:104DF00098B27B8907EE903AB8EEE77AFB8807EE27
:104E0000903AF8EEE76AD7ED057A66EEA77A77EE84
:104E1000277AFCEEE77A17EE903A9CB23B8907EED0
:104E2000903AB8EEE77AFB8807EE903AF8EEE76A38
:104E3000D7ED047A66EEA77A77EE277AFCEEE77A6A
:104E400017EE903A9BB2BA8E0292BA8D01920093FD
:104E500023460246F868FFF77CFB00BF1C37BD46BF
:104E600090BD00BFDB0F49400000344380B586B0E1
:104E700002AFF860084611461A4603467B810B468E
:104E80003B811346FB80F8883A897989BB8C019372
:104E90003B8B00930346F868FFF7E7FAB88B3A8B31
:104EA000F988BB8C01933B8C00930346F868FFF7AD
:104EB000DCFA78893A8CB98BBB8C01933B890093DF
:104EC0000346F868FFF7D1FA00BF1037BD4680BD32
:104ED00090B593B002AFF860084611461A460346F3
:104EE0007B810B463B811346FB80FA887B89D31A72
:104EF000F9887A898A1A02FB03F2B7F850103B89C5
:104F0000CB1AB7F850003989411A01FB03F3134457
:104F100007EE903AF8EEE77AB0EE670A3BF01EFE35
:104F200087ED0C0AB7F85420FB88D31AB7F8541051
:104F3000FA888A1A02FB03F2B7F85810B7F8503013
:104F4000CB1AB7F85800B7F85010411A01FB03F319
:104F5000134407EE903AF8EEE77AB0EE670A3BF0BA
:104F6000FDFD87ED0B0AB7F854207B89D31AB7F8FB
:104F700054107A898A1A02FB03F2B7F858103B8959
:104F8000CB1AB7F858003989411A01FB03F31344CF
:104F900007EE903AF8EEE77AB0EE670A3BF0DEFDF6
:104FA00087ED0A0AB7F85420FB88D31A07EE903A27
:104FB000F8EEE76A97ED0B7AC6EE877AC7ED097AC5
:104FC000B7F85820B7F85030D31A07EE903AF8EEF9
:104FD000E76A97ED0B7AC6EE877AC7ED087A7A8989
:104FE000B7F85430D31A07EE903AF8EEE76A97ED27
:104FF0000A7AC6EE877AC7ED077A3A89B7F8583049
:10500000D31A07EE903AF8EEE76A97ED0A7AC6EE01
:10501000877AC7ED067AFA887B89D31A07EE903A29
:10502000F8EEE76A97ED0C7AC6EE877AC7ED057A57
:10503000B7F850203B89D31A07EE903AF8EEE76AAA
:1050400097ED0C7AC6EE877AC7ED047A0023FB63EE
:10505000FB6B07EE903AF8EEE77A97ED0B7AB4EE39
:10506000E77AF1EE10FA39DBFB8807EE903AB8EEFA
:10507000E77AFB6B07EE903AF8EEE76AD7ED097A2C
:1050800066EEA77A77EE277AFCEEE77A17EE903A8B
:105090009CB2B7F8503007EE903AB8EEE77AFB6B67
:1050A00007EE903AF8EEE76AD7ED087A66EEA77A4F
:1050B00077EE277AFCEEE77A17EE903A9BB23889C2
:1050C0007989B7F85C200192009323460246F8687C
:1050D000FFF7CBF9FB6B0133FB63B9E70023BB633D
:1050E000BB6B07EE903AF8EEE77A97ED0A7AB4EEEA
:1050F000E77AF1EE10FA3BDBB7F8543007EE903A5E
:10510000B8EEE77ABB6B07EE903AF8EEE76AD7EDB8
:10511000077A66EEA77A77EE277AFCEEE77A17EE43
:10512000903A9CB2B7F8583007EE903AB8EEE77A6A
:10513000BB6B07EE903AF8EEE76AD7ED067A66EEBB
:10514000A77A77EE277AFCEEE77A17EE903A9BB2D1
:10515000B7F85000F988B7F85C2001920093234615
:105160000246F868FFF781F9BB6B0133BB63B7E711
:1051700000237B637B6B07EE903AF8EEE77A97EDBE
:105180000C7AB4EEE77AF1EE10FA00DA3AE07B89B5
:1051900007EE903AB8EEE77A7B6B07EE903AF8EEBE
:1051A000E76AD7ED057A66EEA77A77EE277AFCEE06
:1051B000E77A17EE903A9CB23B8907EE903AB8EE48
:1051C000E77A7B6B07EE903AF8EEE76AD7ED047A60
:1051D00066EEA77A77EE277AFCEEE77A17EE903A3A
:1051E0009BB2B7F85800B7F85410B7F85C2001929A
:1051F000009323460246F868FFF737F97B6B0133CB
:105200007B63B7E74437BD4690BD000080B586B0EC
:1052100004AF78604FF47F4302930323019332235A
:10522000009332230A220A217868FFF7BFF84FF66D
:10523000A0730293012301933323009333230922A4
:1052400009217868FFF7B2F81F23009364239FEDCC
:105250002F0AF022C8217868FFF783FB1F230093F1
:1052600064239FED2A0A8C224FF4FA717868FFF7C5
:10527000F2FC0023009332239FED250A4FF48C7239
:10528000C8217868FFF76DFB0023009332239FED60
:10529000200A4FF48C724FF416717868FFF761FBA7
:1052A00044F20823029332230193002300934FF426
:1052B0002F7364224FF4FA717868FFF74AF944F2C9
:1052C0000823029332230193642300934FF49673CF
:1052D000002264217868FFF73CF94FF6100303932E
:1052E0004FF4E17302934FF4AF7301934FF4C8731B
:1052F00000934FF4C8734FF4E1724FF4C8717868AB
:10530000FFF7E6FD00BF0837BD4680BD0000C8427C
:105310000000484280B584B000AF78600B467B80C7
:1053200013463B807B681846FDF728F87B684FF6EC
:10533000FF725A857B6800229A857B682E33002293
:105340001A605A609A60DA601A617B684233002200
:105350001A605A609A60DA601A617B68002283F8EA
:1053600056207B687A885A857B683A889A851D4BD7
:10537000BB600023FB60FB6842F6EF52934224DCE3
:10538000FB685B00BA6813441A88174B1B889A4263
:1053900007D1FB685B00BA6813447A68528D1A80A3
:1053A0000FE0FB685B00BA6813441A880F4B1B8838
:1053B0009A4206D1FB685B00BA6813447A68928D02
:1053C0001A80FB680133FB60D5E77B685A8D064B7A
:1053D0001A807B689A8D054B1A807B6818461037B7
:1053E000BD4680BDB4FC032400800020B0FC032433
:1053F00080B485B000AF78600B467B8013463B805D
:105400001B4BBB600023FB60FB6842F6EF529342EC
:1054100022DCFB685B00BA6813441A88154B1B88B2
:105420009A4206D1FB685B00BA6813447A881A80F6
:105430000EE0FB685B00BA6813441A880E4B1B88A9
:105440009A4205D1FB685B00BA6813443A881A8017
:10545000FB680133FB60D7E7064A7B881380064A66
:105460003B88138000BF1437BD465DF8047B70474E
:10547000B4FC032400800020B0FC032490B589B064
:1054800002AFF860084611461A4603467B810B4678
:105490003B811346FB71FB791946F86800F050F820
:1054A0003861F8687B891B339CB23B891D339BB202
:1054B0003A89798900932346FDF748F8FB684FF451
:1054C00030511846FCF7D0FF00237B617B69B3F5B0
:1054D000527F0CDAF8687B695B003A6913441B88D9
:1054E0001946FCF7A9FF7B6901337B61EEE700BF3A
:1054F0001C37BD4690BD80B586B000AFF8607B60BC
:105500000B467B8113463B810023FB827B681B7823
:10551000002B10D07A89FB8A134499B27B681B78E0
:105520003A89F868FFF7AAFFFB8A1C33FB827B6885
:1055300001337B60EAE700BF1837BD4680BD00003D
:1055400080B483B000AF78600B46FB70FB78302BE3
:1055500001D1224B3CE0FB78312B01D1204B37E0CD
:10556000FB78322B01D11F4B32E0FB78332B01D17A
:105570001D4B2DE0FB78342B01D11C4B28E0FB7830
:10558000352B01D11A4B23E0FB78362B01D1194B77
:105590001EE0FB78372B01D1174B19E0FB78382B35
:1055A00001D1164B14E0FB78392B01D1144B0FE0DD
:1055B000FB782E2B01D1134B0AE0FB783A2B01D15B
:1055C000114B05E0FB78202B01D1104B00E00023AC
:1055D00018460C37BD465DF8047B70476410042400
:1055E000F4160424841D042414240424A42A04246A
:1055F00034310424C4370424543E0424E4440424F1
:10560000744B04244403042404520424B4FC0324EF
:1056100080B52DED028B86B000AFF860B9601346FF
:10562000FB710023FB74FA7CFB799A4271D2002350
:10563000BB74FB7CBA6813441B78302B01D1002368
:10564000BB74FB7CBA6813441B78312B01D1012356
:10565000BB74FB7CBA6813441B78322B01D1022344
:10566000BB74FB7CBA6813441B78332B01D1032332
:10567000BB74FB7CBA6813441B78342B01D1042320
:10568000BB74FB7CBA6813441B78352B01D105230E
:10569000BB74FB7CBA6813441B78362B01D10623FC
:1056A000BB74FB7CBA6813441B78372B01D10723EA
:1056B000BB74FB7CBA6813441B78382B01D10823D8
:1056C000BB74FB7CBA6813441B78392B01D10923C6
:1056D000BB74BB7C07EE903AB8EEE78BFA79FB7CA3
:1056E000D31A19460A2000F059F8B0EE407B28EE94
:1056F000076B7B6907EE903AB8EE677B36EE077B67
:10570000FCEEC77B17EE903A7B61FB7C0133FB74A8
:1057100089E77B6918461837BD46BDEC028B80BD12
:1057200080B586B000AFF8607B600B467B81134686
:105730003B810023FB750023BB827B681B78002B19
:1057400013D07A89BB8A134499B27B681B783A8953
:10575000F868FFF793FEBB8A1C33BB827B6801337A
:105760007B60FB7D0133FB75E7E7FA7D97F820301E
:105770009A420FD27A89BB8A134499B23A8920237C
:10578000F868FFF77BFEBB8A1C33BB82FB7D0133CD
:10579000FB75EAE700BF1837BD4680BD80B582B013
:1057A00000AF786039607B6807EE903AB8EEE77B2F
:1057B0003B6806EE903AB8EEE66BB0EE461BB0EEF4
:1057C000470B3AF059FDB0EE407BB0EE470B08377F
:1057D000BD4680BD80B483B000AF786039607B681F
:1057E000012B5DF02A813B684FF6FF7293425DF01A
:1057F00024818F4B1A888F4B1A808D4B1A888D4BC2
:105800005A808B4B1A888B4B9A80894B1A88894B0C
:10581000DA80874B1A88874B1A81854B1A88854B0B
:105820005A81834B1A88834B9A81814B1A88814B0A
:10583000DA817F4B1A887F4B1A827D4B1A887D4B09
:105840005A827B4B1A887B4B9A82794B1A88794B08
:10585000DA82774B1A88774B1A83754B1A88754B07
:105860005A83734B1A88734B9A83714B1A88714B06
:10587000DA836F4B1A886F4B1A846D4B1A886D4B05
:105880005A846B4B1A886B4B9A84694B1A88694B04
:10589000DA84674B1A88674B1A85654B1A88654B03
:1058A0005A85634B1A88634B9A85614B1A88614B02
:1058B000DA855F4B1A885F4B1A865D4B1A885D4B01
:1058C0005A865B4B1A885B4B9A86594B1A88594B00
:1058D000DA86574B1A88574B1A87554B1A88554BFF
:1058E0005A87534B1A88534B9A87514B1A88514BFE
:1058F000DA874F4B1A884F4BA3F840204C4B1A883D
:105900004C4BA3F842204A4B1A884A4BA3F8442038
:10591000474B1A88474BA3F84620454B1A88454BFE
:10592000A3F84820424B1A88424BA3F84A20404B28
:105930001A88404BA3F84C203D4B1A883D4BA3F8E6
:105940004E203B4B1A883B4BA3F85020384B1A880B
:10595000384BA3F85220364B1A88364BA3F8542004
:10596000334B1A88334BA3F85620314B1A88314BEE
:10597000A3F858202E4B1A882E4BA3F85A202C4BF4
:105980001A882C4BA3F85C20294B1A88294BA3F8C2
:105990005E20274B1A88274BA3F86020244B1A88D7
:1059A000244BA3F86220224B1A88224BA3F86420D0
:1059B0001F4B1A881F4BA3F866201D4B1A881D4BDE
:1059C000A3F868201A4B1A881A4BA3F86A20184BC0
:1059D0001A88184BA3F86C20154B1A88154BA3F89E
:1059E0006E20134B1A88134BA3F87020104B1A88A3
:1059F000104BA3F872200E4B1A880E4BA3F874209C
:105A00000B4B1A880B4BA3F87620094B1A88094BCD
:105A1000A3F87820064B1A88064BA3F87A20044B8B
:105A20001A88044BA3F87C20014B1A8804E000BFBD
:105A300002800020B4FC03249F4BA3F87E209F4BE0
:105A40001A889D4BA3F880209C4B1A889A4BA3F888
:105A500082209A4B1A88984BA3F88420974B1A8877
:105A6000954BA3F88620954B1A88934BA3F8882072
:105A7000924B1A88904BA3F88A20904B1A888E4B31
:105A8000A3F88C208D4B1A888B4BA3F88E208B4B60
:105A90001A88894BA3F89020884B1A88864BA3F864
:105AA0009220864B1A88844BA3F89420834B1A8843
:105AB000814BA3F89620814B1A887F4BA3F898203E
:105AC0007E4B1A887C4BA3F89A207C4B1A887A4B21
:105AD000A3F89C20794B1A88774BA3F89E20774B2C
