:020000040800F2
:100000000008002069030008B3030008B9030008D2
:10001000AD030008AD030008AD03000800000000B8
:10002000000000000000000000000000AD03000818
:10003000AD03000800000000AD030008AD03000898
:10004000AD030008AD030008AD030008AD030008D0
:10005000AD030008AD030008AD030008AD030008C0
:10006000AD03000811060008AD030008AD03000849
:10007000AD030008AD030008AD030008AD030008A0
:10008000AD030008AD030008AD030008AD03000890
:10009000AD030008AD030008AD030008AD03000880
:1000A000AD030008AD030008AD030008AD03000870
:1000B000D9040008AD030008AD030008AD03000833
:1000C000AD030008AD030008AD030008AD03000850
:1000D000AD030008AD030008AD030008AD03000840
:1000E000AD030008AD03000800000000AD030008E8
:1000F000AD030008AD030008AD030008AD03000820
:10010000AD030008AD030008AD030008AD0300080F
:10011000AD030008AD030008AD030008AD030008FF
:10012000AD030008AD030008AD030008AD030008EF
:10013000AD030008AD030008AD030008AD030008DF
:1001400000000000000000000000000000000000AF
:10015000AD030008AD030008AD030008AD030008BF
:10016000AD030008AD030008AD030008AD030008AF
:10017000AD030008AD030008AD0300080000000057
:10018000AD030008AD030008AD030008AD0300088F
:10019000AD030008AD030008AD030008AD0300087F
:1001A000AD030008AD030008AD030008AD0300086F
:1001B000AD030008AD030008AD030008AD0300085F
:1001C000AD030008AD030008AD030008AD0300084F
:1001D000AD030008AD030008AD030008AD0300083F
:1001E000AD030008AD030008AD030008AD0300082F
:1001F000AD030008AD030008AD030008AD0300081F
:10020000AD030008AD030008AD030008AD0300080E
:10021000AD030008AD030008AD030008AD030008FE
:10022000AD030008AD030008AD03000800000000A6
:10023000AD030008AD03000800000000AD03000896
:10024000AD030008AD030008AD030008AD030008CE
:10025000AD030008AD030008AD030008AD030008BE
:10026000AD030008AD030008AD030008AD030008AE
:10027000AD030008AD030008AD0300080000000056
:10028000AD030008AD030008AD0300080000000046
:1002900000000000AD03000880B400AF00BFBD4601
:1002A00080BC704780B400AF00BFBD4680BC7047C3
:1002B00080B582B000AF174A174BD31A9B103B6032
:1002C00000237B607A683B689A4208DA124A7B68AE
:1002D00052F8233098477B6801337B60F2E7FFF7E1
:1002E000DBFF0E4A0E4BD31A9B103B6000237B6052
:1002F0007A683B689A4208DA094A7B6852F82330E8
:1003000098477B6801337B60F2E700BF0837BD4642
:1003100080BD00BF000000002C0700082C0700086B
:100320002C07000880B582B000AF0D4A0D4BD31AE0
:100330009B103B603B687B607B68002B09DD7B6822
:10034000013B084A52F8233098477B68013B7B60A9
:10035000F2E7FFF7A7FF00BF0837BD4680BD00BF2B
:100360002C0700082C07000872B60B4C0B4D0C4BE9
:100370009D4204D023682B6004340435F7E7094C10
:10038000094B9C4203D0002323600434F8E7FFF7B5
:100390008FFF00F09AF900BF2C070008000800202A
:1003A00000080020000800200808002080B400AFEA
:1003B000FEE780B400AFFEE780B483B000AF002357
:1003C0007B607B68034A9342F9DA7B6801337B6088
:1003D000F7E700BFC030460080B483B000AF0346EB
:1003E000FB80B7F90630002B0BDBFB8803F01F0204
:1003F0000649B7F906305B09012000FA02F241F81C
:10040000232000BF0C37BD4680BC704700E100E0F0
:1004100080B582B000AF78600B46FB701346BB70AE
:100420007B6800221A70BA78FB781946786800F069
:100430000BF8044A7B6813607B6818460837BD4692
:1004400080BD00BF0008002080B582B000AF78609A
:100450000B46FB701346BB70FB78022B34D11D4B4F
:10046000D3F8E8301B4A43F00103C2F8E830BB7808
:10047000002B02D0012B09D012E04FF0804318224C
:100480009A624FF080430922DA6209E04FF080431C
:10049000F0229A624FF0804340F2E732DA6200BF06
:1004A0004FF08043DB684FF0804243F00103D3609C
:1004B0004FF080431B684FF0804243F0010313600C
:1004C0001C20FFF789FF00E000BF00BF0837BD46D2
:1004D00080BD00BF0044025880B400AF4FF080439D
:1004E0001B694FF0804223F001031361034B1B682B
:1004F00001221A7000BFBD4680BC70470008002072
:1005000080B483B000AF0346FB80B7F90630002B00
:100510000BDBFB8803F01F020649B7F906305B09C5
:10052000012000FA02F241F8232000BF0C37BD463B
:1005300080BC704700E100E080B582B000AF786019
:100540007B6800221A70786800F00AF8034A7B681A
:1005500013607B6818460837BD4680BD040800203C
:1005600080B582B000AF7860264BD3F8E030254AE2
:1005700043F00403C2F8E030234B1B68224A23F007
:10058000C0031360204BDA681F4912F1C10F2CBF62
:10059000012300236FF0C00000FB03F3D31ACB60EC
:1005A000184BD3F8F430174A43F00203C2F8F43082
:1005B000164B9B68154A43F4005393604FF0B043C9
:1005C0005B684FF0B04243F0080353604FF0B04314
:1005D000D3F880304FF0B04243F00803C2F88030C7
:1005E0004FF0B043D3F888304FF0B04243F00803E7
:1005F000C2F888300920FFF783FF00BF0837BD46E7
:1006000080BD00BF00440258000802580004005892
:1006100080B400AF4FF0B0430822C3F88820044BE9
:100620001B6801221A7000BFBD4680BC704700BF26
:100630000408002080B582B000AF7860786800F0D0
:1006400017F87B6818460837BD4680BD80B483B074
:1006500000AF7860054B5B69044A83F40073536113
:1006600000BF0C37BD4680BC704700BF0004025875
:1006700080B483B000AF78600F4BD3F8E0300E4AFF
:1006800043F00203C2F8E0300C4B1B680B4A43F402
:1006900080231360094B1B68084A23F4002313606E
:1006A000064B9B68054A43F44023936000BF0C3718
:1006B000BD4680BC704700BF004402580004025889
:1006C00080B483B000AF7860FEE780B586B000AF3D
:1006D00007F10C031846FFF72FFF07F10803184630
:1006E000FFF7A8FF3B1D012202211846FFF790FEED
:1006F00062B600BF64233B613B7B002BFCD0192317
:10070000FB82FB8A002B0DD03B79002BF9D007F13F
:1007100008031846FFF79AFFFB8A013BFB82002380
:0A0720003B71EEE700233B73E6E7B0
:0400000508000000EF
:00000001FF
