:020000040800F2
:10000000000800208D070008D7070008DD0700085A
:10001000D1070008D1070008D10700080000000040
:10002000000000000000000000000000D1070008F0
:10003000D107000800000000D1070008D107000820
:10004000D1070008D1070008D1070008D107000830
:10005000D1070008D1070008D1070008D107000820
:10006000D1070008710F0008D1070008D107000868
:10007000D1070008D1070008D1070008D107000800
:10008000D1070008D1070008D1070008D1070008F0
:10009000D1070008D1070008D1070008A10F000808
:1000A000D1070008D1070008D1070008D1070008D0
:1000B000BD090008F1090008D1070008D1070008B0
:1000C000D1070008D1070008D1070008D1070008B0
:1000D000D1070008D1070008D1070008D1070008A0
:1000E000D1070008D107000800000000D107000870
:1000F000D1070008D1070008D1070008D107000880
:10010000D1070008D1070008D1070008D10700086F
:10011000D1070008D1070008D1070008D10700085F
:10012000D1070008D1070008D1070008D10700084F
:10013000D1070008D1070008D1070008D10700083F
:1001400000000000000000000000000000000000AF
:10015000D1070008D1070008D1070008D10700081F
:10016000D1070008D1070008D1070008D10700080F
:10017000D1070008D1070008D107000800000000DF
:10018000D1070008D1070008D1070008D1070008EF
:10019000D1070008D1070008D1070008D1070008DF
:1001A000D1070008D1070008D1070008D1070008CF
:1001B000D1070008D1070008D1070008D1070008BF
:1001C000D1070008D1070008D1070008D1070008AF
:1001D000D1070008D1070008D1070008D10700089F
:1001E000D1070008D1070008D1070008D10700088F
:1001F000D1070008D1070008D1070008D10700087F
:10020000D1070008D1070008D1070008D10700086E
:10021000D1070008D1070008D1070008D10700085E
:10022000D1070008D1070008D1070008000000002E
:10023000D1070008D107000800000000D10700081E
:10024000D1070008D1070008D1070008D10700082E
:10025000D1070008D1070008D1070008D10700081E
:10026000D1070008D1070008D1070008D10700080E
:10027000D1070008D1070008D107000800000000DE
:10028000D1070008D1070008D107000800000000CE
:1002900000000000D107000800000000000000007E
:1002A00001F0FF01102A2BDB10F0070F08D010F827
:1002B000013B013A8B422DD010F0070F42B3F6D12B
:1002C000F0B441EA012141EA014122F007047FF044
:1002D00000070023F0E80256083C85EA010586EA9B
:1002E000010685FA47F5A3FA87F586FA47F6A5FAD7
:1002F00087F68EB9EED1F0BC01F0FF0102F00702E3
:1003000032B110F8013B013A83EA010313B1F8D18D
:100310000020704701387047002D06BF354603386E
:10032000073815F0010F07D1013015F4807F02BFA7
:10033000013015F4C03F0130F0BC0138704700BFF8
:1003400081F0004102E000BF83F0004330B54FEA86
:1003500041044FEA430594EA050F08BF90EA020FF3
:100360001FBF54EA000C55EA020C7FEA645C7FEA86
:10037000655C00F0E2804FEA5454D4EB5555B8BFA9
:100380006D420CDD2C4480EA020281EA030382EA1A
:10039000000083EA010180EA020281EA0303362DAC
:1003A00088BF30BD11F0004F4FEA01314FF4801C7F
:1003B0004CEA113102D0404261EB410113F0004F91
:1003C0004FEA03334CEA133302D0524263EB430348
:1003D00094EA050F00F0A780A4F10104D5F1200EE6
:1003E0000DDB02FA0EFC22FA05F2801841F1000141
:1003F00003FA0EF2801843FA05F359410EE0A5F115
:1004000020050EF1200E012A03FA0EFC28BF4CF045
:10041000020C43FA05F3C01851EBE37101F00045FB
:1004200007D54FF0000EDCF1000C7EEB00006EEB08
:100430000101B1F5801F1BD3B1F5001F0CD3490892
:100440005FEA30004FEA3C0C04F101044FEA4452E9
:1004500012F5800F80F09A80BCF1004F08BF5FEA70
:10046000500C50F1000041EB045141EA050130BD50
:100470005FEA4C0C404141EB0101013C28BFB1F562
:10048000801FE9D291F0000F04BF01460020B1FAAD
:1004900081F308BF2033A3F10B03B3F120020CDA80
:1004A0000C3208DD02F1140CC2F10C0201FA0CF05E
:1004B00021FA02F10CE002F11402D8BFC2F1200CC3
:1004C00001FA02F120FA0CFCDCBF41EA0C01904079
:1004D000E41AA2BF01EB0451294330BD6FEA0404C2
:1004E0001F3C1CDA0C340EDC04F11404C4F12002AD
:1004F00020FA04F001FA02F340EA030021FA04F3BF
:1005000045EA030130BDC4F10C04C4F1200220FA15
:1005100002F001FA04F340EA0300294630BD21FA53
:1005200004F0294630BD94F0000F83F4801306BF19
:1005300081F480110134013D4EE77FEA645C18BF0D
:100540007FEA655C29D094EA050F08BF90EA020FA4
:1005500005D054EA000C04BF1946104630BD91EA9C
:10056000030F1EBF0021002030BD5FEA545C05D19F
:100570004000494128BF41F0004130BD14F58004DE
:100580003CBF01F5801130BD01F0004545F0FE4152
:1005900041F470014FF0000030BD7FEA645C1ABF87
:1005A000194610467FEA655C1CBF0B46024650EABE
:1005B000013406BF52EA033591EA030F41F40021EA
:1005C00030BD00BF90F0000F04BF0021704730B570
:1005D0004FF4806404F132044FF000054FF0000145
:1005E00050E700BF90F0000F04BF0021704730B506
:1005F0004FF4806404F1320410F0004548BF4042DB
:100600004FF000013EE700BF42004FEAE2014FEA2F
:1006100031014FEA02701FBF12F07F4393F07F4F0A
:1006200081F06051704732F07F4208BF704793F00D
:100630007F4F04BF41F40021704730B54FF4607420
:1006400001F0004521F000411CE700BF50EA010223
:1006500008BF704730B54FF000050AE050EA0102CC
:1006600008BF704730B511F0004502D5404261EB3C
:1006700041014FF4806404F132045FEA915C3FF47D
:10068000D8AE4FF003025FEADC0C18BF03325FEA1A
:10069000DC0C18BF033202EBDC02C2F1200300FACB
:1006A00003FC20FA02F001FA03FE40EA0E0021FAF0
:1006B00002F11444BDE600BF80B400AF00BFBD46E8
:1006C0005DF8047B704780B400AF00BFBD465DF8A5
:1006D000047B704780B582B000AF174A174BD31A1E
:1006E0009B103B6000237B607A683B689A4208DA83
:1006F000124A7B6852F8233098477B6801337B604D
:10070000F2E7FFF7D9FF0E4A0E4BD31A9B103B605E
:1007100000237B607A683B689A4208DA094A7B6862
:1007200052F8233098477B6801337B60F2E700BFC3
:100730000837BD4680BD00BF000000002C45020800
:10074000304502082C45020880B582B000AF0D4A42
:100750000D4BD31A9B103B603B687B607B68002B82
:1007600009DD7B68013B084A52F8233098477B68D3
:10077000013B7B60F2E7FFF7A6FF00BF0837BD46ED
:1007800080BD00BF304502083045020872B60B4CF0
:100790000B4D0C4B9D4204D023682B600434043570
:1007A000F7E7094C094B9C4203D000232360043433
:1007B000F8E7FFF78FFF00F0F7FC00BFA860020822
:1007C000000800206C0800206C08002080640020D5
:1007D00080B400AFFEE780B400AFFEE780B483B022
:1007E00000AF00237B607B68034A9342F9DA7B68A1
:1007F00001337B60F7E700BFC030460080B483B0B0
:1008000000AF0346FB80B7F90630002B0BDBFB88FB
:1008100003F01F020749B7F906305B09012000FA0F
:1008200002F241F8232000BF0C37BD465DF8047B7F
:10083000704700BF00E100E080B582B000AF786093
:100840000B46FB701346BB707B6800221A707B68F6
:1008500000225A60BA78FB781946786800F02AF8C6
:10086000074B1B785A1CD1B2054A11701946054A2C
:100870007B6842F821307B6818460837BD4680BD4A
:10088000740800206C08002080B483B000AF78604A
:1008900039607B6800225A607B685B683A689A42DC
:1008A00001D900BFF8E700BF0C37BD465DF8047BF7
:1008B0007047000080B582B000AF78600B46FB70D7
:1008C0001346BB70FB78022B02D0032B3CD06DE0AB
:1008D000384BD3F8E830374A43F00103C2F8E83028
:1008E000BB78002B0AD0012B1AD14FF08043142281
:1008F0009A624FF080430922DA6211E04FF08043A0
:1009000064229A624FF0804364229A624FF08043DF
:1009100064229A624FF0804340F2E732DA6200BF0D
:100920004FF08043DB684FF0804243F00103D36017
:100930004FF080431B684FF0804243F00103136087
:100940001C20FFF75BFF31E01A4BD3F8E830194A5F
:1009500043F00203C2F8E830BB78002B08D0012B2B
:1009600014D1154B14229A62134B0922DA620DE05E
:10097000114B64229A62104B64229A620E4B6422DD
:100980009A620D4B40F2E732DA6200BF0A4BDB6835
:10099000094A43F00103D360074B1B68064A43F042
:1009A000010313601D20FFF729FF00BF00BF0837B8
:1009B000BD4680BD004402580004004080B400AF32
:1009C0004FF080431B694FF0804223F00103136115
:1009D000064B1B6801221A70044B1B685A680132CF
:1009E0005A6000BFBD465DF8047B70476C0800206C
:1009F00080B400AF094B1B69084A23F0010313615F
:100A0000074B5B6801221A70064B4AF6AA221A604D
:100A100000BFBD465DF8047B704700BF0004004086
:100A20006C0800200048005880B483B000AF034633
:100A3000FB80B7F90630002B0BDBFB8803F01F02AD
:100A40000749B7F906305B09012000FA02F241F8C4
:100A5000232000BF0C37BD465DF8047B704700BF04
:100A600000E100E080B582B000AF78607B680022D2
:100A70001A707B6800225A707B6800229A707B682B
:100A80000022DA707B6800221A717B6800225A719A
:100A90007B680022DA80786800F064F9786800F0FA
:100AA00025F9044A7B6813607B6818460837BD4601
:100AB00080BD00BF7808002080B584B000AF7860AA
:100AC0000B467B800023FB607B88FA689A4206DA3B
:100AD000786800F01FF8FB680133FB60F4E700BFA3
:100AE0001037BD4680BD80B584B000AF78600B463E
:100AF0007B800023FB607B88FA689A4206DA78687C
:100B000000F036F8FB680133FB60F4E700BF1037F4
:100B1000BD4680BD80B582B000AF7860786800F0D7
:100B200055F8124B1B680A211846FFF7ADFE78688E
:100B300000F070F80D4B1B680A211846FFF7A4FE61
:100B4000786800F08BF8094B1B680A211846FFF7FC
:100B50009BFE786800F0A6F8044B1B680A21184633
:100B6000FFF792FE00BF0837BD4680BD6C0800202D
:100B700080B582B000AF7860786800F093F8124BCF
:100B80001B680A211846FFF77FFE786800F066F8B8
:100B90000D4B1B680A211846FFF776FE786800F0B7
:100BA00039F8094B1B680A211846FFF76DFE786873
:100BB00000F00CF8044B1B680A211846FFF764FE8E
:100BC00000BF0837BD4680BD6C08002080B483B0EC
:100BD00000AF78600E4B9B690D4A43F001039361AF
:100BE0000B4B9B690A4A43F400339361084B9B69A2
:100BF000074A43F480239361054B9B69044A43F4FD
:100C00008003936100BF0C37BD465DF8047B7047DD
:100C10000004025880B483B000AF78600E4B9B692B
:100C20000D4A43F4803393610B4B9B690A4A43F0AE
:100C300002039361084B9B69074A43F48023936145
:100C4000054B9B69044A43F48003936100BF0C3752
:100C5000BD465DF8047B70470004025880B483B041
:100C600000AF78600E4B9B690D4A43F4803393616B
:100C70000B4B9B690A4A43F400339361084B9B6911
:100C8000074A43F004039361054B9B69044A43F40C
:100C90008003936100BF0C37BD465DF8047B70474D
:100CA0000004025880B483B000AF78600E4B9B699B
:100CB0000D4A43F4803393610B4B9B690A4A43F41A
:100CC00000339361084B9B69074A43F48023936187
:100CD000054B9B69044A43F04003936100BF0C3706
:100CE000BD465DF8047B70470004025880B483B0B1
:100CF00000AF78601A4B1B68194A23F00203136097
:100D0000174B1B68164A43F001031360144B1B6812
:100D1000134A23F008031360114B1B68104A43F079
:100D2000040313600E4B1B680D4A23F0200313606D
:100D30000B4B1B680A4A43F010031360084B1B68F7
:100D4000074A23F400531360054B1B68044A43F41D
:100D50008053136000BF0C37BD465DF8047B7047BD
:100D60000004025880B582B000AF78607B4BD3F8A6
:100D7000E0307A4A43F00403C2F8E030784B1B6855
:100D8000774A23F0C0031360754BDB68744A23F085
:100D9000C003D360714BD3F8E030704A43F00103D5
:100DA000C2F8E0306F4B1B686E4A23F44033136087
:100DB0006C4BDB686B4A23F44033D360694B1B6890
:100DC000684A23F0C0031360664BDB68654A23F072
:100DD000C003D360614BD3F8E030604A43F00203B4
:100DE000C2F8E030604B1B685F4A23F44063136035
:100DF0005D4BDB685C4A23F44063D3605A4B1B684D
:100E0000594A23F440431360574BDB68564A23F496
:100E10004043D360524B1B68514A23F44023136074
:100E20004F4BDB684E4A23F44023D3604B4BD3F83F
:100E3000F4304A4A43F00203C2F8F4304B4B4B4AB9
:100E40009B6893604FF0B0435B684FF0B04243F053
:100E5000080353604FF0B043D3F880304FF0B042F6
:100E600043F00803C2F880304FF0B043D3F8883025
:100E70004FF0B04243F00803C2F888300920FFF772
:100E8000D3FD3A4BDB68394A43F48053D3604FF0CB
:100E9000B0435B684FF0B04243F0800353604FF0C3
:100EA000B043D3F880304FF0B04243F08003C2F833
:100EB00080304FF0B043D3F888304FF0B04243F069
:100EC0008003C2F88830294BDB68284A43F01003BE
:100ED000D3604FF0B0435B684FF0B04243F0200363
:100EE00053604FF0B043D3F880304FF0B04243F03E
:100EF0002003C2F880304FF0B043D3F888304FF071
:100F0000B04243F02003C2F88830184B1B69174ADF
:100F100043F0200313614FF0B0435B684FF0B042E1
:100F200043F4007353604FF0B043D3F880304FF078
:100F3000B04243F40073C2F880304FF0B043D3F8AE
:100F400088304FF0B04243F40073C2F88830172065
:100F5000FFF76AFD00BF0837BD4680BD0044025858
:100F6000000802580000025800040258000400580B
:100F700080B400AF4FF0B043D3F888304FF0B042A8
:100F800043F00803C2F88830044B1B6801225A70F2
:100F900000BFBD465DF8047B704700BF78080020A5
:100FA00080B400AF4FF0B043D3F8883003F0200393
:100FB000002B14BF01230023DBB2002B08D0274BEA
:100FC0001B6801229A704FF0B0432022C3F888209A
:100FD0004FF0B043D3F8883003F08003002B14BFE8
:100FE00001230023DBB2002B08D01C4B1B6801221D
:100FF000DA704FF0B0438022C3F888204FF0B0433E
:10100000D3F8883003F48073002B14BF012300232E
:10101000DBB2002B05D04FF0B0434FF48072C3F821
:1010200088204FF0B043D3F8883003F40073002BCE
:1010300014BF01230023DBB2002B09D0074B1B6830
:1010400001225A714FF0B0434FF40072C3F8882068
:1010500000BFBD465DF8047B704700BF78080020E4
:1010600080B582B000AF7860786800F037F87B68B0
:1010700018460837BD4680BD80B485B000AF7860A3
:1010800042F21073FB600B4B5B690A4A83F40073F6
:101090005361FB685A1EFA60002B14BF0123002322
:1010A000DBB2002B00D0F4E700BF1437BD465DF87B
:1010B000047B70470004025880B483B000AF7860AE
:1010C000054B5B69044A23F40073536100BF0C377E
:1010D000BD465DF8047B70470004025880B483B0BD
:1010E00000AF78600F4BD3F8E0300E4A43F00203B4
:1010F000C2F8E0300C4B1B680B4A43F480231360AA
:10110000094B1B68084A23F400231360064B9B68B5
:10111000054A43F44023936000BF0C37BD465DF899
:10112000047B7047004402580004025880B582B026
:1011300000AF786039603968786800F005F87B683E
:1011400018460837BD4680BD80B483B000AF7860D4
:101150003960114B4CF6CC421A600F4B45F2555298
:101160001A600D4B07225A600B4A3B6893600A4B8A
:10117000DB68002B14BF01230023DBB2002B00D05F
:10118000F5E7054B4AF6AA221A6000BF0C37BD46A8
:101190005DF8047B704700BF0048005880B483B0FE
:1011A00000AF7860FEE7000080B5A8B004AF07F19B
:1011B00088034FF4C871184600F050F907F1800316
:1011C0001846FFF74FFC07F17C031846FFF748FF6E
:1011D00007F1780340F2FF411846FFF7A7FF07F138
:1011E0007003002202211846FFF726FB07F168036F
:1011F000002203211846FFF71FFB62B600BF07F16C
:101200006403184600F0C6FC07F16003184602F0BC
:10121000AFF80023A7F88E3007F1600040F2FF73AB
:1012200001934FF4F07300934FF4487300220021B0
:1012300002F05EF8B7F88E30184621F0C3FB07F1D4
:1012400060004FF6E073009332239FED820AF02294
:101250004FF4C87102F0C3FB07F1300348F21042AB
:101260004FF4FC61184603F08FF807F1300031238A
:101270000022002103F03CF907F13000764B0022F8
:10128000642103F071F93B461F224FF6E0711846C6
:1012900003F07AF8384631236422002103F028F95C
:1012A00038466D4B6422642103F05EF93B464FF6ED
:1012B000100240F2FF71184603F0D4F83846664B2E
:1012C0004FF4DC72642103F04FF9B7F88E3001332C
:1012D000A7F88E303B464FF6100240F2FF711846D9
:1012E00003F0C0F8B7F886301A463B461146184658
:1012F00003F04CFA03463846032200924FF4DC72A6
:101300004FF4FA7103F04AFB97F88130002B37D085
:10131000B7F88630002B06D0B7F88630013B9BB279
:10132000A7F8863003E04FF4B473A7F88630B7F817
:10133000863005339BB207F160004FF6E0720392EE
:10134000282202920522019200939623F0224FF464
:10135000C87102F027FDB7F8863007F160004FF43E
:10136000784203922822029205220192009396234A
:10137000F0224FF4C87102F015FD002387F8813088
:1013800097F88330002B02D0002387F8833097F83A
:101390008230002B37D0B7F88630B3F5B47F06D053
:1013A000B7F8863001339BB2A7F8863002E00023FD
:1013B000A7F88630B7F8863007F160004FF6E07284
:1013C0000392282202920522019200939623F02292
:1013D0004FF4C87102F0E6FCB7F8863005339BB2D3
:1013E00007F160004FF4784203922822029205220E
:1013F000019200939623F0224FF4C87102F0D2FCC0
:10140000002387F8823097F88530002B3FF45DAFDA
:101410000523A7F88C30B7F88C30002B11D097F843
:101420007030002BF7D007F17C031846FFF724FE3D
:10143000B7F88C30013BA7F88C30002387F8703068
:10144000E9E707F17C031846FFF736FE002387F82B
:1014500085303AE7000016433045020880B582B077
:1014600000AF78600B467B807B881946786800F077
:1014700005F87B6818460837BD4680BD80B483B048
:1014800000AF78600B467B808F4BDB688E4A23F081
:101490000203D3608C4BDB688B4A23F00503D360D7
:1014A000894B9B69884A43F440439361864B9B690F
:1014B00003F40053B3F5005F14BF01230023DBB234
:1014C000002B00D0F2E7814B1B68804A43F4803345
:1014D00013607E4B1B6803F40033002B0CBF012309
:1014E0000023DBB2002B00D0F3E7784B00221A6117
:1014F000764B00229A62754B02229A627B88B3F582
:10150000F07F00F0EB80B3F5F07F00F35D81402BBE
:1015100003D0B3F5C87F67D056E16C4B9B6A6B4A2A
:1015200043F020039362694B00221A63674B002249
:101530009A63664B00221A64644B1A6B6349644BCE
:1015400013430B63614B0022DA62604BDB6A5F4A34
:1015500023F00C03D3625D4BDB6A5C4A43F0040367
:10156000D3625A4BDB6A594A43F00203D362574BAA
:101570009B69564A43F400639361544B9B69534AF9
:1015800023F00F039361514B9B69504A23F04003B2
:1015900093614E4B9B694D4A23F0300393614B4B53
:1015A000DB694A4A23F04003D361484BDB69474A71
:1015B00023F03003D361454BDB69444A23F4806355
:1015C000D361424BDB69414A23F44073D3613F4B03
:1015D0001B6A3E4A23F0400313623C4B1B6A3B4AA2
:1015E00023F030031362FCE0384B9B6A374A43F028
:1015F00040039362354B00221A63344B00229A63F6
:10160000324B00221A64314B1A6B3049314B134371
:101610000B632E4B0022DA622C4BDB6A2B4A43F021
:101620000803D362294BDB6A284A23F00203D36202
:10163000264B00229A61254B9B69244A23F4706350
:101640009361224B9B69214A43F0080393611F4B2E
:101650009B691E4A43F0400393611C4B9B691B4AE4
:1016600023F030039361194BDB69184A43F04003C0
:10167000D361164BDB69154A23F03003D361134B5A
:10168000DB69124A43F48063D361104BDB690F4A74
:1016900023F44073D3610D4B1B6A0C4A43F04003A3
:1016A00013620A4B1B6A094A23F0300313620A4B88
:1016B0001B68094A23F00F031360074B1B68064A97
:1016C00043F0020313608CE00048025800440258C3
:1016D000400201016803010100200052674B9B6A30
:1016E000664A43F080039362644B00221A63634BA3
:1016F00000229A63614B00221A64604B1A6B5F49A7
:101700005F4B13430B635D4B0022DA625B4BDB6A7A
:101710005A4A43F00C03D362584BDB6A574A23F012
:101720000203D362554B00229A61544B9B69534A82
:1017300023F470639361514B9B69504A43F0080353
:1017400093614E4B9B694D4A43F0400393614B4B71
:101750009B694A4A23F030039361484BDB69474A4F
:1017600043F04003D361454BDB69444A23F0300327
:10177000D361424BDB69414A43F48063D3613F4B01
:10178000DB693E4A23F44073D3613C4B1B6A3B4AFE
:1017900043F040031362394B1B6A384A23F030038D
:1017A0001362384B1B68374A23F00F031360354B25
:1017B0001B68344A43F003031360304B9B6A2F4A83
:1017C00043F0020393620CE02C4B1B682B4A23F47A
:1017D00080331360294B1B68284A43F001031360D0
:1017E00047E0264B4FF4D0525A63244BDB6A234A1E
:1017F00043F4E023D362214B1B68204A43F08073FB
:1018000013601E4B1B6803F00073002B0CBF0123F9
:101810000023DBB2002B00D0F3E7184BD3F8F430F1
:10182000164A43F00203C2F8F430174B1B6A164AFB
:1018300043F001031362114B1B69104A23F00703A5
:1018400013610E4B1B690D4A43F0030313610B4BED
:101850001B6903F03803182B14BF01230023DBB2EC
:10186000002B00D0F3E7054B1B68044A23F001036B
:1018700013600C37BD465DF8047B70470044025886
:1018800090030101002000520004005880B582B08E
:1018900000AF7860786800F005F87B681846083774
:1018A000BD4680BD80B483B000AF7860104BD3F8E4
:1018B000E0300F4A43F01003C2F8E0300D4B1A68D5
:1018C0000C4941F2555313430B600A4B1A680949FE
:1018D000094B13400B60074B9A68064943F6FF73A8
:1018E00013438B6000BF0C37BD465DF8047B704727
:1018F000004402580010025855D5FFFF80B582B051
:1019000000AF87ED010A97ED010A20F0E9F9F0EE4A
:10191000407AB0EE670A0837BD4680BD80B582B018
:1019200000AF87ED010A97ED010A20F091FEF0EE7D
:10193000407AB0EE670A0837BD4680BD80B483B0F8
:1019400000AF78607B6818460C37BD465DF8047BB5
:101950007047000080B483B000AF7860054B9B698E
:10196000044A43F40043936100BF0C37BD465DF861
:10197000047B70470000025880B483B000AF7860E9
:10198000054B9B69044A43F00043936100BF0C3749
:10199000BD465DF8047B70470000025880B582B0F8
:1019A00000AF78607868FFF7C9FF7B681846083792
:1019B000BD4680BD80B582B000AF78607868FFF723
:1019C000EDFF7B6818460837BD4680BD80B483B004
:1019D00000AF78600B467B807B881A12064BD2B230
:1019E0005A70054B7A88D2B25A7000BF0C37BD4688
:1019F0005DF8047B704700BFFFFF006080B483B0D8
:101A000000AF78600B467B807B881A12064BD2B2FF
:101A10001A70054B7A88D2B21A7000BF0C37BD46D7
:101A20005DF8047B704700BFFFFF006080B483B0A7
:101A300000AF78600B467B8013463B807B881A1290
:101A40000A4BD2B21A70094B7A88D2B21A703B880C
:101A50001A12064BD2B25A70044B3A88D2B25A705C
:101A600000BF0C37BD465DF8047B7047FFFF006088
:101A700080B582B000AF78600B467B807B881B0A04
:101A80009BB21A464FF428517868FFF7CFFF7B8846
:101A9000DBB29BB21A4642F601217868FFF7C6FF17
:101AA00000BF0837BD4680BD80B582B000AF78600A
:101AB0000B467B807B881B0A9BB21A464FF42C5145
:101AC0007868FFF7B3FF7B88DBB29BB21A4642F619
:101AD00001317868FFF7AAFF00BF0837BD4680BD17
:101AE00080B584B000AFF860084611461A46034638
:101AF0007B810B463B811346FB807B891B129BB28B
:101B00001A464FF42851F868FFF790FF7B89DBB243
:101B10009BB21A4642F60121F868FFF787FFFB885F
:101B20001B129BB21A4642F60221F868FFF77EFFAD
:101B3000FB88DBB29BB21A4642F60321F868FFF736
:101B400075FF3B891B129BB21A464FF42C51F86863
:101B5000FFF76CFF3B89DBB29BB21A4642F60131BC
:101B6000F868FFF763FF3B8B1B129BB21A4642F6E5
:101B70000231F868FFF75AFF3B8BDBB29BB21A4683
:101B800042F60331F868FFF751FF00BF1037BD463A
:101B900080BD000080B582B000AF78607868FFF744
:101BA000CDFE786800F010F87868FFF7E5FE7868F9
:101BB00000F0D2F9034A7B6813607B681846083747
:101BC000BD4680BD7C08002080B483B000AF786043
:101BD0009B4BD3F8E0309A4A43F00803C2F8E03058
:101BE000984B1A689749984B13430B60954B1A68AA
:101BF0009449964B13400B60924B9A689149944BD1
:101C000013438B608F4B5A6A8E49924B13434B623E
:101C10008C4B1A688B4948F60A2313430B60894B97
:101C20001A6888498C4B13400B60864B9A6885492B
:101C30004CF60F7313438B60824B1A6A8149874BB2
:101C400013430B627F4B1B687E4A43F050031360C3
:101C50007C4B1B687B4A23F0A0031360794B9B6885
:101C6000784A43F0F0039360754BD3F8E030744A40
:101C700043F01003C2F8E030794B1B68784A43F414
:101C80002A131360764B1B68754A23F4AA1313605A
:101C9000734B9B68724A43F47F139360704B1B6ACB
:101CA0006F4A43F0404313626D4B5A6A6C4940F6E9
:101CB000CC4313434B62624BD3F8E030604A43F0AD
:101CC0000103C2F8E030674B1B68664A43F080436B
:101CD0001360644B1B68634A23F000431360614B3D
:101CE0009B68604A43F040439360BFF35F8F00BF3F
:101CF0005D4B5B6A5C4A23F4803353625B4B00228A
:101D00005A605A4B00229A60584B4FF0C042DA603A
:101D1000564B00221A61554B1B69544A43F001038C
:101D20001361524B1B69514A43F0360313614F4B09
:101D30004E4A1B6913614D4B1B694C4A43F4803377
:101D400013614A4B494A1B691361484B474A1B6957
:101D50001361464B454A1B691361444B1B69434A57
:101D600043F040731361414B404A1B6913613F4B81
:101D700005225A603C4B5B6A3B4A43F48033536212
:101D8000BFF34F8F00BFBFF36F8F00BF2C4BDB6CD7
:101D90002B4A23F00303D364294BD3F8D430284AC9
:101DA00043F48053C2F8D430314B1B68304A23F4DB
:101DB000004313602E4B1B682D4A23F4807313607D
:101DC0002B4B1B682A4A23F400231360284B1B6803
:101DD000274A23F4E0231360254B1B68244A23F48D
:101DE00080431360224B1B68214A43F04003136079
:101DF0001F4B1B681E4A43F0010313601C4B1B68FA
:101E00001B4A23F00C031360194B1B68184A43F05C
:101E100008031360164B1B68154A23F00403136074
:101E2000134B1B68124A23F002031360104B1B680C
:101E30000F4A23F0300313600D4B1B681AE000BFFC
:101E400000440258000C0258000080A0FFFFBFAF02
:101E50000000C0F000C000CCFABAFFFFCC00CCC03C
:101E6000001002580000025800ED00E090ED00E084
:101E700000400052374A23F400631360354B1B685F
:101E8000344A23F400531360324B1B68314A23F465
:101E9000007313602F4B1B682E4A43F4805313606A
:101EA0002C4B1B682B4A23F480131360294B1B68AF
:101EB000284A43F000431360264B5B68254A23F011
:101EC00040535360234B5B68224A43F08053536076
:101ED000204B5B681F4A23F0F00353601D4B5B6887
:101EE0001C4A43F0F00353601A4B5B68194A23F015
:101EF0000F035360174B5B68164A43F008035360A7
:101F0000144B5B68134A23F470235360114B5B68D6
:101F1000104A23F4700353600E4B5B680D4A23F4A0
:101F20007F4353600B4B5B680A4A43F40063536082
:101F3000084B5B68074A23F070635360054B5B688E
:101F4000044A43F07063536000BF0C37BD465DF830
:101F5000047B70470040005280B586B002AF7860C5
:101F6000D84B1B6832211846FEF78EFC7868FFF7C5
:101F700003FDD44B1B6864211846FEF785FC786886
:101F8000FFF7E8FCCF4B1B6832211846FEF77CFCBC
:101F900055224FF470417868FFF748FDAA224FF2AE
:101FA00001017868FFF742FD52224FF20201786882
:101FB000FFF73CFD08224FF203017868FFF736FD7A
:101FC00001224FF204017868FFF730FD34224FF40C
:101FD00036417868FFF72AFD34224BF201617868B8
:101FE000FFF724FD34224BF202617868FFF71EFDF3
:101FF0000D224FF430417868FFF718FD0D224BF2A7
:1020000001017868FFF712FD0D224BF2020178689A
:10201000FFF70CFD24224FF437417868FFF706FDE7
:1020200024224BF201717868FFF700FD24224BF265
:1020300002717868FFF7FAFC0D224FF4314178689D
:10204000FFF7F4FC0D224BF201117868FFF7EEFC6C
:102050000D224BF202117868FFF7E8FC24224FF4BE
:1020600038417868FFF7E2FC24224BF601017868DA
:10207000FFF7DCFC24224BF602017868FFF7D6FC60
:1020800000224FF432417868FFF7D0FC24224FF44D
:1020900039417868FFF7CAFC24224BF601117868B1
:1020A000FFF7C4FC24224BF602117868FFF7BEFC50
:1020B00005224FF433417868FFF7B8FC05224BF254
:1020C00001317868FFF7B2FC05224BF202317868E3
:1020D000FFF7ACFC34224FF43A417868FFF7A6FCD6
:1020E00034224BF601217868FFF7A0FC34224BF62E
:1020F00002217868FFF79AFC0B224FF4354178688B
:10210000FFF794FC0B224BF201517868FFF78EFC2D
:102110000B224BF202517868FFF788FC00224FF443
:102120003C417868FFF782FCA3224BF601417868B6
:10213000FFF77CFC00224BF602417868FFF776FC43
:1021400000224FF43D417868FFF770FCA3224BF664
:1021500001517868FFF76AFC00224BF6025178685B
:10216000FFF764FC00224FF43E417868FFF75EFC05
:1021700063224BF601617868FFF758FC00224FF4A8
:1021800051417868FFF752FC37224DF2011178680F
:10219000FFF74CFC00224DF202117868FFF746FC75
:1021A00052224DF203117868FFF740FC00224DF2F5
:1021B00004117868FFF73AFC7B224DF2051178682C
:1021C000FFF734FC00224DF206117868FFF72EFC71
:1021D00099224DF207117868FFF728FC00224DF292
:1021E00008117868FFF722FCB1224DF209117868D6
:1021F000FFF71CFC00224DF20A117868FFF716FC6D
:10220000D2224DF20B117868FFF710FC00224DF23C
:102210000C117868FFF70AFCF6224DF20D11786870
:10222000FFF704FC01224DF20E117868FFF7FEFB68
:1022300027224DF20F117868FFF7F8FB01224DF2CB
:1022400010117868FFF7F2FB4E224DF211117868F9
:10225000FFF7ECFB01224DF212117868FFF7E6FB65
:102260008C224DF213117868FFF7E0FB01224DF24A
:1022700014117868FFF7DAFBBE224DF21511786869
:10228000FFF7D4FB02224DF216117868FFF7CEFB60
:102290000B224DF217117868FFF7C8FB02224DF2AE
:1022A00018117868FFF7C2FB48224DF219117868BF
:1022B000FFF7BCFB02224DF21A117868FFF7B6FB5C
:1022C00002E000BF6C0800204A224DF21B11786822
:1022D000FFF7ACFB02224DF21C117868FFF7A6FB5A
:1022E0007E224DF21D117868FFF7A0FB02224DF20D
:1022F0001E117868FFF79AFBBC224DF21F11786817
:10230000FFF794FB02224DF220117868FFF78EFB55
:10231000E1224DF221117868FFF788FB03224DF28C
:1023200022117868FFF782FB10224DF223117868A2
:10233000FFF77CFB03224DF224117868FFF776FB50
:1023400031224DF225117868FFF770FB03224DF220
:1023500026117868FFF76AFB5A224DF22711786838
:10236000FFF764FB03224DF228117868FFF75EFB4C
:1023700073224DF229117868FFF758FB03224DF2C2
:102380002A117868FFF752FB94224DF22B117868DE
:10239000FFF74CFB03224DF22C117868FFF746FB48
:1023A0009F224DF22D117868FFF740FB03224DF27A
:1023B0002E117868FFF73AFBB3224DF22F1178689F
:1023C000FFF734FB03224DF230117868FFF72EFB44
:1023D000B9224DF231117868FFF728FB03224DF244
:1023E00032117868FFF722FBC1224DF23311786871
:1023F000FFF71CFB00224FF452417868FFF716FBF1
:1024000037224DF201217868FFF710FB00224DF2D0
:1024100002217868FFF70AFB52224DF20321786807
:10242000FFF704FB00224DF204217868FFF7FEFA63
:102430007B224DF205217868FFF7F8FA00224DF271
:1024400006217868FFF7F2FA99224DF207217868A1
:10245000FFF7ECFA00224DF208217868FFF7E6FA60
:10246000B1224DF209217868FFF7E0FA00224DF21F
:102470000A217868FFF7DAFAD2224DF20B21786848
:10248000FFF7D4FA00224DF20C217868FFF7CEFA5C
:10249000F6224DF20D217868FFF7C8FA01224DF2BD
:1024A0000E217868FFF7C2FA27224DF20F217868D3
:1024B000FFF7BCFA01224DF210217868FFF7B6FA57
:1024C0004E224DF211217868FFF7B0FA01224DF249
:1024D00012217868FFF7AAFA8C224DF2132178684E
:1024E000FFF7A4FA01224DF214217868FFF79EFA53
:1024F000BE224DF215217868FFF798FA02224DF2BC
:1025000016217868FFF792FA0B224DF217217868AE
:10251000FFF78CFA02224DF218217868FFF786FA4D
:1025200048224DF219217868FFF780FA02224DF215
:102530001A217868FFF77AFA4A224DF21B2178684F
:10254000FFF774FA02224DF21C217868FFF76EFA49
:102550007E224DF21D217868FFF768FA02224DF2C3
:102560001E217868FFF762FABC224DF21F217868BD
:10257000FFF75CFA02224DF220217868FFF756FA45
:10258000E1224DF221217868FFF750FA03224DF243
:1025900022217868FFF74AFA10224DF22321786849
:1025A000FFF744FA03224DF224217868FFF73EFA40
:1025B00031224DF225217868FFF738FA03224DF2D7
:1025C00026217868FFF732FA5A224DF227217868DF
:1025D000FFF72CFA03224DF228217868FFF726FA3C
:1025E00073224DF229217868FFF720FA03224DF279
:1025F0002A217868FFF71AFA94224DF22B21786885
:10260000FFF714FA03224DF22C217868FFF70EFA37
:102610009F224DF22D217868FFF708FA03224DF230
:102620002E217868FFF702FAB3224DF22F21786845
:10263000FFF7FCF903224DF230217868FFF7F6F935
:10264000B9224DF231217868FFF7F0F903224DF2FB
:1026500032217868FFF7EAF9C1224DF23321786818
:10266000FFF7E4F900224FF453417868FFF7DEF9F1
:1026700037224DF201317868FFF7D8F900224DF288
:1026800002317868FFF7D2F952224DF203317868AF
:10269000FFF7CCF900224DF204317868FFF7C6F954
:1026A0007B224DF205317868FFF7C0F900224DF228
:1026B00006317868FFF7BAF999224DF20731786848
:1026C000FFF7B4F900224DF208317868FFF7AEF950
:1026D000B1224DF209317868FFF7A8F900224DF2D6
:1026E0000A317868FFF7A2F9D2224DF20B317868EF
:1026F000FFF79CF900224DF20C317868FFF796F94C
:10270000F6224DF20D317868FFF790F901224DF273
:102710000E317868FFF78AF927224DF20F31786879
:10272000FFF784F901224DF210317868FFF77EF946
:102730004E224DF211317868FFF778F901224DF2FF
:1027400012317868FFF772F98C224DF213317868F4
:10275000FFF76CF901224DF214317868FFF766F942
:10276000BE224DF215317868FFF760F902224DF272
:1027700016317868FFF75AF90B224DF21731786855
:10278000FFF754F902224DF218317868FFF74EF93D
:1027900048224DF219317868FFF748F902224DF2CC
:1027A0001A317868FFF742F94A224DF21B317868F6
:1027B000FFF73CF902224DF21C317868FFF736F939
:1027C0007E224DF21D317868FFF730F902224DF27A
:1027D0001E317868FFF72AF9BC224DF21F31786864
:1027E000FFF724F902224DF220317868FFF71EF935
:1027F000E1224DF221317868FFF718F903224DF2FA
:1028000022317868FFF712F910224DF223317868EF
:10281000FFF70CF903224DF224317868FFF706F92F
:1028200031224DF225317868FFF700F903224DF28D
:1028300026317868FFF7FAF85A224DF22731786886
:10284000FFF7F4F803224DF228317868FFF7EEF82D
:1028500073224DF229317868FFF7E8F803224DF230
:102860002A317868FFF7E2F894224DF22B3178682C
:10287000FFF7DCF803224DF22C317868FFF7D6F829
:102880009F224DF22D317868FFF7D0F803224DF2E8
:102890002E317868FFF7CAF8B3224DF22F317868ED
:1028A000FFF7C4F803224DF230317868FFF7BEF825
:1028B000B9224DF231317868FFF7B8F803224DF2B2
:1028C00032317868FFF7B2F8C1224DF233317868BF
:1028D000FFF7ACF800224FF454417868FFF7A6F8F0
:1028E00037224DF201417868FFF7A0F800224DF23F
:1028F00002417868FFF79AF852224DF20341786856
:10290000FFF794F800224DF204417868FFF78EF843
:102910007B224DF205417868FFF788F800224DF2DE
:1029200006417868FFF782F899224DF207417868EE
:10293000FFF77CF800224DF208417868FFF776F83F
:10294000B1224DF209417868FFF770F800224DF28C
:102950000A417868FFF76AF8D2224DF20B41786895
:10296000FFF764F800224DF20C417868FFF75EF83B
:10297000F6224DF20D417868FFF758F801224DF22A
:102980000E417868FFF752F827224DF20F41786820
:10299000FFF74CF801224DF210417868FFF746F836
:1029A0004E224DF211417868FFF740F801224DF2B6
:1029B00012417868FFF73AF88C224DF2134178689B
:1029C000FFF734F801224DF214417868FFF72EF832
:1029D000BE224DF215417868FFF728F802224DF229
:1029E00016417868FFF722F80B224DF217417868FC
:1029F000FFF71CF802224DF218417868FFF716F82D
:102A000048224DF219417868FFF710F802224DF282
:102A10001A417868FFF70AF84A224DF21B4178689C
:102A2000FFF704F802224DF21C417868FEF7FEFF22
:102A30007E224DF21D417868FEF7F8FF02224DF22A
:102A40001E417868FEF7F2FFBC224DF21F41786804
:102A5000FEF7ECFF02224DF220417868FEF7E6FF18
:102A6000E1224DF221417868FEF7E0FF03224DF2AA
:102A700022417868FEF7DAFF10224DF22341786890
:102A8000FEF7D4FF03224DF224417868FEF7CEFF13
:102A900031224DF225417868FEF7C8FF03224DF23E
:102AA00026417868FEF7C2FF5A224DF22741786826
:102AB000FEF7BCFF03224DF228417868FEF7B6FF0F
:102AC00073224DF229417868FEF7B0FF03224DF2E0
:102AD0002A417868FEF7AAFF94224DF22B417868CC
:102AE000FEF7A4FF03224DF22C417868FEF79EFF0B
:102AF0009F224DF22D417868FEF798FF03224DF298
:102B00002E417868FEF792FFB3224DF22F4178688C
:102B1000FEF78CFF03224DF230417868FEF786FF06
:102B2000B9224DF231417868FEF780FF03224DF261
:102B300032417868FEF77AFFC1224DF2334178685E
:102B4000FEF774FF00224FF455417868FEF76EFFE0
:102B500037224DF201517868FEF768FF00224DF2EE
:102B600002517868FEF762FF52224DF203517868F5
:102B7000FEF75CFF00224DF204517868FEF756FF25
:102B80007B224DF205517868FEF750FF00224DF28E
:102B900006517868FEF74AFF99224DF2075178688E
:102BA000FEF744FF00224DF208517868FEF73EFF21
:102BB000B1224DF209517868FEF738FF00224DF23C
:102BC0000A517868FEF732FFD2224DF20B51786835
:102BD000FEF72CFF00224DF20C517868FEF726FF1D
:102BE000F6224DF20D517868FEF720FF01224DF2DA
:102BF0000E517868FEF71AFF27224DF20F517868C0
:102C0000FEF714FF01224DF210517868FEF70EFF17
:102C10004E224DF211517868FEF708FF01224DF265
:102C200012517868FEF702FF8C224DF2135178683A
:102C3000FEF7FCFE01224DF214517868FEF7F6FE15
:102C4000BE224DF215517868FEF7F0FE02224DF2D9
:102C500016517868FEF7EAFE0B224DF2175178689C
:102C6000FEF7E4FE02224DF218517868FEF7DEFE10
:102C700048224DF219517868FEF7D8FE02224DF233
:102C80001A517868FEF7D2FE4A224DF21B5178683D
:102C9000FEF7CCFE02224DF21C517868FEF7C6FE0C
:102CA0007E224DF21D517868FEF7C0FE02224DF2E1
:102CB0001E517868FEF7BAFEBC224DF21F517868AB
:102CC000FEF7B4FE02224DF220517868FEF7AEFE08
:102CD000E1224DF221517868FEF7A8FE03224DF261
:102CE00022517868FEF7A2FE10224DF22351786837
:102CF000FEF79CFE03224DF224517868FEF796FE03
:102D000031224DF225517868FEF790FE03224DF2F4
:102D100026517868FEF78AFE5A224DF227517868CC
:102D2000FEF784FE03224DF228517868FEF77EFEFE
:102D300073224DF229517868FEF778FE03224DF296
:102D40002A517868FEF772FE94224DF22B51786872
:102D5000FEF76CFE03224DF22C517868FEF766FEFA
:102D60009F224DF22D517868FEF760FE03224DF24E
:102D70002E517868FEF75AFEB3224DF22F51786833
:102D8000FEF754FE03224DF230517868FEF74EFEF6
:102D9000B9224DF231517868FEF748FE03224DF218
:102DA00032517868FEF742FEC1224DF23351786805
:102DB000FEF73CFE00224FF456417868FEF736FEDF
:102DC00037224DF201617868FEF730FE00224DF2A5
:102DD00002617868FEF72AFE52224DF2036178689C
:102DE000FEF724FE00224DF204617868FEF71EFE15
:102DF0007B224DF205617868FEF718FE00224DF245
:102E000006617868FEF712FE99224DF20761786834
:102E1000FEF70CFE00224DF208617868FEF706FE10
:102E2000B1224DF209617868FEF700FE00224DF2F2
:102E30000A617868FEF7FAFDD2224DF20B617868DC
:102E4000FEF7F4FD00224DF20C617868FEF7EEFD0E
:102E5000F6224DF20D617868FEF7E8FD01224DF291
:102E60000E617868FEF7E2FD27224DF20F61786867
:102E7000FEF7DCFD01224DF210617868FEF7D6FD09
:102E80004E224DF211617868FEF7D0FD01224DF21D
:102E900012617868FEF7CAFD8C224DF213617868E2
:102EA000FEF7C4FD01224DF214617868FEF7BEFD05
:102EB000BE224DF215617868FEF7B8FD02224DF290
:102EC00016617868FEF7B2FD0B224DF21761786843
:102ED000FEF7ACFD02224DF218617868FEF7A6FD00
:102EE00048224DF219617868FEF7A0FD02224DF2EA
:102EF0001A617868FEF79AFD4A224DF21B617868E4
:102F0000FEF794FD02224DF21C617868FEF78EFDFB
:102F10007E224DF21D617868FEF788FD02224DF297
:102F20001E617868FEF782FDBC224DF21F61786851
:102F3000FEF77CFD02224DF220617868FEF776FDF7
:102F4000E1224DF221617868FEF770FD03224DF217
:102F500022617868FEF76AFD10224DF223617868DD
:102F6000FEF764FD03224DF224617868FEF75EFDF2
:102F700031224DF225617868FEF758FD03224DF2AB
:102F800026617868FEF752FD5A224DF22761786873
:102F9000FEF74CFD03224DF228617868FEF746FDEE
:102FA00073224DF229617868FEF740FD03224DF24D
:102FB0002A617868FEF73AFD94224DF22B61786819
:102FC000FEF734FD03224DF22C617868FEF72EFDEA
:102FD0009F224DF22D617868FEF728FD03224DF205
:102FE0002E617868FEF722FDB3224DF22F617868DA
:102FF000FEF71CFD03224DF230617868FEF716FDE6
:10300000B9224DF231617868FEF710FD03224DF2CE
:1030100032617868FEF70AFDC1224DF233617868AB
:10302000FEF704FD55224FF470417868FEF7FEFC70
:10303000AA224FF201017868FEF7F8FC52224FF203
:1030400002017868FEF7F2FC08224FF2030178686B
:10305000FEF7ECFC00224FF204017868FEF7E6FC74
:1030600008224FF430417868FEF7E0FC05224BF26D
:1030700001017868FEF7DAFC02224BF2020178685F
:10308000FEF7D4FC05224BF203017868FEF7CEFC74
:1030900002224BF204017868FEF7C8FC00224FF4CC
:1030A00037417868FEF7C2FC00224BF20171786864
:1030B000FEF7BCFC01224FF438417868FEF7B6FCFD
:1030C00005224BF601017868FEF7B0FC05224BF6AD
:1030D00002017868FEF7AAFC05224BF60301786826
:1030E000FEF7A4FC00224FF43C417868FEF79EFCFA
:1030F00000224BF601417868FEF798FC00224BF65F
:1031000002417868FEF792FC03224FF44C41786844
:10311000FEF78CFC00224CF601417868FEF786FC35
:1031200000224CF602417868FEF780FC01224FF441
:103130003D417868FEF77AFC84224BF601517868AD
:10314000FEF774FC07224BF602517868FEF76EFC1E
:1031500031224BF603517868FEF768FC00224BF6EB
:1031600004517868FEF762FC01224FF43A41786816
:10317000FEF75CFCAA224FF47F417868FEF756FC0C
:1031800055224FF601717868FEF750FC25224FF664
:1031900002717868FEF74AFC01224FF603717868E5
:1031A000FEF744FC08224FF436417868FEF73EFCF7
:1031B00050224FF435417868FEF738FC374B1B68D6
:1031C00001211846FDF760FB00224FF45451786846
:1031D000FEF72CFCA0224FF458517868FEF726FC2D
:1031E00055224FF468517868FEF720FC2B4B1B6882
:1031F00001211846FDF748FB00224FF488517868FA
:10320000FEF714FC00224FF498517868FEF70EFC8C
:10321000224B1B6878211846FDF736FB1F4B1B68B5
:1032200064211846FDF730FB1C4B1B680A21184629
:10323000FDF72AFB00224FF424517868FEF7F6FBD5
:10324000164B1B6864211846FDF71EFB4FF4F07304
:1032500000934FF44873002200217868FEF740FC89
:103260000E4B1B6801211846FDF70EFB4FF4305141
:103270007868FEF7C3FB0023FB60FB68084A9342B3
:1032800007DCFF217868FEF7A1FBFB680133FB60D8
:10329000F3E700BF1037BD4680BD00BF6C080020BB
:1032A00000DC050080B584B000AFF8600846114628
:1032B0001A4603467B810B463B811346FB803B89C4
:1032C0001946F868FEF7F0FB7B891946F868FEF7A7
:1032D000CFFB4FF43051F868FEF790FBFB8819469E
:1032E000F868FEF773FB00BF1037BD4680BD0000D5
:1032F00080B588B002AFF860084611461A4603460A
:103300007B810B463B811346FB80F8883A8979899B
:103310003B8C00930346F868FEF7E2FB134B1B68F7
:1033200001211846FDF7B0FA4FF43051F868FEF766
:1033300065FB00237B61FA887B89D31A0133398CC2
:103340003A898A1A013202FB03F37A699A4208DA4F
:10335000BB8C1946F868FEF739FB7B6901337B614A
:10336000E9E700BF1837BD4680BD00BF6C080020EC
:1033700080B582B000AF78607868FEF71BFB064B23
:10338000D3F88830044A43F47003C2F888307B686D
:1033900018460837BD4680BD00ED00E090B587B007
:1033A00002AFF860084611461A4603467B810B4679
:1033B0003B811346FB807A89FB8813449CB23A898F
:1033C0003B8C13449BB238897989BA8C0192009363
:1033D00023460246F868FFF78BFF00BF1437BD464F
:1033E00090BD90B587B002AFF860084611461A4606
:1033F00003467B810B463B811346FB807A893B8CDD
:1034000013449CB23A89FB8813449BB2388979896A
:10341000BA8C0192009323460246F868FFF768FFD2
:1034200000BF1437BD4690BD90B587B002AFF860BD
:10343000084611461A4603467B810B463B811346DC
:10344000FB80FA887B89D31A9CB2BB8C5B089BB249
:10345000388979893A8D0192009323460246F868AB
:10346000FFF79CFFBB8C5B089BB23A8CD31A98B2D7
:10347000FA887B89D31A9CB2BB8C5B089BB2798992
:103480003A8D0192009323460246F868FFF786FFC3
:103490003A8C3B89D31A9CB2BB8C5B089BB23889AF
:1034A00079893A8D0192009323460246F868FFF726
:1034B00098FFBB8C5B089BB2FA88D31A99B23A8CFE
:1034C0003B89D31A9CB2BB8C5B089BB238893A8D7E
:1034D0000192009323460246F868FFF782FF00BF7F
:1034E0001437BD4690BD80B586B000AFF860084681
:1034F00011461A4603467B810B463B811346FB80EF
:10350000FA887B89D31AF9887A898A1A02FB03F22E
:10351000398C3B89CB1A388C3989411A01FB03F36A
:10352000134407EE903AF8EEE77AB0EE670A1FF020
:1035300099F987ED040A0023FB82FB8AD7ED047A10
:10354000FCEEE77A17EE902A93423CD27B8907EE95
:10355000903AB8EEE77AFB8AF9887A898A1A02FBF0
:1035600003F307EE903AB8EEE76AD7ED046AC6EEC9
:10357000267A77EE277AFCEEE77A17EE903A98B241
:103580003B8907EE903AB8EEE77AFB8A398C3A89A4
:103590008A1A02FB03F307EE903AB8EEE76AD7ED1A
:1035A000046AC6EE267A77EE277AFCEEE77A17EE03
:1035B000903A9AB2BB8C0146F868FFF773FEFB8A1B
:1035C0000133FB82B9E700BF1837BD4680BD90B517
:1035D0008BB002AFF860084611461A4603467B815D
:1035E0000B463B811346FB80FA887B89D31AF98806
:1035F0007A898A1A02FB03F2398E3B89CB1A388EFC
:103600003989411A01FB03F3134407EE903AF8EEAF
:10361000E77AB0EE670A1FF025F987ED050AFA8808
:103620007B89D31A9BB27B823A8E3B89D31A9BB299
:103630003B820023FB830023BB830023BB61BB8E43
:10364000BA699A4280F2BA80B7F91230002B30DBA7
:10365000BB6907EE903AB8EEE77AB7F9103007EE9B
:10366000903AB8EEE76AD7ED056AC6EE267A67EEBD
:10367000277AFDEEE77A17EE903A1BB29BB25B42D7
:103680009BB2FB83BB6907EE903AB8EEE77AB7F9D5
:10369000123007EE903AB8EEE76AD7ED056AC6EE4B
:1036A000267A67EE277AFDEEE77A17EE903ABB832B
:1036B00030E0BB6907EE903AB8EEE77AB7F912301E
:1036C00007EE903AB8EEE76AD7ED056AC6EE267ABD
:1036D00067EE277AFDEEE77A17EE903A1BB2002BE1
:1036E000B8BF5B429BB2BB83BB6907EE903AB8EEB2
:1036F000E77AB7F9103007EE903AB8EEE76AD7EDFF
:10370000056AC6EE267A67EE277AFDEEE77A17EEAF
:10371000903AFB83FA8B7B89134499B2BA8B3B892D
:10372000134498B2FA8BFB8813449CB2BA8B3B8E3D
:1037300013449BB23A8F0192009323460246F868E5
:10374000FFF7D1FEFA8B7B8913449BB2013399B208
:10375000BA8B3B89134498B2FA8BFB8813449BB213
:1037600001339CB2BA8B3B8E13449BB23A8F0192C9
:10377000009323460246F868FFF7B5FEFA8B7B8973
:10378000134499B2BA8B3B8913449BB2013398B26C
:10379000FA8BFB8813449CB2BA8B3B8E13449BB2CA
:1037A00001339BB23A8F0192009323460246F86898
:1037B000FFF799FEBB690133BB6140E700BF2437C7
:1037C000BD4690BD80B58AB000AFF860084611468E
:1037D00087ED010A1A4603467B810B463B8113465F
:1037E0007B80B7EE007AD7ED017A77EE677AFDEE4F
:1037F000E77A17EE903A7B6201233B62D7ED017ABC
:10380000B8EE007A67EE877AFDEEE77A17EE903A27
:10381000FB610023BB61D7ED017AFDEEE77A17EE7D
:10382000903A7B613B8907EE903AB8EEE77AD7EDA4
:10383000017A77EE277AFCEEE77A17EE903A9AB2A1
:103840007B887989F868FFF72DFD3B8907EE903A70
:10385000B8EEE77AD7ED017A77EE677AFCEEE77A91
:1038600017EE903A9AB27B887989F868FFF71AFDCB
:103870007B8907EE903AB8EEE77AD7ED017A77EEDA
:10388000277AFCEEE77A17EE903A99B27B883A896C
:10389000F868FFF707FD7B8907EE903AB8EEE77A04
:1038A000D7ED017A77EE677AFCEEE77A17EE903A79
:1038B00099B27B883A89F868FFF7F4FCBA697B69AA
:1038C0009A4280F288807B6A002B09DB7B69013B8E
:1038D0007B61FB690233FB617A6AFB6913447B629B
:1038E000BB690133BB613B6A02333B627A6A3B6A64
:1038F00013447B62BB699AB27B89134499B27B699A
:103900009AB23B8913449AB27B88F868FFF7CAFCE5
:10391000BB699BB27A89D31A99B27B699AB23B8907
:1039200013449AB27B88F868FFF7BCFCBB699AB273
:103930007B89134499B27B699BB23A89D31A9AB2B4
:103940007B88F868FFF7AEFCBB699BB27A89D31A13
:1039500099B27B699BB23A89D31A9AB27B88F8688C
:10396000FFF7A0FC7B699AB27B89134499B2BB69CB
:103970009AB23B8913449AB27B88F868FFF792FCAD
:103980007B699BB27A89D31A99B2BB699AB23B8997
:1039900013449AB27B88F868FFF784FC7B699AB27B
:1039A0007B89134499B2BB699BB23A89D31A9AB204
:1039B0007B88F868FFF776FC7B699BB27A89D31A1B
:1039C00099B2BB699BB23A89D31A9AB27B88F868DC
:1039D000FFF768FC72E700BF2837BD4680BD80B5A1
:1039E00086B000AFF8600846114687ED010A1A4616
:1039F00003467B810B463B8113467B8000237B6122
:103A00007B887A699A424FDA7B6907EE903AF8EE42
:103A1000E77A97ED017A77EE677A3B8C3A89798974
:103A2000B0EE670AF868FFF7CDFE7B89013B99B2DB
:103A30003B89013B9AB27B6907EE903AF8EEE77A50
:103A400097ED017A77EE677A3B8CB0EE670AF868FB
:103A5000FFF7B8FE3B89013B9AB27B6907EE903ACB
:103A6000F8EEE77A97ED017A77EE677A3B8C798901
:103A7000B0EE670AF868FFF7A5FE7B89013B99B2B3
:103A80007B6907EE903AF8EEE77A97ED017A77EEE8
:103A9000677A3B8C3A89B0EE670AF868FFF792FEC6
:103AA0007B6901337B61ABE700BF1837BD4680BD42
:103AB00090B52DED028B87B000AFF8600846114637
:103AC00087ED010A1A4603467B810B463B8113466C
:103AD0007B800023FB82FB8A07EE903AB8EEE77A00
:103AE000D7ED017A77EEA77AB4EEE77AF1EE10FA25
:103AF00000D9E5E07A89FB8A13449CB23B8907EE42
:103B0000903AB8EEE78AD7ED017A27EEA77AFB8ADA
:103B100007EE903AF8EEE76AD7ED017A76EEE76ABB
:103B2000FB8A07EE903AB8EEE76AD7ED017A76EEB7
:103B3000677A66EEA77A77EE677AB0EE670A1EF0CC
:103B400091FEF0EE407A38EE277AD7ED017A77EEE3
:103B5000277AFCEEE77A17EE903A9AB27B882146F4
:103B6000F868FFF79FFB7A89FB8A13449CB23B8974
:103B700007EE903AB8EEE78AD7ED017A27EEA77AFA
:103B8000FB8A07EE903AF8EEE76AD7ED017A76EE17
:103B9000E76AFB8A07EE903AB8EEE76AD7ED017A5A
:103BA00076EE677A66EEA77A77EE677AB0EE670A06
:103BB0001EF058FEF0EE407A38EE677AD7ED017AC3
:103BC00077EE277AFCEEE77A17EE903A9AB27B8886
:103BD0002146F868FFF766FB7B8907EE903AB8EE5E
:103BE000E78AD7ED017A27EEA77AFB8A07EE903AAB
:103BF000F8EEE76AD7ED017A76EEE76AFB8A07EE20
:103C0000903AB8EEE76AD7ED017A76EE677A66EE1B
:103C1000A77A77EE677AB0EE670A1EF023FEF0EE21
:103C2000407A38EE277AD7ED017A77EE277AFCEEE4
:103C3000E77A17EE903A99B23A89FB8A13449AB21E
:103C40007B88F868FFF72EFB7B8907EE903AB8EE89
:103C5000E78AD7ED017A27EEA77AFB8A07EE903A3A
:103C6000F8EEE76AD7ED017A76EEE76AFB8A07EEAF
:103C7000903AB8EEE76AD7ED017A76EE677A66EEAB
:103C8000A77A77EE677AB0EE670A1EF0EBFDF0EEEA
:103C9000407A38EE677AD7ED017A77EE277AFCEE34
:103CA000E77A17EE903A99B23A89FB8A13449AB2AE
:103CB0007B88F868FFF7F6FAFB8A0133FB820AE794
:103CC0001C37BD46BDEC028B90BD80B586B000AF01
:103CD000F8600846114687ED010A1A4603467B81C3
:103CE0000B463B8113467B8000237B617B887A698E
:103CF0009A4252DA7B699AB27B89134499B27B6902
:103D00009AB23B8913449AB27B6907EE903AF8EE77
:103D1000E77A97ED017A77EE677A3B8CB0EE670A27
:103D2000F868FFF7C5FE7B699AB27B8913449BB2A2
:103D3000013399B27B699AB23B8913449AB27B6989
:103D400007EE903AF8EEE77A97ED017A77EE677A28
:103D50003B8CB0EE670AF868FFF7AAFE7B699AB25F
:103D60007B89134499B27B699AB23B8913449BB215
:103D700001339AB27B6907EE903AF8EEE77A97ED55
:103D8000017A77EE677A3B8CB0EE670AF868FFF746
:103D90008FFE7B6901337B61A8E700BF1837BD4602
:103DA00080BD000090B58BB004AFF86008461146A6
:103DB0001A4603467B810B463B811346FB803B8DB5
:103DC00007EE903AF8EE677A9FED437A67EE877ACE
:103DD000DFED426A87EEA67AB0EE470AFDF78EFD68
:103DE00087ED050A3B8D07EE903AF8EE677A9FED76
:103DF0003A7A67EE877ADFED396A87EEA67AB0EE17
:103E0000470AFDF78BFD87ED040A7B8907EE903AA0
:103E1000B8EEE77AFA883B8ED31A07EE903AF8EEBE
:103E2000E76AD7ED057A66EEA77A77EE277AFCEE99
:103E3000E77A17EE903A99B23B8907EE903AB8EEDE
:103E4000E77AFA883B8ED31A07EE903AF8EEE76AE3
:103E5000D7ED047A66EEA77A77EE277AFCEEE77A5A
:103E600017EE903A98B27B8907EE903AB8EEE77A6F
:103E7000FB8807EE903AF8EEE76AD7ED057A66EE32
:103E8000A77A77EE277AFCEEE77A17EE903A9CB2A3
:103E90003B8907EE903AB8EEE77AFB8807EE903A56
:103EA000F8EEE76AD7ED047A66EEA77A77EE277A1E
:103EB000FCEEE77A17EE903A9BB2BA8E0292BA8D78
:103EC0000192009323460246F868FFF780FB00BF8B
:103ED0001C37BD4690BD00BFDB0F49400000344396
:103EE00080B586B002AFF860084611461A46034610
:103EF0007B810B463B811346FB80F8883A897989A0
:103F0000BB8C01933B8B00930346F868FFF7EBFAF9
:103F1000B88B3A8BF988BB8C01933B8C009303469A
:103F2000F868FFF7E0FA78893A8CB98BBB8C01937B
:103F30003B8900930346F868FFF7D5FA00BF1037B6
:103F4000BD4680BD90B593B002AFF86008461146FB
:103F50001A4603467B810B463B811346FB80FA8859
:103F60007B89D31AF9887A898A1A02FB03F2B7F897
:103F700050103B89CB1AB7F850003989411A01FB20
:103F800003F3134407EE903AF8EEE77AB0EE670ACF
:103F90001EF068FC87ED0C0AB7F85420FB88D31A92
:103FA000B7F85410FA888A1A02FB03F2B7F85810CF
:103FB000B7F85030CB1AB7F85800B7F85010411A7C
:103FC00001FB03F3134407EE903AF8EEE77AB0EE04
:103FD000670A1EF047FC87ED0B0AB7F854207B896F
:103FE000D31AB7F854107A898A1A02FB03F2B7F889
:103FF00058103B89CB1AB7F858003989411A01FB90
:1040000003F3134407EE903AF8EEE77AB0EE670A4E
:104010001EF028FC87ED0A0AB7F85420FB88D31A53
:1040200007EE903AF8EEE76A97ED0B7AC6EE877ADC
:10403000C7ED097AB7F85820B7F85030D31A07EE11
:10404000903AF8EEE76A97ED0B7AC6EE877AC7EDFD
:10405000087A7A89B7F85430D31A07EE903AF8EE16
:10406000E76A97ED0A7AC6EE877AC7ED077A3A894A
:10407000B7F85830D31A07EE903AF8EEE76A97EDA2
:104080000A7AC6EE877AC7ED067AFA887B89D31A50
:1040900007EE903AF8EEE76A97ED0C7AC6EE877A6B
:1040A000C7ED057AB7F850203B89D31A07EE903A4E
:1040B000F8EEE76A97ED0C7AC6EE877AC7ED047AD8
:1040C0000023FB63FB6B07EE903AF8EEE77A97ED7F
:1040D0000B7AB4EEE77AF1EE10FA39DBFB8807EEE3
:1040E000903AB8EEE77AFB6B07EE903AF8EEE76AA3
:1040F000D7ED097A66EEA77A77EE277AFCEEE77AB3
:1041000017EE903A9CB2B7F8503007EE903AB8EEFE
:10411000E77AFB6B07EE903AF8EEE76AD7ED087A9C
:1041200066EEA77A77EE277AFCEEE77A17EE903AFA
:104130009BB238897989B7F85C20019200932346B5
:104140000246F868FFF7CFF9FB6B0133FB63B9E771
:104150000023BB63BB6B07EE903AF8EEE77A97ED6E
:104160000A7AB4EEE77AF1EE10FA3BDBB7F8543096
:1041700007EE903AB8EEE77ABB6B07EE903AF8EEAE
:10418000E76AD7ED077A66EEA77A77EE277AFCEE34
:10419000E77A17EE903A9CB2B7F8583007EE903AAB
:1041A000B8EEE77ABB6B07EE903AF8EEE76AD7ED28
:1041B000067A66EEA77A77EE277AFCEEE77A17EEB4
:1041C000903A9BB2B7F85000F988B7F85C2001929A
:1041D000009323460246F868FFF785F9BB6B01336D
:1041E000BB63B7E700237B637B6B07EE903AF8EE87
:1041F000E77A97ED0C7AB4EEE77AF1EE10FA00DA8E
:104200003AE07B8907EE903AB8EEE77A7B6B07EEEF
:10421000903AF8EEE76AD7ED057A66EEA77A77EE80
:10422000277AFCEEE77A17EE903A9CB23B8907EECC
:10423000903AB8EEE77A7B6B07EE903AF8EEE76AD1
:10424000D7ED047A66EEA77A77EE277AFCEEE77A66
:1042500017EE903A9BB2B7F85800B7F85410B7F879
:104260005C200192009323460246F868FFF73BF971
:104270007B6B01337B63B7E74437BD4690BD0000DD
:1042800080B586B004AF78604FF47F430293032378
:1042900001933223009332230A220A217868FFF720
:1042A000C3F84FF6A07302930123019333230093C5
:1042B0003323092209217868FFF7B6F81F230093FA
:1042C00064239FED2F0AF022C8217868FFF787FB4F
:1042D0001F23009364239FED2A0A8C224FF4FA7166
:1042E0007868FFF7F2FC0023009332239FED250A44
:1042F0004FF48C72C8217868FFF771FB002300939C
:1043000032239FED200A4FF48C724FF416717868B7
:10431000FFF765FB44F20823029332230193002345
:1043200000934FF42F7364224FF4FA717868FFF70B
:104330004EF944F20823029332230193642300933D
:104340004FF49673002264217868FFF740F94FF626
:10435000100303934FF4E17302934FF4AF7301938F
:104360004FF4C87300934FF4C8734FF4E1724FF4E5
:10437000C8717868FFF7E6FD00BF0837BD4680BD0D
:104380000000C8420000484280B584B000AF7860A9
:104390000B467B8013463B807868FDF7CFFA7B683D
:1043A0004FF6FF721A807B6800225A807B680433C4
:1043B00000221A605A609A60DA601A617B681833CA
:1043C00000221A605A609A60DA601A617B680022E3
:1043D00083F82C207B687A881A807B683A885A8018
:1043E0001D4BBB600023FB60FB6842F6A722934293
:1043F00024DCFB685B00BA6813441A88174B1B88DF
:104400009A4207D1FB685B00BA6813447A68128845
:104410001A800FE0FB685B00BA6813441A88104BDF
:104420001B889A4206D1FB685B00BA6813447A681D
:1044300052881A80FB680133FB60D5E77B681A88D5
:10444000064B1A807B685A88054B1A807B68184691
:104450001037BD4680BD00BF840800200008002042
:104460008008002080B485B000AF78600B467B8068
:1044700013463B801B4BBB600023FB60FB6842F68E
:10448000A722934222DCFB685B00BA6813441A88B7
:10449000154B1B889A4206D1FB685B00BA6813442F
:1044A0007A881A800EE0FB685B00BA6813441A88A9
:1044B0000E4B1B889A4205D1FB685B00BA68134417
:1044C0003A881A80FB680133FB60D7E7064A7B888D
:1044D0001380064A3B88138000BF1437BD465DF841
:1044E000047B70478408002000080020800800201A
:1044F00080B588B002AFF860084611461A460346F8
:104500007B810B463B811346FB71FB791946F868AA
:1045100000F04EF838617B891B3398B23B891D331C
:104520009BB23A89798900930346F868FDF7D8FA77
:104530004FF43051F868FDF761FA00237B617B6925
:10454000B3F5527F0CDA7B695B003A6913441B8830
:104550001946F868FDF73AFA7B6901337B61EEE7AB
:1045600000BF1837BD4680BD80B586B000AFF8608B
:104570007B600B467B8113463B810023FB827B687B
:104580001B78002B10D07A89FB8A134499B27B6880
:104590001B783A89F868FFF7ABFFFB8A1C33FB8274
:1045A0007B6801337B60EAE700BF1837BD4680BDFA
:1045B00080B483B000AF78600B46FB70FB78302B83
:1045C00001D1224B3CE0FB78312B01D1204B37E06D
:1045D000FB78322B01D11F4B32E0FB78332B01D11A
:1045E0001D4B2DE0FB78342B01D11C4B28E0FB78D0
:1045F000352B01D11A4B23E0FB78362B01D1194B17
:104600001EE0FB78372B01D1174B19E0FB78382BD4
:1046100001D1164B14E0FB78392B01D1144B0FE07C
:10462000FB782E2B01D1134B0AE0FB783A2B01D1FA
:10463000114B05E0FB78202B01D1104B00E000234B
:1046400018460C37BD465DF8047B7047341C0020CB
:10465000C422002054290020E42F002074360020BA
:10466000043D002094430020244A0020B450002040
:1046700044570020140F0020D45D0020840800203F
:1046800080B52DED028B86B000AFF860B96013469F
:10469000FB710023FB74FA7CFB799A426FD2FB7C9E
:1046A000BA6813441B78302B01D10023BB74FB7C08
:1046B000BA6813441B78312B01D10123BB74FB7CF6
:1046C000BA6813441B78322B01D10223BB74FB7CE4
:1046D000BA6813441B78332B01D10323BB74FB7CD2
:1046E000BA6813441B78342B01D10423BB74FB7CC0
:1046F000BA6813441B78352B01D10523BB74FB7CAE
:10470000BA6813441B78362B01D10623BB74FB7C9B
:10471000BA6813441B78372B01D10723BB74FB7C89
:10472000BA6813441B78382B01D10823BB74FB7C77
:10473000BA6813441B78392B01D10923BB74BB7CA5
:1047400007EE903AB8EEE78BFA79FB7CD31A19465C
:104750000A2000F061F9B0EE407B28EE076B7B6920
:1047600007EE903AB8EE677B36EE077BFCEEC77B30
:1047700017EE903A7B61FB7C0133FB748BE77B691E
:1047800018461837BD46BDEC028B80BD80B487B09B
:1047900000AF786039603B687B610023FB747B6904
:1047A000002B09D07B696F4AA2FB0323DB087B61E6
:1047B000FB7C0133FB74F2E73B687B617B68FA7C2E
:1047C00083F82C203B68002B16D17B68012283F8EC
:1047D0002C207B6893F82C30013B7A6813443022FC
:1047E0001A717B6893F82C301A467B6813440022B8
:1047F0001A717B680433AEE00023BB747B6893F8C6
:104800002C30BA7C9A4280F097807969554BA3FB93
:104810000123DA0813469B0013445B00CA1AFA60AE
:10482000FB68002B09D17B6893F82C305A1EBB7CA7
:10483000D31A7A68134430221A71FB68012B09D10C
:104840007B6893F82C305A1EBB7CD31A7A681344C9
:1048500031221A71FB68022B09D17B6893F82C3046
:104860005A1EBB7CD31A7A68134432221A71FB6831
:10487000032B09D17B6893F82C305A1EBB7CD31ACA
:104880007A68134433221A71FB68042B09D17B68C0
:1048900093F82C305A1EBB7CD31A7A681344342206
:1048A0001A71FB68052B09D17B6893F82C305A1ECE
:1048B000BB7CD31A7A68134435221A71FB68062B25
:1048C00009D17B6893F82C305A1EBB7CD31A7A68C6
:1048D000134436221A71FB68072B09D17B6893F8C1
:1048E0002C305A1EBB7CD31A7A68134437221A71B3
:1048F000FB68082B09D17B6893F82C305A1EBB7CCF
:10490000D31A7A68134438221A71FB68092B09D12B
:104910007B6893F82C305A1EBB7CD31A7A681344F8
:1049200039221A717B690F4AA2FB0323DB087B61E2
:10493000BB7C0133BB7461E77B6893F82C30082B98
:1049400007D87B6893F82C301A467B681344002202
:104950001A717B68043318461C37BD465DF8047B2A
:10496000704700BFCDCCCCCC80B582B000AF7860B2
:1049700087ED000A7B6803F11800D7ED007AB7EEE7
:10498000E77A53EC172B04491EF0A6F87B6818331E
:1049900018460837BD4680BD3C45020880B586B044
:1049A00000AFF8607B600B467B8113463B810023A0
:1049B000FB750023BB827B681B78002B13D07A89A0
:1049C000BB8A134499B27B681B783A89F868FFF771
:1049D0008FFDBB8A1C33BB827B6801337B60FB7D10
:1049E0000133FB75E7E7FA7D97F820309A420FD242
:1049F0007A89BB8A134499B23A892023F868FFF771
:104A000077FDBB8A1C33BB82FB7D0133FB75EAE774
:104A100000BF1837BD4680BD80B582B000AF78605A
:104A200039607B6807EE903AB8EEE77B3B6806EEAC
:104A3000903AB8EEE66BB0EE461BB0EE470B1DF0B9
:104A40009FFAB0EE407BB0EE470B0837BD4680BD05
:104A500080B483B000AF786039607B68012B5DF073
:104A60002A813B684FF6FF7293425DF024818F4BA1
:104A70001A888F4B1A808D4B1A888D4B5A808B4B1E
:104A80001A888B4B9A80894B1A88894BDA80874B1E
:104A90001A88874B1A81854B1A88854B5A81834B1C
:104AA0001A88834B9A81814B1A88814BDA817F4B1C
:104AB0001A887F4B1A827D4B1A887D4B5A827B4B1A
:104AC0001A887B4B9A82794B1A88794BDA82774B1A
:104AD0001A88774B1A83754B1A88754B5A83734B18
:104AE0001A88734B9A83714B1A88714BDA836F4B18
:104AF0001A886F4B1A846D4B1A886D4B5A846B4B16
:104B00001A886B4B9A84694B1A88694BDA84674B15
:104B10001A88674B1A85654B1A88654B5A85634B13
:104B20001A88634B9A85614B1A88614BDA855F4B13
:104B30001A885F4B1A865D4B1A885D4B5A865B4B11
:104B40001A885B4B9A86594B1A88594BDA86574B11
:104B50001A88574B1A87554B1A88554B5A87534B0F
:104B60001A88534B9A87514B1A88514BDA874F4B0F
:104B70001A884F4BA3F840204C4B1A884C4BA3F893
:104B800042204A4B1A884A4BA3F84420474B1A88C4
:104B9000474BA3F84620454B1A88454BA3F84820BD
:104BA000424B1A88424BA3F84A20404B1A88404B8C
:104BB000A3F84C203D4B1A883D4BA3F84E203B4BAD
:104BC0001A883B4BA3F85020384B1A88384BA3F86F
:104BD0005220364B1A88364BA3F85420334B1A8890
:104BE000334BA3F85620314B1A88314BA3F8582089
:104BF0002E4B1A882E4BA3F85A202C4B1A882C4B7C
:104C0000A3F85C20294B1A88294BA3F85E20274B78
:104C10001A88274BA3F86020244B1A88244BA3F84A
:104C20006220224B1A88224BA3F864201F4B1A885B
:104C30001F4BA3F866201D4B1A881D4BA3F8682054
:104C40001A4B1A881A4BA3F86A20184B1A88184B6B
:104C5000A3F86C20154B1A88154BA3F86E20134B44
:104C60001A88134BA3F87020104B1A88104BA3F826
:104C700072200E4B1A880E4BA3F874200B4B1A8827
:104C80000B4BA3F87620094B1A88094BA3F8782020
:104C9000064B1A88064BA3F87A20044B1A88044B5B
:104CA000A3F87C20014B1A8804E000BF0208002012
:104CB000840800209F4BA3F87E209F4B1A889D4BB1
:104CC000A3F880209C4B1A889A4BA3F882209A4B19
:104CD0001A88984BA3F88420974B1A88954BA3F811
:104CE0008620954B1A88934BA3F88820924B1A88FC
:104CF000904BA3F88A20904B1A888E4BA3F88C20F7
:104D00008D4B1A888B4BA3F88E208B4B1A88894BBE
:104D1000A3F89020884B1A88864BA3F89220864BE4
:104D20001A88844BA3F89420834B1A88814BA3F8EC
:104D30009620814B1A887F4BA3F898207E4B1A88C7
:104D40007C4BA3F89A207C4B1A887A4BA3F89C20C2
:104D5000794B1A88774BA3F89E20774B1A88754BAE
:104D6000A3F8A020744B1A88724BA3F8A220724BB0
:104D70001A88704BA3F8A4206F4B1A886D4BA3F8C8
:104D8000A6206D4B1A886B4BA3F8A8206A4B1A8893
:104D9000684BA3F8AA20684B1A88664BA3F8AC208E
:104DA000654B1A88634BA3F8AE20634B1A88614B9E
:104DB000A3F8B020604B1A885E4BA3F8B2205E4B7C
:104DC0001A885C4BA3F8B4205B4B1A88594BA3F8A4
:104DD000B620594B1A88574BA3F8B820564B1A885F
:104DE000544BA3F8BA20544B1A88524BA3F8BC205A
:104DF000514B1A884F4BA3F8BE204F4B1A884D4B8E
:104E0000A3F8C0204C4B1A884A4BA3F8C2204A4B47
:104E10001A88484BA3F8C420474B1A88454BA3F87F
:104E2000C620454B1A88434BA3F8C820424B1A882A
:104E3000404BA3F8CA20404B1A883E4BA3F8CC2025
:104E40003D4B1A883B4BA3F8CE203B4B1A88394B7D
:104E5000A3F8D020384B1A88364BA3F8D220364B13
:104E60001A88344BA3F8D420334B1A88314BA3F85B
:104E7000D620314B1A882F4BA3F8D8202E4B1A88F6
:104E80002C4BA3F8DA202C4B1A882A4BA3F8DC20F1
:104E9000294B1A88274BA3F8DE20274B1A88254B6D
:104EA000A3F8E020244B1A88224BA3F8E220224BDF
:104EB0001A88204BA3F8E4201F4B1A881D4BA3F837
:104EC000E6201D4B1A881B4BA3F8E8201A4B1A88C2
:104ED000184BA3F8EA20184B1A88164BA3F8EC20BD
:104EE000154B1A88134BA3F8EE20134B1A88114B5D
:104EF000A3F8F020104B1A880E4BA3F8F2200E4BAB
:104F00001A880C4BA3F8F4200B4B1A88094BA3F812
:104F1000F620094B1A88074BA3F8F820064B1A888D
:104F2000044BA3F8FA20044B1A88024BA3F8FC2088
:104F300004E000BF84080020020800209E4B1A886D
:104F40009E4BA3F8FE209C4B1A889C4BA3F8002193
:104F5000994B1A88994BA3F80221974B1A88974BC3
:104F6000A3F80421944B1A88944BA3F80621924B82
:104F70001A88924BA3F808218F4B1A888F4BA3F8FD
:104F80000A218D4B1A888D4BA3F80C218A4B1A8865
:104F90008A4BA3F80E21884B1A88884BA3F810215E
:104FA000854B1A88854BA3F81221834B1A88834BB3
:104FB000A3F81421804B1A88804BA3F816217E4B4E
:104FC0001A887E4BA3F818217B4B1A887B4BA3F8D9
:104FD0001A21794B1A88794BA3F81C21764B1A8831
:104FE000764BA3F81E21744B1A88744BA3F820212A
:104FF000714B1A88714BA3F822216F4B1A886F4BA3
:10500000A3F824216C4B1A886C4BA3F826216A4B19
:105010001A886A4BA3F82821674B1A88674BA3F8B4
:105020002A21654B1A88654BA3F82C21624B1A88FC
:10503000624BA3F82E21604B1A88604BA3F83021F5
:105040005D4B1A885D4BA3F832215B4B1A885B4B92
:10505000A3F83421584B1A88584BA3F83621564BE5
:105060001A88564BA3F83821534B1A88534BA3F890
:105070003A21514B1A88514BA3F83C214E4B1A88C8
:105080004E4BA3F83E214C4B1A884C4BA3F84021C1
:10509000494B1A88494BA3F84221474B1A88474B82
:1050A000A3F84421444B1A88444BA3F84621424BB1
:1050B0001A88424BA3F848213F4B1A883F4BA3F86C
:1050C0004A213D4B1A883D4BA3F84C213A4B1A8894
:1050D0003A4BA3F84E21384B1A88384BA3F850218D
:1050E000354B1A88354BA3F85221334B1A88334B72
:1050F000A3F85421304B1A88304BA3F856212E4B7D
:105100001A882E4BA3F858212B4B1A882B4BA3F847
:105110005A21294B1A88294BA3F85C21264B1A885F
:10512000264BA3F85E21244B1A88244BA3F8602158
:10513000214B1A88214BA3F862211F4B1A881F4B61
:10514000A3F864211C4B1A881C4BA3F866211A4B48
:105150001A881A4BA3F86821174B1A88174BA3F823
:105160006A21154B1A88154BA3F86C21124B1A882B
:10517000124BA3F86E21104B1A88104BA3F8702124
:105180000D4B1A880D4BA3F872210B4B1A880B4B51
:10519000A3F87421084B1A88084BA3F87621064B14
:1051A0001A88064BA3F87821034B1A88034BA3F8FF
:1051B0007A21014B1A8803E00208002084080020AD
:1051C0009F4BA3F87C219F4B1A889D4BA3F87E210F
:1051D0009C4B1A889A4BA3F880219A4B1A88984BBB
:1051E000A3F88221974B1A88954BA3F88421954BFD
:1051F0001A88934BA3F88621924B1A88904BA3F8F8
:105200008821904B1A888E4BA3F88A218D4B1A88DF
:105210008B4BA3F88C218B4B1A88894BA3F88E21DA
:10522000884B1A88864BA3F89021864B1A88844BAA
:10523000A3F89221834B1A88814BA3F89421814BC8
:105240001A887F4BA3F896217E4B1A887C4BA3F8D3
:1052500098217C4B1A887A4BA3F89A21794B1A88AB
:10526000774BA3F89C21774B1A88754BA3F89E21A6
:10527000744B1A88724BA3F8A021724B1A88704B9A
:10528000A3F8A2216F4B1A886D4BA3F8A4216D4B94
:105290001A886B4BA3F8A6216A4B1A88684BA3F8AF
:1052A000A821684B1A88664BA3F8AA21654B1A8877
:1052B000634BA3F8AC21634B1A88614BA3F8AE2172
:1052C000604B1A885E4BA3F8B0215E4B1A885C4B8A
:1052D000A3F8B2215B4B1A88594BA3F8B421594B60
:1052E0001A88574BA3F8B621564B1A88544BA3F88B
:1052F000B821544B1A88524BA3F8BA21514B1A8843
:105300004F4BA3F8BC214F4B1A884D4BA3F8BE213D
:105310004C4B1A884A4BA3F8C0214A4B1A88484B79
:10532000A3F8C221474B1A88454BA3F8C421454B2B
:105330001A88434BA3F8C621424B1A88404BA3F866
:10534000C821404B1A883E4BA3F8CA213D4B1A880E
:105350003B4BA3F8CC213B4B1A88394BA3F8CE2109
:10536000384B1A88364BA3F8D021364B1A88344B69
:10537000A3F8D221334B1A88314BA3F8D421314BF7
:105380001A882F4BA3F8D6212E4B1A882C4BA3F842
:10539000D8212C4B1A882A4BA3F8DA21294B1A88DA
:1053A000274BA3F8DC21274B1A88254BA3F8DE21D5
:1053B000244B1A88224BA3F8E021224B1A88204B59
:1053C000A3F8E2211F4B1A881D4BA3F8E4211D4BC3
:1053D0001A881B4BA3F8E6211A4B1A88184BA3F81E
:1053E000E821184B1A88164BA3F8EA21154B1A88A6
:1053F000134BA3F8EC21134B1A88114BA3F8EE21A1
:10540000104B1A880E4BA3F8F0210E4B1A880C4B48
:10541000A3F8F2210B4B1A88094BA3F8F421094B8E
:105420001A88074BA3F8F621064B1A88044BA3F8F9
:10543000F821044B1A88024BA3F8FA2104E000BFBC
:1054400084080020020800209E4B1A889E4BA3F877
:10545000FC219C4B1A889C4BA3F8FE21994B1A887F
:10546000994BA3F80022974B1A88974BA3F8022276
:10547000944B1A88944BA3F80422924B1A88924BAF
:10548000A3F806228F4B1A888F4BA3F808228D4B66
:105490001A888D4BA3F80A228A4B1A888A4BA3F8E4
:1054A0000C22884B1A88884BA3F80E22854B1A8849
:1054B000854BA3F81022834B1A88834BA3F8122242
:1054C000804B1A88804BA3F814227E4B1A887E4B9F
:1054D000A3F816227B4B1A887B4BA3F81822794B32
:1054E0001A88794BA3F81A22764B1A88764BA3F8C0
:1054F0001C22744B1A88744BA3F81E22714B1A8815
:10550000714BA3F820226F4B1A886F4BA3F822220D
:105510006C4B1A886C4BA3F824226A4B1A886A4B8E
:10552000A3F82622674B1A88674BA3F82822654BFD
:105530001A88654BA3F82A22624B1A88624BA3F89B
:105540002C22604B1A88604BA3F82E225D4B1A88E0
:105550005D4BA3F830225B4B1A885B4BA3F83222D9
:10556000584B1A88584BA3F83422564B1A88564B7E
:10557000A3F83622534B1A88534BA3F83822514BC9
:105580001A88514BA3F83A224E4B1A884E4BA3F877
:105590003C224C4B1A884C4BA3F83E22494B1A88AC
:1055A000494BA3F84022474B1A88474BA3F84222A5
:1055B000444B1A88444BA3F84422424B1A88424B6E
:1055C000A3F846223F4B1A883F4BA3F848223D4B95
:1055D0001A883D4BA3F84A223A4B1A883A4BA3F853
:1055E0004C22384B1A88384BA3F84E22354B1A8878
:1055F000354BA3F85022334B1A88334BA3F8522271
:10560000304B1A88304BA3F854222E4B1A882E4B5D
:10561000A3F856222B4B1A882B4BA3F85822294B60
:105620001A88294BA3F85A22264B1A88264BA3F82E
:105630005C22244B1A88244BA3F85E22214B1A8843
:10564000214BA3F860221F4B1A881F4BA3F862223C
:105650001C4B1A881C4BA3F864221A4B1A881A4B4D
:10566000A3F86622174B1A88174BA3F86822154B2C
:105670001A88154BA3F86A22124B1A88124BA3F80A
:105680006C22104B1A88104BA3F86E220D4B1A880F
:105690000D4BA3F870220B4B1A880B4BA3F8722208
:1056A000084B1A88084BA3F87422064B1A88064B3D
:1056B000A3F87622034B1A88034BA3F87822014BF8
:1056C0001A8803E002080020840800209F4BA3F8FA
:1056D0007A229F4B1A889D4BA3F87C229C4B1A88F8
:1056E0009A4BA3F87E229A4B1A88984BA3F88022F3
:1056F000974B1A88954BA3F88222954B1A88934BA7
:10570000A3F88422924B1A88904BA3F88622904BE0
:105710001A888E4BA3F888228D4B1A888B4BA3F8DE
:105720008A228B4B1A88894BA3F88C22884B1A88C3
:10573000864BA3F88E22864B1A88844BA3F89022BE
:10574000834B1A88814BA3F89222814B1A887F4B96
:10575000A3F894227E4B1A887C4BA3F896227C4BAC
:105760001A887A4BA3F89822794B1A88774BA3F8BA
:105770009A22774B1A88754BA3F89C22744B1A888F
:10578000724BA3F89E22724B1A88704BA3F8A0228A
:105790006F4B1A886D4BA3F8A2226D4B1A886B4B86
:1057A000A3F8A4226A4B1A88684BA3F8A622684B78
:1057B0001A88664BA3F8A822654B1A88634BA3F896
:1057C000AA22634B1A88614BA3F8AC22604B1A885B
:1057D0005E4BA3F8AE225E4B1A885C4BA3F8B02256
:1057E0005B4B1A88594BA3F8B222594B1A88574B76
:1057F000A3F8B422564B1A88544BA3F8B622544B44
:105800001A88524BA3F8B822514B1A884F4BA3F871
:10581000BA224F4B1A884D4BA3F8BC224C4B1A8826
:105820004A4BA3F8BE224A4B1A88484BA3F8C02221
:10583000474B1A88454BA3F8C222454B1A88434B65
:10584000A3F8C422424B1A88404BA3F8C622404B0F
:105850001A883E4BA3F8C8223D4B1A883B4BA3F84D
:10586000CA223B4B1A88394BA3F8CC22384B1A88F2
:10587000364BA3F8CE22364B1A88344BA3F8D022ED
:10588000334B1A88314BA3F8D222314B1A882F4B55
:10589000A3F8D4222E4B1A882C4BA3F8D6222C4BDB
:1058A0001A882A4BA3F8D822294B1A88274BA3F829
:1058B000DA22274B1A88254BA3F8DC22244B1A88BE
:1058C000224BA3F8DE22224B1A88204BA3F8E022B9
:1058D0001F4B1A881D4BA3F8E2221D4B1A881B4B45
:1058E000A3F8E4221A4B1A88184BA3F8E622184BA7
:1058F0001A88164BA3F8E822154B1A88134BA3F805
:10590000EA22134B1A88114BA3F8EC22104B1A8889
:105910000E4BA3F8EE220E4B1A880C4BA3F8F02284
:105920000B4B1A88094BA3F8F222094B1A88074B34
:10593000A3F8F422064B1A88044BA3F8F622044B72
:105940001A88024BA3F8F82204E000BF8408002064
:10595000020800209E4B1A889E4BA3F8FA229C4B0B
:105960001A889C4BA3F8FC22994B1A88994BA3F8F0
:10597000FE22974B1A88974BA3F80023944B1A8862
:10598000944BA3F80223924B1A88924BA3F804235A
:105990008F4B1A888F4BA3F806238D4B1A888D4B9B
:1059A000A3F808238A4B1A888A4BA3F80A23884B4A
:1059B0001A88884BA3F80C23854B1A88854BA3F8CB
:1059C0000E23834B1A88834BA3F81023804B1A882D
:1059D000804BA3F812237E4B1A887E4BA3F8142326
:1059E0007B4B1A887B4BA3F81623794B1A88794B8B
:1059F000A3F81823764B1A88764BA3F81A23744B16
:105A00001A88744BA3F81C23714B1A88714BA3F8A6
:105A10001E236F4B1A886F4BA3F820236C4B1A88F8
:105A20006C4BA3F822236A4B1A886A4BA3F82423F1
:105A3000674B1A88674BA3F82623654B1A88654B7A
:105A4000A3F82823624B1A88624BA3F82A23604BE1
:105A50001A88604BA3F82C235D4B1A885D4BA3F882
:105A60002E235B4B1A885B4BA3F83023584B1A88C4
:105A7000584BA3F83223564B1A88564BA3F83423BD
:105A8000534B1A88534BA3F83623514B1A88514B6A
:105A9000A3F838234E4B1A884E4BA3F83A234C4BAD
:105AA0001A884C4BA3F83C23494B1A88494BA3F85E
:105AB0003E23474B1A88474BA3F84023444B1A8890
:105AC000444BA3F84223424B1A88424BA3F8442389
:105AD0003F4B1A883F4BA3F846233D4B1A883D4B5A
